:020000040800F2
:10000000481200204D0200089D6500089565000813
:1000100099650008C90C0008317300080000000051
:10002000000000000000000000000000D96500088A
:10003000090D000800000000A1650008DD6500084A
:1000400067020008670200086702000867020008EC
:1000500067020008670200086702000867020008DC
:10006000150D00081D0D0008670200086702000852
:1000700067020008F10C0008670200086702000828
:100080006702000867020008BD0C0008E50C0008C4
:10009000CD0C000867020008D90C000867020008B0
:1000A000670200089D6600086702000867020008F2
:1000B000A9660008B5660008670200086702000824
:1000C000670200086702000867020008670200086C
:1000D000670200086702000867020008670200085C
:1000E0000D0D00086702000867020008670200089B
:1000F000670200086702000867020008670200083C
:10010000670200086702000867020008670200082B
:10011000CD6D00086702000867020008670200084A
:10012000FD0C00086702000867020008670200086B
:1001300067020008000000000000000067020008DD
:1001400067020008670200086702000867020008EB
:1001500067020008670200086702000867020008DB
:1001600067020008670200086702000867020008CB
:10017000670200086702000800000000000000009D
:10018000670200082D0D000800F002F800F04FF89B
:100190000AA090E8000C82448344AAF10107DA45E2
:1001A00001D100F044F8AFF2090EBAE80F0013F0E5
:1001B000010F18BFFB1A43F001031847FC9C000015
:1001C0001C9D0000103A24BF78C878C1FAD85207A5
:1001D00024BF30C830C144BF04680C6070470000C1
:1001E0000023002400250026103A28BF78C1FBD840
:1001F000520728BF30C148BF0B607047662909F01D
:10020000C084642900F0E480732900F09983002001
:1002100070471FB509F0A3FC00F096FB0400002016
:10022000002108F0E3FFE0601FBD10B510BD00F035
:100230008BFC1146FFF7EDFF07F016F900F0A9FC63
:1002400003B4FFF7F2FF03BC00F0ECFC0948804761
:1002500009480047FEE7FEE7FEE7FEE7FEE7FEE7A8
:10026000FEE7FEE7FEE7FEE704480549054A064BC0
:10027000704700008966000889010008480C0020CA
:1002800048120020480E0020480E002053EA020CBD
:1002900000F069802DE9F04B4FF00006002B1FBFE6
:1002A000B3FA83F503FA05F424FA05F65E4012BFAB
:1002B0001643B2FA82F502FA05F4C5F120051EBF15
:1002C00022FA05FC44EA0C04203556EA044C4FEAB5
:1002D000144418BF641C4FF000084FF0000990420E
:1002E00071EB030C39D3002919BFB1FA81F701FA78
:1002F00007F6B0FA80F700FA07F6C7F120071EBF2D
:1003000020FA07FC46EA0C062037B6FBF4FCA7EB04
:100310000507103F07F01F0BCBF120062CFA06F65D
:100320000CFA0BFB44BFB3460026202FA4BF5E4649
:100330004FF0000B5BEA060C08BF4FF0010B19EB06
:100340000B0948EB0608ABFB027C06FB02CC0BFB5F
:1003500003CCC01B71EB0C01C1E70B4602464146C2
:100360004846BDE8F08B13B5084318BF4FF0FF3087
:100370000146AFF30080BDE81C40704770B50C46E5
:100380000546012A05D02878800600D5EA690023B1
:1003900002E0012305E05B1C934202D2E05C0028EE
:1003A000F9D1A869E618C01AA861286A1844286219
:1003B0002846AFF3008004E0D5E9012114F8010BD1
:1003C0009047B442F8D32846AFF3008070BD0000D8
:1003D0002DE9F0410646002410687529314616A51E
:1003E00010D0AFF30080002802DA404213A507E0E6
:1003F00031688A0701D512A502E0490704D511A585
:10040000012401E0AFF3008000210A2206F1240755
:1004100009E0B0FBF2FCB0FBF2F302FB1C00303051
:1004200078541846491C0028F3D123462A46304602
:10043000BDE8F04100F00BB8000000002D00000006
:100440002B000000200000007047704770472DE926
:10045000F0470D4699469246044600F1240801688B
:10046000880604D5E06921F01001216000E0012038
:10047000A84201DD471B00E00027A1697A1902EBC1
:100480000900081AA0612078C00602D42046AFF304
:100490000080002608E0D4E901211AF80600904700
:1004A000206A401C761C20624E45F4DB2078C00692
:1004B0000AD52046AFF3008006E0D4E901213020C0
:1004C0009047206A401C2062381EA7F10107F4DC27
:1004D00007E0D4E9012118F805009047206A401C84
:1004E0002062281EA5F10105F3DC2046AFF3008051
:1004F0002078000602D50220BDE8F0870120FBE746
:100500002DE9FF4F0C461E464FF0FF378BB0D2E966
:100510000001DDF860800A908A46C1F30A5505B9EA
:100520003D46002108464FF00000BAF1000F00F4EC
:10053000400005DA00EB80004FF4400101EA500072
:100540004FEA9059B9F1010F00DDB9460A9850EA17
:100550004A000ED044F61050A5F2FF3545432F1443
:10056000B8F1000F1ED07542291E1EDDC9F1000230
:100570001CE0B8F1010F4FF0000001D0302103E082
:10058000F24305E02154401CB042FBDB3046002220
:10059000002121540B99C1F80880C1E900200FB057
:1005A000BDE8F08FBD1B6D1CDEE74A4600DA6942EC
:1005B00006A800F053FA06AB93E8070003AB83E804
:1005C000070050460A9908F030FA8DE80700A0F5B8
:1005D00000501F3800900398002D0ADD42F21F01E1
:1005E0004A460844002303A90390684608F099FC92
:1005F00009E0A0F500504A461F38002303A90390E4
:10060000684608F0A3FC8DE807000004000C03D046
:100610004FF0FF30410800E01046B8F1000F03D062
:100620000022009215461EE0751E05D400F090F9D8
:10063000303262556D1EF9D5B3460122084302D00F
:1006400000227F1C04E02078302801D100227F1E88
:10065000002A099784D01DE0112D07DA00F078F9FF
:10066000303262556D1C50EA0102F5D1084302D0C8
:100670000098C8B10EE00021681E05E0235C625CB2
:1006800063542254401E491C8142F7DBAB46A81B31
:10069000401E0990002004F80B000B98099AC0F83E
:1006A0000880C0E9002B7AE711264FF0000857E7D1
:1006B0002DE9F04F88460446D21D22F0070191B083
:1006C000D1E90001CDE90A0108F077FD02460B9857
:1006D000C00F01D02D2007E02068810701D52B2015
:1006E00002E0202101EAC000032A099001D0072A74
:1006F00005DB03464146204600F070F90BE1207807
:10070000800601D5E06900E00620B8F1650F81465A
:1007100006D0B8F1660F18D0B8F1670F70D131E08C
:100720000020B9F1110F009001DB112301E009F164
:1007300001030AAA01A90CA8FFF7E2FEDDE90C708B
:10074000002609F10105834647E001204B46009051
:100750004FF000470AAA01A90CA8FFF7D1FEDDE976
:100760000DB00C995D46002610B909F101000D1875
:10077000B9EB050003D4C0F1FF3609F10105A5EB83
:1007800009002BE0B9F1010F01DA4FF00109002057
:10079000B9F1110F0090484601DD112300E0034636
:1007A0000AAA01A90CA8FFF7ABFEDDE90C704D46C3
:1007B00000268346207800070AD4AB4500DA5D4660
:1007C00001A8012D04DD411911F8011C302907D0C1
:1007D0004F4502DA17F1040F04DA012082460FE0D8
:1007E0006D1EEEE7002F02DCED1B3E4403E0781C9B
:1007F000A84200DD7D1CB81B00F1010A4FF0004744
:100800002078000703D4AA4501DB4FF0FF3A00210E
:10081000B7F1004F0DF143088DF8431024D00220AA
:100820002B23002F01DA7F422D230A21021EA0F183
:10083000010000DC5FB197FBF1FC97FBF1F201FBDB
:100840001C7C17460CF1300C08F801CDEEE7A8F13E
:10085000010003702188090501D5452100E06521CB
:10086000A0F1010800F8011C09980FA9A1EB0807E5
:10087000FF1D00B10120411901EBEA70A169384464
:10088000081A401EA0612078C00602D42046AFF3AB
:100890000080099828B1D4E901219047206A401CC2
:1008A00020622078C00622D52046AFF300801EE0EB
:1008B000002E04DBB34502DD01A8805D00E030209E
:1008C000D4E901219047206A401C2062761CAAF1DD
:1008D00001005FEA000A0AD100F036F8C06801683A
:1008E000405CD4E901219047206A401C2062281E08
:1008F000A5F10105DCDC07E0D4E9012118F8010BC2
:100900009047206A401C2062381EA7F10107F3DCE3
:100910002046AFF30080032011B041E610B54369D3
:1009200013B1AFF3008001E0FFF728FD012010BDF7
:10093000127800F124010A7000224A700122EDE7CA
:1009400011684FF0FF32E9E7004870473800002097
:1009500030B5B0F10A0271F100034FEA900E4EEA91
:10096000817EB0EB0E0061EB91014FEA101E4EEA62
:10097000017E10EB0E0041EB11114FEA102E4EEAF2
:10098000016E10EB0E0041EB11214FEA104E4EEAC2
:10099000014E10EB0E0041EB1141401841F10001F6
:1009A0004FEAD00040EA41704FEAD1014FEA81049A
:1009B00044EA907410EB800544EB01046D1944EB9C
:1009C0000404521BA3414FF0000348BF0A3200D574
:1009D00030BD401C41F1000130BD00002DE9F04167
:1009E0001F46044603260168072A01F4006004DB61
:1009F00008B116A505E016A503E008B115A500E0AD
:100A000015A521F010002060A069C01EA0610FB1E3
:100A1000401EA0612046AFF300804FB1D4E9012110
:100A200038469047206A401C2062C01C206206E0C5
:100A3000206AFAE7D4E9012115F8010B9047761EE8
:100A4000F8D22046AFF30080BDE8F0814E414E0061
:100A50006E616E00494E4600696E66002DE9F047F2
:100A6000814616468AB0354878440DC88DE80D0099
:100A700032487844801C03AC0DC884E80D0041F670
:100A80009B300844372190FBF1F290FBF1F5A5F182
:100A9000800501FB12041B3C02D56442012000E0EA
:100AA0000020DFF898A080460027FA44AAF1BE0A89
:100AB0000EE0E0070AD03246684607EB4701012303
:100AC0000AEB810108F042FA8DE8070064107F1CF0
:100AD000002CEED1194F7F44AE3F19E0E80715D046
:100AE00007EB04100DF1180A90E80E008AE80E00DA
:100AF000C068F04201D1981908903246012306A936
:100B000003A808F023FA03AB83E807006D10641C08
:100B1000002DE3D14FF0010332466946B8F1000FD2
:100B200003A802D008F0FDF901E008F00FFAC9E9C6
:100B30000001C9F808200AB0BDE8F08798910000CC
:100B400000487047180000207546FFF7F9FFAE46D1
:100B500005006946534620F00700854618B020B5C9
:100B6000FFF782FBBDE820404FF000064FF0000782
:100B70004FF000084FF0000BAC46ACE8C009ACE801
:100B8000C009ACE8C009ACE8C00921F007018D46F6
:100B9000704710B50446AFF300802046BDE8104012
:100BA000FFF74EBB0000000030B44FF0013C50F89E
:100BB000042B51F8043BCCFA52F4D51A20D1FCB9DD
:100BC00050F8042B51F8043BCCFA52F4D51A17D143
:100BD000B4B950F8042B51F8043BCCFA52F4D51AAE
:100BE0000ED16CB950F8042B51F8043BCCFA52F4F6
:100BF000D51A05D1002CDAD030BC4FF00000704778
:100C000029BAB1FA81F111F01801D1F12000844024
:100C1000F2D1CA40CB4012F0FF0213F0FF0330BC08
:100C2000D01A704701491820ABBEFEE7260002002B
:100C3000704700000146806B036C026C13F0500F8C
:100C400007D0D20648BF00F043B9806BC26C08469B
:100C5000104742F40071016401688A6812F0405F35
:100C600001D000F031B9027E002AFAD1CA6A12F42A
:100C7000700F02D08A685205F3D44A6822F020022D
:100C80004A60016C21F480710164016CC90448BFA1
:100C900000F01AB9016C41F00101016400F014B9CF
:100CA000806B40210164416C41F00401416400F01B
:100CB0000FB90000806B00F009B9000040F2B46089
:100CC000C2F2000000F006B9FEE7000040F28C100E
:100CD000C2F2000000F08ABF40F28C10C2F20000A5
:100CE00000F084BF40F28C10C2F2000000F07EBF22
:100CF00040F25C70C2F2000001F01CBC40F2FC60EB
:100D0000C2F2000001F016BC704700004FF4004032
:100D100001F05EBF042001F05BBF0000082001F07D
:100D200057BF000072B600BFFEE70000704700002A
:100D300070470000F0B581B00D4600210091296890
:100D4000074613290DD268680138102815D2A86803
:100D500008281DD297F83C00012825D1022001B0B7
:100D6000F0BD49F64840C0F6000040F28B6106F045
:100D7000E1FA686801381028E9D349F64840C0F61E
:100D8000000040F28C6106F0D5FAA8680828E1D38B
:100D900049F64840C0F6000040F28D6106F0CAFAFC
:100DA00097F83C000128D9D0286801211FFA80FE5D
:100DB00087F83C104FEA4E0111FA80F30A283A688E
:100DC00032BF02F110011E3B02F10C0107240E6834
:100DD0009C40A6430E60AE680C6806FA03F32343FA
:100DE0000B606968062905D801EB81014D1F02F1EE
:100DF00034030BE00C2901EB810187BFA1F1410510
:100E000002F12C03A1F1230502F130031F211C681C
:100E1000A94024EA0101196042F2043C1968C4F2B5
:100E2000010C0EFA05F63143ACF54176B242196079
:100E300004D0002087F83C0001B0F0BD12280AD190
:100E4000DCF8000040F48000CCF80000002087F8B7
:100E50003C0001B0F0BD20F001011029E9D1DCF81F
:100E60000010102841F40001CCF80010E1D140F24C
:100E70001400C2F2000000684DF68361C4F21B3119
:100E8000A0FB0101880C00EB80004000009000985E
:100E90000028CED000980138009000980028C8D0D3
:100EA00000980138009000980028C2D000980138BE
:100EB000009000980028BCD000980138009000985D
:100EC0000028E7D1B5E70000704700007047000038
:100ED0007047000070B50446006806684568207ECB
:100EE000022809D2E0690138102811D2606903286C
:100EF00019D2B00721D439E049F64840C0F60000C5
:100F000040F2B74106F016FAE06901381028EDD337
:100F100049F64840C0F600004FF4976106F00AFA1F
:100F200060690328E5D349F64840C0F6000040F266
:100F3000B94106F0FFF9B00718D515F0200015D01B
:100F4000206CC00603D4206C40F40070206420683C
:100F5000816811F0405F02D1217E002968D02046CF
:100F6000FFF7B2FF20686FF012010160700715D51E
:100F700015F0800012D0206CC00603D4206C40F421
:100F8000005020642068816811F4401F2FD0204653
:100F9000FFF7CEFE20686FF00C010160F00718BF6C
:100FA00015F0400013D1B00610D515F0806008BFD1
:100FB00070BD2068616C6FF0200541F00201616432
:100FC00005602046FFF784FF2068056070BD20683B
:100FD0000068C007E7D0206C40F4803020642046D1
:100FE00000F00CFA20686FF001010160DBE7816B13
:100FF00011F4401F02D081684905C8D441684905F1
:10100000C5D4816811F0405FC1D1217E0029BED1D5
:10101000416821F080014160206C20F48050206400
:10102000206CC005B3D4206C40F001002064AEE712
:10103000C16A11F4700F03D0816849053FF58FAF85
:10104000416821F020014160206C20F48070206410
:10105000206CC0043FF583AF206C40F00100206499
:101060007DE70000002804BF01207047F0B581B083
:101070000446006842F20001C4F20101884213D024
:1010800042F20011C4F2010188420DD042F2002167
:10109000C4F20101884207D049F64840C0F600007A
:1010A0004FF4A17106F046F960684FEA3040042819
:1010B0001CD2A0684FEA3060042824D2206902289C
:1010C0002CD2207E022834D2A06AB0F1106F3CDA14
:1010D000B0F1806F46DBB0F1C06F56DB66D0B0F187
:1010E000E06F63D0B0F1006F60D043E149F6484053
:1010F000C0F6000040F2431106F01CF9A0684FEA68
:1011000030600428DAD349F64840C0F600004FF4B6
:10111000A27106F00FF920690228D2D349F648409F
:10112000C0F6000040F2451106F004F9207E0228C6
:10113000CAD349F64840C0F600004FF4A37106F048
:10114000F9F8A06AB0F1106FC2DBB0F1506F11DA9C
:10115000B0F1306F20DAB0F1106F27D0B0F1206F0E
:1011600024D007E1B0F1007F1BDAF8B1B0F1807F45
:101170001CD0FFE000F17141022917D3B0F1506F8C
:1011800014D0B0F1606F11D0F4E0B0F1806F0DD0E9
:10119000B0F1A06F0AD0EDE008D0B0F1406F05D0FB
:1011A000E8E003D0B0F1407F40F0E480E06840F434
:1011B0000060B0F5006F40F0EC80E0690138102865
:1011C00080F0F48094F83000022880F0FC806069A0
:1011D000032880F0048194F82000022807D349F600
:1011E0004840C0F600004FF4A67106F0A3F8A06ACC
:1011F0000127C0F60077B8420CD0E06A4FEA3070A1
:10120000042807D349F64840C0F600004FF4A871FF
:1012100006F090F8206CC0B3206CC0063FD4206C60
:1012200041F202118843023042F204312064C4F2D8
:101230000101086820F4403008600A6894E8290039
:101240001A4326690A60416821F48071416041684F
:1012500041EA06214160416821F0407141604168E6
:1012600029434160816821F400618160E1688268FE
:1012700011438160A16A8268B94222F07062826083
:10128000826812D122F0405118E0204600F0B8F8F0
:101290000020606484F83C00206CC006BFD50120AB
:1012A000002184F83C1001B0F0BD114381608168D9
:1012B00021F040518160E16A826811438160816858
:1012C00021F0020181608168227E94F8203041EA99
:1012D00042018160F3B1616A4A1E082A09D349F6C6
:1012E0004840C0F600004FF4F56106F023F820688E
:1012F000616A426842F400624260426822F46042DD
:1013000042604EF20002CFF6FF72436802EB4131B9
:10131000194302E0416821F400614160C16A002381
:1013200021F47001C162E2696169CFF6F073C76AA6
:1013300003EB02523A43C262826822F40072826076
:1013400094F83020836843EA42228260826822F463
:1013500080628260826842EA81218160002060644C
:10136000216C012262F301012164002184F83C1008
:1013700001B0F0BD49F64840C0F6000040F2471108
:1013800005F0D8FFE06840F40060B0F5006F3FF46E
:1013900014AF49F64840C0F600004FF4A47105F0C0
:1013A000C9FFE06901381028FFF40CAF49F6484046
:1013B000C0F6000040F2491105F0BCFF94F830007F
:1013C0000228FFF404AF49F64840C0F600004FF48D
:1013D000A57105F0AFFF60690328FFF4FCAE49F684
:1013E0004840C0F6000040F24B1105F0A3FF94F80E
:1013F00020000228BFF4F3AEF9E6000070470000B9
:101400002DE9F04186B000260596CDE90366044635
:1014100042F200070068C4F20107B8420296019642
:1014200002D006B0BDE8F08143F630000096C4F269
:10143000020041690DF1040841F480714161416984
:10144000032501F48071009100990096016841F034
:1014500001010160016801F001010091009900960D
:10146000016841F004010160016801F0040100918C
:1014700000990096016841F0020101600068414650
:1014800000F0020000900098C020019007F5604035
:10149000CDE9025601F0A8FB302001A961C107F592
:1014A0006840414601F0A0FB07F564404146CDE9A4
:1014B0000155039601F098FB40F2FC6546F210409E
:1014C000C2F20005C4F202004FF48061C5E90006D3
:1014D00005F110004FF400624FF40053C5E90266B5
:1014E0004EC04FF44030C5E90806284601F002F925
:1014F000002818BFFFF716FC122000210022A56368
:10150000AC6302F045F8122002F028F806B0BDE8FE
:10151000F0810000F0B581B0044600200090207EEC
:10152000154602280E460BD2E06A4FEA30700428B6
:1015300013D294F83C0001281BD1022001B0F0BD69
:1015400049F64840C0F6000040F25A5105F0F2FE5C
:10155000E06A4FEA30700428EBD349F64840C0F601
:10156000000040F25B5105F0E5FE94F83C000128D4
:10157000E3D00120216884F83C008868C0072AD1A4
:1015800088684DF6836240F00100886040F21400E4
:10159000C2F200000068C4F21B32A0FB0202900CF1
:1015A00000EB400000900098A8B100BF00980138FF
:1015B0000090009878B1009801380090009850B1E0
:1015C000009801380090009828B1009801380090E8
:1015D00000980028EAD18868C00503D5886820F4FF
:1015E000807088608A68206CD20709D140F01000B2
:1015F0002064606C40F001006064002001B0F0BD28
:1016000040F20172904300F5807020644868400504
:1016100004D5206C012262F30D302064226C00207E
:10162000D2044FF0000244BF626C22F006026264F2
:1016300084F83C00A06B40F6354240F6B543C0F656
:101640000002C0F60003C0E90F2340F6A142C0F635
:101650000002C2646FF022020A604A6842F2080780
:1016600042F080624A608A682B4642F480728A6047
:101670004C313246C4F2010701F044FAD7F8FC12AB
:101680002068C906A7F108010CD08842B5D1386896
:1016900010F0405FB1D1386840F0804038600020E1
:1016A00001B0F0BD884214D042F20021C4F2010121
:1016B00088420AD042F20011C4F2010188429CD152
:1016C000D7F8FC12C90698D103E0D7F8FC12C90676
:1016D00093D4816811F0405F8FD1816841F08041DF
:1016E0008160002001B0F0BD70B5054690F8206023
:1016F00048F68070C0F203000C46814207D349F6D9
:101700006450C0F6000040F2826105F013FE701EC6
:10171000012807D8286800F1140100200A68224334
:101720000A6070BD05F1240101204FF480240A688D
:1017300022430A6070BD00002DE9F04381B00546E8
:1017400090F8207000680E4684688868994640F0DA
:1017500004000428904614D1F06840F002000228EA
:101760001CD13069092824D2B06868B37068B0F120
:10177000005F35D349F66450C0F6000040F2F341F3
:101780002CE049F66450C0F6000040F2EA4105F052
:10179000D1FDF06840F002000228E2D049F6645022
:1017A000C0F6000040F2EB4105F0C4FD30690928A5
:1017B000DAD349F66450C0F6000040F2EC4105F07F
:1017C000B9FDB0680028D1D13068B0F5006F07D3FB
:1017D00049F66450C0F6000040F2EF4105F0AAFD62
:1017E000307D022807D349F66450C0F6000040F26D
:1017F000F54105F09FFD781E01280ED814F0E05F3A
:1018000011D0C4F3016001218140C9F80010B16812
:1018100079B1726841EAC2010DE005F124010120AD
:101820004FF4802226E005F1240101204FF400123C
:1018300020E031684905D6E903232F68114307EBFF
:101840000010C0F88011C0F88431317D012905D124
:1018500000F5C2710A6842F480720A60D8F8041078
:10186000C0F88C11D8F8002000F5C071C0F88821AC
:10187000002001220B681A430A6001B0BDE8F08322
:10188000F0B581B090F82020013A012A57D80868B5
:101890000C46B0F5803F59D26068B0F5803F61D208
:1018A000A068B0F5803F69D2274657F80C0FB0F515
:1018B000803F71D2A06902287AD2E069022880F0C4
:1018C00083802069022880F08B80206A022880F0C3
:1018D000938060691C2880F09B80616A1C2908D372
:1018E00049F66450C0F6000040F2753105F022FD63
:1018F000616A46F20060C4F20000026842F0010230
:101900000260026822F47C520260026842EA01210D
:1019100001606369E56903F01F010122C66902FAEB
:1019200001F1CA438E43012DC6617ED0002D40F0E7
:101930008D80C66806EA02053E46274679E0416A80
:1019400041F480214162012001B0F0BD49F66450AC
:10195000C0F6000040F2523105F0ECFC6068B0F5D2
:10196000803F9DD349F66450C0F6000040F25331E9
:1019700005F0E0FCA068B0F5803F95D349F66450CF
:10198000C0F600004FF4557105F0D4FC274657F817
:101990000C0FB0F5803F8DD349F66450C0F60000BF
:1019A00040F2553105F0C6FCA0690228FFF485AF6E
:1019B00049F66450C0F6000040F2563105F0BAFC1A
:1019C000E0690228FFF47DAF49F66450C0F60000DC
:1019D00040F2573105F0AEFC20690228FFF475AFE4
:1019E00049F66450C0F600004FF4567105F0A2FCB1
:1019F000206A0228FFF46DAF49F66450C0F600007B
:101A000040F2593105F096FC60691C28FFF465AF7F
:101A100049F66450C0F600004FF45D7105F08AFC91
:101A2000616A1C29BFF45CAF63E7C66846EA01053A
:101A30002646C5603668A58800EBC30345EA06461E
:101A40001E64A6683F8847EA06475F644368A56945
:101A500043EA01072669246A002D08BF03EA02074A
:101A600047604369002E43EA010708BF03EA020703
:101A7000012C476102D1C2691143C161016821F0A3
:101A800001010160002001B0F0BD000070470000BE
:101A9000406A70472DE9F04190F8206098460D4665
:101AA00004460229174607D349F66450C0F60000E1
:101AB00040F2E95105F03EFC701E01287ED82068F6
:101AC000002D00F085800169890700F0858000EB1A
:101AD0000510D0F8B01111F00401B960D0F8B021B0
:101AE00000F5D87119BFD2087A60520D3A600968C2
:101AF00001F00201F960D0F8B411090700F5DA71BC
:101B00005ABF0A6802F00F0208223A610A68002DE3
:101B1000C2F30722BA6109684FF020024FEA11416F
:101B20007961D0F8B80188F80000206800EB051052
:101B3000D0F8B8014FEA102088F80100206800EBC7
:101B40000510D0F8B8014FEA104088F8020020686C
:101B500000EB0510D0F8B8014FEA106088F80300D8
:101B6000206800EB0510D0F8BC0188F8040020685C
:101B700000EB0510D0F8BC014FEA102088F80500F2
:101B8000206800EB0510D0F8BC014FEA104088F83F
:101B90000600206800EB0510D0F8BC014FEA106089
:101BA00088F80700206814BF00F1100100F10C0153
:101BB00000200B681A430A60BDE8F08104F124019B
:101BC00001204FF480220B681A430A60BDE8F081BF
:101BD000C16889077FF47BAF04F1240101204FF431
:101BE00000120B681A430A60BDE8F0812DE9F04F3E
:101BF00081B0044600684669D0F804908768D0F840
:101C00000CB0D0F810A0D0F81880F10703D100254F
:101C100030071CD423E0F90710D00121BA078160F6
:101C200009D4780700F1AA80380700F1B080204677
:101C300000F0D8FA02E0204600F0D6FA0025F805B8
:101C400000F18480F80300F1AA80300707D51BF06B
:101C5000100004D0206845F400751021C1607007A1
:101C600008D51BF0080005D020680821C160204677
:101C700000F066FAB00706D52068C068800702D079
:101C8000204600F05FFA700607D51AF0100004D065
:101C9000206845F4806510210161B00608D51AF06E
:101CA000080005D0206808210161204600F066FA8E
:101CB000F00606D520680069800702D0204600F0B3
:101CC0005FFAB00308D519F0100005D02068102184
:101CD0004160204600F056FAF00308D519F00800DC
:101CE00005D0206808214160204600F087FA3004C2
:101CF00040F18F805FEA497040F1888006F480707F
:101D000008EA102028435FEA8871014648BF41F085
:101D10000201B20558BF01465FEA48700D4648BF50
:101D200045F00405700558BF0D4630056ED518F016
:101D300070006BD010380009052862D8DFE800F089
:101D4000035356595C5F45F008055AE020684FF48C
:101D50008071BA0581600AD4780512D4380519D487
:101D6000204600F043FAF8037FF56FAF17E02046F6
:101D700000F03EFAF8037FF568AF10E04FF400651D
:101D80005DE705F50055F8037FF55FAF07E04FF419
:101D9000805554E705F58045F8037FF556AF206878
:101DA0004FF48031BA0381600AD478030FD438032A
:101DB00013D4204600F01EFA30073FF548AF4EE737
:101DC000204600F019FA30073FF541AF47E705F527
:101DD000004530073FF53BAF41E705F5803530075B
:101DE0003FF535AF3BE745F010050AE045F020052B
:101DF00007E045F0400504E045F0800501E045F4CA
:101E000080752068816921F070018161206804215A
:101E100041604DB1606A40EA05012046616201B04F
:101E2000BDE8F04FFFF732BE01B0BDE8F08F000013
:101E3000B0B5002841D00446006846F20041C4F223
:101E4000000188420DD046F60001C4F2000188422C
:101E500007D049F66450C0F600004FF48F7105F0CA
:101E600069FA207E02282AD2607E022832D2A07E21
:101E700002283AD2E07E022842D2207F02284AD2AB
:101E8000607F022852D2A068800007D049F66450D3
:101E9000C0F6000040F2251105F04CFAE0684FEA68
:101EA000306004284ED220694FEA3040102856D2C4
:101EB0006069B0F5E00F5ED169E00120B0BD49F680
:101EC0006450C0F6000040F21F1105F033FA607E46
:101ED0000228CCD349F66450C0F600004FF490714C
:101EE00005F028FAA07E0228C4D349F66450C0F653
:101EF000000040F2211105F01DFAE07E0228BCD35B
:101F000049F66450C0F600004FF4917105F012FAE2
:101F1000207F0228B4D349F66450C0F6000040F296
:101F2000231105F007FA607F0228ACD349F664500C
:101F3000C0F600004FF4927105F0FCF9A068800033
:101F4000A4D1ABE749F66450C0F600004FF493719A
:101F500005F0F0F920694FEA30401028A8D349F67F
:101F60006450C0F6000040F2271105F0E3F9606903
:101F7000B0F5E00F0BD04FEA3050072807D349F6F1
:101F80006450C0F600004FF4947105F0D3F9606816
:101F90000138B0F5806F07D349F66450C0F60000F1
:101FA00040F2291105F0C6F994F8200010B9204636
:101FB00000F074F82068016841F00101016000F050
:101FC000DDFF054620684168C90705D100F0D6FF4E
:101FD000401B0B28F6D310E0016821F002010160DC
:101FE00000F0CCFF054600BF2068416889070DD589
:101FF00000F0C4FF401B0B28F6D3606A052140F4B3
:1020000000306062012084F82010B0BD217E02689B
:10201000012922F0800308BF42F080030360617E43
:102020000268012922F0400308BF42F04003036028
:10203000A17E0268012922F0200308BF42F020039C
:102040000360E17E0268012942F0100308BF22F01C
:1020500010030360217F0268012922F0080308BFF2
:1020600042F008030360617F0268012922F0040343
:1020700008BF42F004030360D4E901C2D4E9033588
:1020800061691A432A431143ACF101021143C16152
:1020900000200121606284F82010B0BD80B586B0B8
:1020A00000220592CDE9032246F200410068C4F205
:1020B000000188420292019201D006B080BD43F631
:1020C00030000092C4F20200036943F00073036120
:1020D000036903F000730093009B0092036843F0D0
:1020E00001030360006800F00100009000984FF4C5
:1020F000C05001900220CDE9020203200490092083
:10210000059001F5CE3001A900F06EFD13200021ED
:10211000002201F03DFA132001F020FA14200021E2
:10212000002201F035FA142001F018FA16200021DF
:10213000002201F02DFA162001F010FA06B080BD41
:102140007047000010B540F2780440F2E042C2F25D
:102150000004C2F2000200212346FFF79BFC002886
:1021600018BF10BDD4E90001C4E90201E0790028DC
:102170001CBF94ED020B84ED040B10BD70470000F2
:102180007047000070470000B0B5044690F820008A
:1021900001281DD1022084F820002068016821F068
:1021A0000101016000F0EAFE054600BF20684068BA
:1021B000C00713D000F0E2FE401B0B28F6D3606A84
:1021C00040F400306062052084F820000120B0BD9A
:1021D000606A40F4002060620120B0BD00206062AF
:1021E000B0BD00007047000070470000704700005D
:1021F0007047000070470000704700007047000003
:1022000070B5044600284FF001003FD00D46E9B3F9
:10221000286816464FEAB0000F2838D8012101FA85
:1022200000F04AF6AB21084231D0686840F0020065
:10223000022839D16FF01000064207D049F69C50B1
:10224000C0F6000040F2CE3105F074F86079012844
:102250004FF0020008BF70BD2071206806F0100228
:10226000016840F6FE73D5E900659340994345EA5D
:102270000603934019430160C0210368914023EA9B
:1022800001010160012020710020607170BD49F6DC
:102290009C50C0F600004FF4737105F04BF868686D
:1022A00040F002000228C5D049F69C50C0F600005C
:1022B00040F2CD3105F03EF86FF010000642BDD17E
:1022C000C4E70000002804BF0120704710B5044691
:1022D000006847F20041C4F20001884207D049F685
:1022E0009C50C0F6000040F2171105F023F8207949
:1022F00020B900206071204600F008F8022020710B
:10230000002001212061217110BD000080B586B040
:1023100000220592CDE9032247F200410068C4F291
:10232000000188420292019201D006B080BD43F6BE
:1023300030000092C4F20200036943F000530361CD
:10234000036903F000530093009B0092036843F07D
:1023500001030360006800F0010000900098302045
:1023600001900320CDE9020201F5C63001A900F079
:102370003BFC06B080BD0000F0B581B007460020F0
:10238000009087B36FF010001C4615460E460142C0
:1023900007D049F69C50C0F6000040F2273104F007
:1023A000C9FF082D22D80120A84040F2111108428F
:1023B0001CD04FF6F170844207D349F69C50C0F60A
:1023C000000040F2293104F0B5FF3868002E00907B
:1023D0000098284414BF143008300090009804601E
:1023E000002001B0F0BD012001B0F0BD49F69C50C5
:1023F000C0F600004FF44A7104F09CFF4FF6F170F4
:102400008442E2D3D9E70000B0B550B304466FF080
:1024100010000D46014207D049F69C50C0F600005E
:102420004FF4DE7104F086FF607901284FF002005E
:1024300008BFB0BD012262712071206805F0100153
:1024400003688A401A430260026865B13C2302F4C3
:10245000701203FA01F18A420DD1416841F0020184
:1024600008E00120B0BD02F03C013C2903D14168E5
:1024700041F0010141600120207100206071B0BD78
:1024800070B5866D044600F079FD94F83510022988
:102490002ED105462068216C026822F016020260E7
:1024A000426922F08002426109B9A16C19B1016848
:1024B00021F008010160016821F00101016000685C
:1024C000C00708D000F05AFD401B052817D8206827
:1024D0000068C007F6D1E06D3F2101FA00F0B0605E
:1024E000012084F835000020002184F8341070BDEC
:1024F000802060650120002184F8341070BD202008
:102500006065032084F83500002184F8341070BD24
:1025100090F83510022909D1052180F8351000689E
:10252000016821F0010101600020704780214165B0
:1025300001207047F0B581B004460020009040F2C1
:102540001400C2F200000268D4E9166048F2B51324
:1025500037680821C1F64E3381403942A2FB03257A
:102560000CD0226813685B0708D5136823F00403B6
:102570001360B160616D41F001016165012181402D
:10258000394208D022685269120604D5B160616DE3
:1025900041F00201616504218140394208D022687E
:1025A0001268920704D5B160616D41F00401616564
:1025B00010218140394217D020680268120713D5D4
:1025C000B16002680168520308D4C90508D40168E3
:1025D00021F008010160216C21B905E0080342D413
:1025E000216C09B120468847E16D202000FA01F2F4
:1025F0003A4244D020680368DB0640D5B26094F8C4
:1026000035300268052B1ED122F0160202604269A5
:1026100022F080024261226C0AB9A26C1AB10268EF
:1026200022F0080202603F208840B060012084F858
:102630003500216D0020002984F8340057D0204651
:10264000884701B0F0BD0168520310D4C90512D407
:10265000016821F010010160012084F8350000209C
:1026600084F8340007E0A16C0029BBD1BCE7080363
:1026700001D4616C00E0E16B09B120468847606DD0
:10268000A8B3606DC0072ED0052084F835002068FF
:10269000A90A026822F001020260009A01328A420D
:1026A00000921AD80268D20717D0009A01328A42E3
:1026B000009212D80268D2070FD0009A01328A42E3
:1026C00000920AD80268D20707D0009A01328A42E3
:1026D000009202D80268D207DFD1012084F83500C9
:1026E000002084F83400E16C09B12046884701B02D
:1026F000F0BD00002DE9F041044600F03FFCE4B1DC
:102700000546206846F20F41C4F20201884217DCF8
:1027100046F26F01C4F20201884226DC46F23F0114
:10272000C4F2020188423EDC46F21001C4F202010A
:10273000884260D046F2280158E00120BDE8F081CF
:1027400046F26F41C4F2020188421DDC46F23F416D
:10275000C4F2020188422FDC46F21041C4F20201A9
:10276000884248D046F2284140E046F29F01C4F238
:102770000201884229DC46F27001C4F2020188425B
:1027800039D046F2880131E046F29F41C4F202019D
:10279000884223DC46F27041C4F2020188422AD00A
:1027A00046F2884122E046F24001C4F2020188422A
:1027B00021D046F2580119E046F24041C4F202012C
:1027C000884218D046F2584110E046F2A001C4F207
:1027D000020188420FD046F2B80107E046F2A0415C
:1027E000C4F20201884206D046F2B841C4F20201A6
:1027F000884240F07A816068B0F1606F0AD04FEA99
:102800007060072806D349F6F140C0F60000B821F1
:1028100004F090FDA068002818BF402840F0DB803D
:10282000E06840F40070B0F5007F40F0DF80206980
:1028300040F48060B0F5806F40F0E6806069002869
:1028400018BFB0F5006F40F0E780A069002818BFFE
:10285000B0F5005F40F0EC80E069002818BF202848
:1028600040F0F280206A4FEA3040042806D2606AC5
:1028700040F0040104290DD1A8B92AE049F6F1403D
:10288000C0F60000BF2104F055FD606A40F004016D
:102890000429F1D049F6F140C0F60000C02104F04F
:1028A00049FD606AA8B1A06A042880F0D980E06A76
:1028B0004FEAF050042880F0E080206B4FEA70501F
:1028C000042806D349F6F140C0F60000C72104F001
:1028D00031FD022084F835000020216884F834009E
:1028E000086820F0010008600868C0070AD000BF2F
:1028F00000F044FB401B052800F2CD8021680868E9
:10290000C007F5D1086848F23F02CFF21002D4E9BF
:102910000135024004F10C0E9EE8C1511A432A43CE
:1029200010433043384340EA0800626A40EA0C0032
:10293000042A40EA0E0320D1D4E90A5E206B4EEA55
:102940000302104308604869BEF1000F20F0030045
:1029500040EA050040F0040C15D0B8F5005F00F027
:10296000A280B8F1000F40F0AF80022D00F0B080DF
:10297000012D00F0A38035B9AAE00B60486920F072
:10298000070040EA020C6FF00F004AF6AB2250FA43
:1029900081F0CAF6AA22A0FB02231A0949F63443A1
:1029A000C0F600039A5C40F2FF335F284FF03F000F
:1029B000C1F814C021EA030100FA02F088BF043113
:1029C000C4E916128860002301220020636584F8A0
:1029D0003520BDE8F08180283FF422AF49F6F14070
:1029E000C0F60000B92104F0A5FC19E749F6F14052
:1029F000C0F60000BA2104F09DFC206940F480601C
:102A0000B0F5806F3FF41AAF49F6F140C0F6000010
:102A1000BB2104F08FFC11E7B0F5805F3FF415AFE8
:102A200049F6F140C0F60000BC2104F083FC0CE73D
:102A3000B0F5804F3FF410AF49F6F140C0F600000A
:102A4000BD2104F077FC07E7B0F5807F3FF40AAFC3
:102A500049F6F140C0F60000BE2104F06BFC01E72E
:102A600049F6F140C0F60000C52104F063FCE06ABD
:102A70004FEAF0500428FFF420AF49F6F140C0F6C9
:102A80000000C62104F056FC206B4FEA7050042869
:102A9000BFF418AF1DE7032220230320636584F8E9
:102AA0003520BDE8F081032D3FF66DAF01224023B4
:102AB0000120DFE805F0020D020387E7AEF1C070E8
:102AC000B0FA80F0400905E0032D06D37FF45BAF38
:102AD000CEF3006000283FF456AF012240230120CE
:102AE000636584F83520BDE8F08149F6F140C0F611
:102AF0000000B72104F01EFC6068B0F1606F7FF445
:102B00007EAE87E62DE9F04114460746D0F858809E
:102B1000581E4FF6FF721D4690420E4607D349F6E7
:102B2000F140C0F6000040F2CB1104F003FC97F82E
:102B30003400012832D0012087F8340097F835009E
:102B4000012828D1022087F83500002078653868F0
:102B5000B9683A6CFB6D0768402927F48027314635
:102B60000760456004BF2146344681603F2199409B
:102B7000C460C8F80810016841F0160101601AB17C
:102B8000016841F008010160016841F00101016044
:102B90000020BDE8F081002087F834000220BDE865
:102BA000F0810000B0B5044600F0E8F9054640F2B7
:102BB0000C00C2F200000078611C18BF044400BF82
:102BC00000F0DCF9401BA042FAD3B0BD7047000012
:102BD00043F61441C4F201010A68024214BF0860BE
:102BE0007047FFF7F3BF00002DE9F04F83B00446B4
:102BF00000F13E4000F1FF704FEAB027092F0D466B
:102C000006D349F6B840C0F60000AC2104F092FBB0
:102C100028680021B1EB104F40F0178180B20028E6
:102C200000F013816868B0F5881F80F21A811228BD
:102C300000F23181012101FA00F00F21C0F20601FA
:102C4000084200F0288105F11000019041F6004093
:102C5000C4F20200082143F60049844208BF07215C
:102C6000C4F20109072F38BF39464FF0010C4FF06D
:102C7000030E4FF0000A4FF0000B0027009107E011
:102C800001370BF1040B102F0AF1020A00F0DA8071
:102C900028680CFA07F810EA080FF1D0686800F00D
:102CA00003014A1E012A07D9032929D100F0030193
:102CB000022941D06DE000BFEA68042A0ED349F62C
:102CC000B840C0F60000C02104F034FB6868EA6830
:102CD0004FF0030E4FF0010C00F00301A3680EFA51
:102CE0000AF6B34302FA0AF21A43A2606268C0F31A
:102CF000001322EA0802BB401A4362600329D5D0C0
:102D0000A96803290CD349F6B840C0F60000D121C8
:102D100004F010FBD5E901014FF0030E4FF0010C58
:102D2000E2680EFA0AF39A4301FA0AF11143E160EC
:102D300000F0030102292CD101980068102806D266
:102D400081B249F2FF7222FA01F1C9070CD149F6AA
:102D5000B840C0F60000DE2104F0ECFA01984FF014
:102D6000030E4FF0010C02E04FA101EB80006FF069
:102D7000030101EA5701214400680A6A0BF01C03B1
:102D80000F269E40B243984010430862686800F0E6
:102D9000030122680EFA0AF39A4301FA0AF1114379
:102DA00010F4403F21603FF46BAF002043F6440134
:102DB0000290C4F2020108684FF6084640F48040D1
:102DC00008600868CFF6FF7600F480400290029811
:102DD00027F00300484481590BF00C020F23934065
:102DE0009943009B03FA02F211438151D9F808007C
:102DF000696840EA080243F60C46CB0258BF20EA55
:102E00000802C9F80820C4F2010630688B0240EAC3
:102E1000080258BF20EA08023260D9F804008B0388
:102E200040EA080258BF20EA0802C9F80420D9F88D
:102E30000000C90340EA080258BF20EA0802C9F8A6
:102E400000201DE703B0BDE8F08F49F6B840C0F69A
:102E50000000AD2104F06EFA6868B0F5881FFFF637
:102E6000E6AEB0F5081F0CDAB0F5881F3FF4EBAE04
:102E7000B0F5901F3FF4E7AEB0F5041F3FF4E3AEAA
:102E800009E03FF4E0AEB0F5441F3FF4DCAEB0F52E
:102E9000481F3FF4D8AE49F6B840C0F60000AE2156
:102EA00004F048FACFE600BF000000000100000077
:102EB0000200000003000000040000000500000004
:102EC00006000000070000000800000009000000E4
:102ED0000A000000000000000C00000000000000DC
:102EE000000000000F000000B0B50C46054639B9DF
:102EF00049F6B840C0F600004FF4BE7104F01AFA6B
:102F00002869204018BF0120B0BD0000B0B50C46B4
:102F1000054639B949F6B840C0F600004FF4DB71F8
:102F200004F008FA686900EA040124EA000040EAB3
:102F30000140A861B0BD000070B516460C460546BC
:102F400021B16EB1012E0ED1AC6170BD49F6B84011
:102F5000C0F6000040F29D1104F0ECF9002EF1D112
:102F60002404AC6170BD49F6B840C0F600004FF4CF
:102F7000CF7104F0DFF9AC6170BD000040F6404055
:102F8000C2F2000000687047B0B5002800F08880E9
:102F90000446006845F20041C4F20001884213D0A3
:102FA00045F60001C4F2000188420DD045F600410B
:102FB000C4F20001884207D049F6D450C0F60000A0
:102FC00040F2C91104F0B6F9606841F68021013879
:102FD000C0F20601884265D2A06840F48040B0F596
:102FE000804F6DD1E068B0F5806F75D2206940F4F4
:102FF0000040B0F5404F7ED16069022880F08780A4
:10300000A0696FF0FE01084207D049F6D450C0F61F
:10301000000040F2CF1104F08DF9E06940F040006B
:10302000402840F0AF80206A40F08000802840F0C7
:10303000B78094F83D0028B9002084F83C00204671
:1030400000F026F9242084F83D002068016821F072
:1030500001010160016841F400410160016821F44F
:103060000041016000F000FC48F28041C0F21E0106
:1030700040F6001288424FF00001C0F23D02656840
:1030800038BF0121904248F2A1624FF00003C0F224
:10309000010238BF0123954238BF0B46002B45D0B3
:1030A0000120B0BD49F6D450C0F600004FF4E571E0
:1030B00004F040F9A06840F48040B0F5804F91D012
:1030C00049F6D450C0F6000040F2CB1104F032F9BA
:1030D000E068B0F5806F89D349F6D450C0F600009F
:1030E0004FF4E67104F026F9206940F40040B0F591
:1030F000404F3FF481AF49F6D450C0F6000040F293
:10310000CD1104F017F960690228FFF479AF49F690
:10311000D450C0F600004FF4E77104F00BF9A06939
:103120006FF0FE0108427FF470AF76E74DF68361E1
:10313000C4F21B31A0FB011221684FEA924C4B688C
:1031400023F03F0343EA92424A600A6A48F2A063CE
:10315000C0F201039D4222F03F032FD80CF101027F
:1031600001386D001A43B0FBF5F00A62CA690130FC
:103170004CF6FF736FF31F3022EA030C042898BF4C
:1031800004205BE049F6D450C0F600004FF4E8712B
:1031900004F0D0F8206A40F0800080283FF449AF66
:1031A00049F6D450C0F6000040F2D11104F0C2F844
:1031B00094F83D0000287FF445AF3DE74FF4967248
:1031C0000CFB02FC44F6D352C1F26202ACFB022CAF
:1031D000012202EB9C121A430A62CA69A3684CF6E8
:1031E000FF7C22EA0C0CA0F1010E9BB11920684370
:1031F000BEFBF0F00422013062F31F30000512D054
:103200009BB119206843BEFBF0F00422013062F349
:103210001F3011E005EB4500BEFBF0F001306FF30D
:103220001F300005ECD1012008E005EB4500BEFB96
:10323000F0F001306FF31F3040F4004040EA0C0022
:10324000C8610868D4E9072320F0C0001043184380
:103250000860886848F2FF3204F10C0C90439CE847
:103260002C10184310438860C86820F0FF002843E2
:1032700040EA0C00C860086840F0010008600020C7
:103280002021206484F83D10206384F83E00B0BD06
:10329000B0B586B000240594CDE9034445F2004161
:1032A0000068C4F2000188420294019401D006B083
:1032B000B0BD43F630050094C4F20205286840F022
:1032C00002002860286800F0020000900098C020EA
:1032D000019012200290012003900320049004200A
:1032E000059001F5D83001A9FFF77EFC009428690C
:1032F00040F400102861286900F400100090009844
:1033000006B0B0BD40F20C0040F64041C2F20000F1
:10331000C2F2000100780A6810440860704700009B
:1033200080B543F60040C4F20200016841F4007128
:103330000160016841F480610160016841F48071BD
:103340000160032000F064F90F2000F005F800F0A0
:1033500027F8002080BD000070B540F20C06C2F2D4
:10336000000640F214013278C2F200014FF47A7381
:103370000968B3FBF2F20446B1FBF2F1084600F033
:1033800057FD0F2C4FF0010508D838B94FF0FF302A
:1033900021460022002500F0FBF87460284670BD2D
:1033A00080B582B0002043F640010190C4F20201D2
:1033B0004A6842F480424A604A6802F480420192BC
:1033C000019A00900868002240F080500860086868
:1033D000002100F0805000900098512000F0D8F8B3
:1033E000512002B0BDE8804000F0B8B8002804BF0A
:1033F0000120704770B504460E46006844F6FF7120
:10340000C4F200011546884212DC44F20041C4F2C5
:103410000001884226D044F60001C4F2000188422F
:1034200020D044F60041C4F2000188421AD011E0D5
:1034300045F20001C4F20001884213D041F20001BC
:10344000C4F2010188420DD041F20041C4F20101F1
:10345000884207D049F67F60C0F600004FF416712D
:1034600003F068FF6FF40060054207D049F67F6003
:10347000C0F6000040F25B2103F05CFF102E43D247
:10348000A06840F48050B0F5805F4BD1E06940F413
:103490000040B0F5004F53D194F8410028B9002006
:1034A00084F84000204602F07FFF242084F8410089
:1034B0002068C16821F40051C160204603F08AFEF3
:1034C0002068016921F490410161416921F02A01DC
:1034D0004161016921F00F0101610169314301611D
:1034E000C16821F40061C160C1682943C160C1683D
:1034F00041F40051C16000202021606484F8411033
:1035000084F84210606370BD49F67F60C0F6000029
:103510004FF4177103F00EFFA06840F48050B0F52F
:10352000805FB3D049F67F60C0F6000040F25D21B5
:1035300003F000FFE06940F40040B0F5004FABD06D
:1035400049F67F60C0F6000040F25E2103F0F2FE13
:1035500094F841000028A8D1A1E70000B0F1FF3F96
:103560000FDDC1B200F01F00012202FA00F04EF29E
:103570000012CEF2000242EAD10121F003010860FC
:10358000704749F62950C0F60000BC2103F0D2BEB6
:1035900070B515460E46102A044606D349F6295042
:1035A000C0F60000A82103F0C5FE102E06D349F690
:1035B0002950C0F60000A92103F0BCFE4EF60C50C5
:1035C000CEF2000001684FF0FF33C1F3022181F019
:1035D0000702042A28BF0422033903FA02F238BF83
:1035E000002126EA02028A4003FA01F104F00F03E7
:1035F00025EA0101043B1143184409010C3004F190
:103600006042B4F1FF3FC8BF02F56440017070BD75
:1036100010B504460338052806D349F62950C0F6EC
:103620000000902103F086FE4EF60C50CEF2000012
:1036300001684FF6FF02114064F30A2141F08061F6
:1036400041F0FD71016010BD2DE9F041002800F04E
:10365000D980044600680D4601380F2807D349F683
:103660008040C0F6000040F25A2103F063FE082DAE
:1036700007D349F68040C0F6000040F25B2103F01A
:1036800059FE43F60808C4F20208D8F8F80300F01F
:103690000700A84208D288F8F853D8F8F80300F0D9
:1036A0000700A84240F0AE80206881071ED5410780
:1036B00005D5D8F8001041F4E051C8F80010010712
:1036C00005D5D8F8001041F46041C8F80010A16891
:1036D0006FF0070202EB3112082A80F0B480D8F8AC
:1036E000002022F0F0021143C8F80010C00764D196
:1036F000D8F8F80300F00700A84207D988F8F85373
:10370000D8F8F80300F00700A8427BD120684107F1
:103710001AD5E1686FF0030202EBB122042A0CD340
:103720004FEAB1224AB149F68040C0F6000040F2AB
:10373000C32103F0FFFD2068E168D8F8002022F4DF
:10374000E0521143C8F8001000071AD520696FF045
:10375000030101EBB02104290BD34FEAB02141B1A1
:1037600049F68040C0F6000040F2CA2103F0E2FDB5
:103770002069D8F8001021F4604141EAC000C8F87F
:10378000000000F099F8D8F8001049F61C42C1F387
:103790000311C0F60002515C40F2140220FA01F15C
:1037A00040F21000C2F200000068C2F20002116094
:1037B000FFF7D2FD0020BDE8F0816068042808D33F
:1037C00049F68040C0F6000040F2852103F0B2FDCA
:1037D0006068811E022907D258F8081C89015CBF65
:1037E0000120BDE8F08110E0012807D158F8081C3D
:1037F00089035CBF0120BDE8F08106E058F8081C91
:10380000890702D40120BDE8F081D8F8001021F02A
:1038100003010843C8F80000FFF7B0FB064641F279
:10382000883700BFD8F80000616800F00C00B0EBEA
:10383000810F3FF45DAFFFF7A1FB801BB842F1D9C8
:103840000320BDE8F0814FEA3112002A3FF447AF70
:1038500049F68040C0F6000040F27E2103F06AFD88
:103860002068A1683BE7000040F2140043F608011D
:10387000C2F20000C4F202010068096849F62C4255
:10388000C1F38221C0F60002515CC84070470000BD
:1038900040F2140043F60801C2F20000C4F2020133
:1038A0000068096849F62C42C1F34231C0F60002B3
:1038B000515CC8407047000010B543F60404C4F2E0
:1038C0000204606800F00C0142F200400829C0F2D6
:1038D000F40007D0042918BF10BD41F20020C0F247
:1038E0007A0010BD216801F03F0221682368490277
:1038F000C3F3881105D4A1FB00010023FCF7C6FC2B
:1039000006E041F20020C0F27A004843B0FBF2F03A
:1039100021680222C1F3014102EB4101B0FBF1F049
:1039200010BD00002DE9F04182B0002800F0C780F2
:1039300004460068102807D349F68040C0F600000E
:10394000E62103F0F7FC206843F60006C007C4F246
:10395000020612D06068002818BFB0F5803F40F022
:103960003D81B06800F00C00042814D13068800359
:1039700003D56068002800F0A280207880075CD51D
:10398000E06802282BD22069202833D2B06810F0DA
:103990000C0F3BD144E0B06800F00C00082802D1C5
:1039A00070684002E2D46568B5F5803F07D03068A2
:1039B000B5F5A02F40F0A78140F48020306030683A
:1039C00040F480303060FFF7D9FA05463068800354
:1039D000D3D4FFF7D3FA401B6428F7D919E149F68D
:1039E0008040C0F6000040F21D1103F0A3FC2069E6
:1039F0002028CBD349F68040C0F600004FF48F71E9
:103A000003F098FCB06810F00C0F09D0B06800F01B
:103A10000C00082840F0AD807068400200F1A980D9
:103A20003068800702D5E068012848D130682169F4
:103A300020F0F80040EAC10030602078000742D44E
:103A40002078400761D4A069032808D349F6804054
:103A5000C0F6000040F2CD1103F06CFCA06950B339
:103A6000B16801F00C01082940F0D780012826D068
:103A70007068E16900F480028A4220D1216A00F076
:103A80003F028A421BD147F6C071626A0140B1EB26
:103A9000821F14D1A16A4FF6FF73C903994300F442
:103AA0004032A1F580318A4209D1E16A00F07060AC
:103AB000B0EB016F03D1002002B0BDE8F08101201E
:103AC00002B0BDE8F0816069022808D349F6804061
:103AD000C0F600004FF4AF7103F02CFC60690028C1
:103AE00040F26000C4F2472000F084800121C0F859
:103AF000201EFFF743FA0546706F8007A0D4FFF73A
:103B00003DFA401B0228F7D983E0A068052800F29F
:103B1000B380012101FA00F010F0230F00F0AC8017
:103B2000306C4FF00008C0000CD4CDF80480306C2D
:103B30004FF0010840F080503064306C00F080504D
:103B40000190019847F20007C4F200073868C005E9
:103B500026D4386840F480703860FFF70FFA0546C5
:103B60003868C0051CD4FFF709FA401B0228F7D9B2
:103B70004FE0E068002869D06020C4F247200121AE
:103B800040F8601CFFF7FAF9054600BF306880076F
:103B90003FF54CAFFFF7F2F9401B0228F6D938E0A9
:103BA000A568012D06D0306F052D40F0898040F0CA
:103BB00004003067306F40F001003067FFF7DEF936
:103BC000054641F2883700BF306F800700F19280D0
:103BD000FFF7D4F9401BB842F6D91AE0B0F5A02F90
:103BE0003FF4BFAE49F68040C0F60000EB2103F081
:103BF000A1FBB6E60021C0F8201EFFF7BFF905467D
:103C0000706F80077FF51CAFFFF7B8F9401B0228E3
:103C1000F6D9032002B0BDE8F08102283BD1E0696B
:103C200040F48000B0F5800F40F08780206A0238B1
:103C30003E2880F08F80606A3238B0F5BF7F00F296
:103C40009780A06A082840F29E80E3E06020C4F2DA
:103C50004720002140F8601CFFF790F9054600BF9F
:103C6000306880077FF5E9AEFFF788F9401B02282E
:103C70004FF00300F4D91FE749F68040C0F600007A
:103C80004FF4C57103F056FB306C4FF00008C000D4
:103C90007FF54BAF56E76020C4F24720002101605A
:103CA000FFF76CF9044600BF306880017FF503AF71
:103CB000FFF764F9001B02284FF00300F4D9FBE67C
:103CC00020F001003067306F20F004003067FFF70C
:103CD00055F9002D05467FF474AF41F28837306FF7
:103CE000800707D5FFF74AF9401BB8424FF00300A1
:103CF000F5D9E1E6B8F1000F3FF4A5AE306C20F045
:103D0000805030649FE620F480303060306820F4CA
:103D100080203060FFF732F9002D05467FF456AE63
:103D200007E0FFF72BF9401B64284FF003003FF634
:103D3000C3AE30688003F4D41FE649F68040C0F675
:103D400000004FF4EB7103F0F5FA206A02383E28C8
:103D5000FFF471AF49F68040C0F6000040F2D71181
:103D600003F0E8FA606A3238B0F5BF7F7FF669AFDA
:103D700049F68040C0F600004FF4EC7103F0DAFA27
:103D8000A06A082846D8012101FA00F010F4AA7FA1
:103D900040D0E06A02380E2807D349F68040C0F6CA
:103DA00000004FF4ED7103F0C5FA6027C4F2472715
:103DB00000203860FFF7E2F8054600BF3068800158
:103DC00007D5FFF7DBF8401B02284FF00300F5D9B9
:103DD00072E604F11C052FCD084340EA8210D90396
:103DE0004FF6FF729143A1F5803140EA0560084328
:103DF000706001203860FFF7C1F804463068800128
:103E00003FF559AEFFF7BAF8001B02284FF0030048
:103E1000F4D951E649F68040C0F6000040F2D911CD
:103E200003F088FAE06A02380E28B6D2BDE7000037
:103E3000411E0020B0EB116F1CBF012070474EF2F5
:103E40001002CEF2000251604EF62351CEF2000174
:103E5000F0230B70072190601160704770470000DD
:103E600070470000F0B581B00746006840F200429C
:103E700040F48060C4F2010290420D462DD12868C2
:103E800040F40060B0F5006F35D1686840F48060A0
:103E9000B0F5806F3DD1A8684FEA3020042845D2A4
:103EA000E868B0F5807F4DD2286940F48050B0F5C5
:103EB000805F55D1686940F40050B0F5005F5DD176
:103EC000E86940F48040B0F5804F65D197F83C0038
:103ED00001286DD1022001B0F0BD49F64460C0F662
:103EE000000040F2E67103F025FA286840F4006013
:103EF000B0F5006FC9D049F64460C0F6000040F24A
:103F0000E77103F017FA686840F48060B0F5806FDD
:103F1000C1D049F64460C0F600004FF4FD6103F0E3
:103F200009FAA8684FEA30200428B9D349F644605A
:103F3000C0F6000040F2E97103F0FCF9E868B0F562
:103F4000807FB1D349F64460C0F6000040F2EA71C8
:103F500003F0F0F9286940F48050B0F5805FA9D0F3
:103F600049F64460C0F6000040F2EB7103F0E2F95C
:103F7000686940F40050B0F5005FA1D049F6446094
:103F8000C0F6000040F2EC7103F0D4F9E86940F4A7
:103F90008040B0F5804F99D049F64460C0F60000EB
:103FA00040F2ED7103F0C6F997F83C00012891D07A
:103FB00095E85F0023F47C5322F470521A4321F4F5
:103FC000F041114320F4E040084324F4C041084389
:103FD0003043E96920F480403A6808435064002087
:103FE00087F83C0001B0F0BDB0B50446006840F66B
:103FF000FF72C4F2000290420D460FDC40F2FF71E6
:10400000C4F2000188421CDCB0F1804F31D040F294
:104010000041C4F2000188422BD09DE04FF6FF71B1
:10402000C4F20001884219DC41F20001C4F200012F
:1040300088421ED041F20041C4F20001884218D0EB
:104040008AE040F60001C4F20001884211D040F637
:104050000041C4F2000188420BD07DE00021C4F28F
:104060000101884205D040F20041C4F201018842BA
:1040700072D128684FEA3010082807D349F6446007
:10408000C0F6000040F2AA7103F054F9686840F0ED
:104090008000802807D049F64460C0F6000040F256
:1040A000AB7103F047F994F83C0001284FF002008F
:1040B00008BFB0BD012184F83C1084F83D002068A1
:1040C000426881682B6822F070021A4341F2FF7344
:1040D000C4F20003984242600DDC40F2FF72C4F269
:1040E0000002904215DCB0F1804F29D040F200422E
:1040F000C4F2000222E040F2FF32C4F20102904218
:1041000012DC41F60002C4F20002904218D00022F4
:1041100012E040F60002C4F20002904210D040F6D5
:104120000042C4F2000209E044F20002C4F20102BB
:10413000904205D040F20042C4F20102904204D104
:104140006A6821F0800111438160012084F83D00FC
:10415000002084F83C00B0BD49F64460C0F6000081
:1041600040F2A97103F0E6F828684FEA30100828F9
:10417000BFF484AF8AE70000002804BF0120704725
:10418000B0B50446006841F6FF31C4F20001884230
:1041900016DC40F6FF31C4F20001884225DD41F211
:1041A000FF31C4F2000188423BDC40F60041C4F21A
:1041B000000188424CD041F20001C4F2000145E008
:1041C00040F2FF31C4F2010188421CDD44F2FF31AC
:1041D000C4F2010188422FDC40F20041C4F2010127
:1041E000884235D044F200012EE0B0F1804F2FD04C
:1041F00040F20041C4F20001884229D040F600019B
:10420000C4F2000122E041F60041C4F200018842FC
:104210001ED042F20001C4F20001884218D00021F1
:1042200012E041F20041C4F20001884210D041F690
:104230000001C4F2000109E044F20041C4F20101AE
:10424000884205D044F60001C4F20101884270D1D1
:10425000A0684FEA3010062879D8012101FA00F051
:1042600010F0570F73D02069002818BFB0F5807F79
:1042700040D12168E068B1F1804F05D040F600429E
:10428000C4F20002914241D138B949F60C60C0F63F
:1042900000004FF48B7103F04DF8A069251D40F02C
:1042A0008000802838D194F83D0028B9002084F897
:1042B0003C00204600F054F8022084F83D002068BD
:1042C000294602F0FDF9012084F8460084F83E00FA
:1042D00084F83F0084F8400084F8410084F84200EC
:1042E00084F8430084F8440084F8450084F83D00D5
:1042F0000020B0BDB0F5007FBBD049F60C60C0F621
:10430000000040F2151103F015F8B2E701384FF63E
:10431000FF718842B9D2C0E749F60C60C0F60000D0
:1043200040F2171103F006F894F83D000028C3D1BD
:10433000BCE749F60C60C0F6000040F2131102F031
:10434000F9FFA0684FEA301006287FF686AF49F6DD
:104350000C60C0F600004FF48A7102F0EBFF82E7B8
:1043600010B582B00068B0F1804F15D00021C4F2C2
:10437000010188422BD10020019043F64000C4F295
:1043800002004168192441F001014160406800F0D9
:104390000100019001980FE00020009043F64000DA
:1043A000C4F2020001681C2441F0010101600068B0
:1043B00000F0010000900098204600210022FFF745
:1043C000E7F8204602B0BDE81040FFF7C7B802B0DA
:1043D00010BD000010B50446006841F6FF31C4F27C
:1043E0000001884216DC40F6FF31C4F20001884229
:1043F00025DD41F2FF31C4F2000188423BDC40F68A
:104400000041C4F2000188424CD041F20001C4F2E4
:10441000000145E040F2FF31C4F2010188421CDD99
:1044200044F2FF31C4F2010188422FDC40F2004126
:10443000C4F20101884235D044F200012EE0B0F10F
:10444000804F2FD040F20041C4F20001884229D0B1
:1044500040F60001C4F2000122E041F60041C4F23E
:10446000000188421ED042F20001C4F200018842DD
:1044700018D0002112E041F20041C4F2000188424C
:1044800010D041F60001C4F2000109E044F20041FD
:10449000C4F20101884205D044F60001C4F20101D2
:1044A000884253D194F83D0001281CBF012010BD63
:1044B000022084F83D00206841F2FF72C168C4F216
:1044C0000002904241F00101C1600DDC40F2FF7139
:1044D000C4F20001884215DCB0F1804F29D040F2CF
:1044E0000041C4F2000122E040F2FF31C4F20101B8
:1044F000884212DC41F60001C4F20001884218D063
:10450000002112E040F60001C4F20001884210D000
:1045100040F60041C4F2000109E044F20001C4F297
:104520000101884205D040F20041C4F201018842F5
:1045300006D1816801F00701062904BF002010BDE3
:10454000016841F001010160002010BD49F60C60D6
:10455000C0F600004FF4E87102F0ECFEA2E70000A4
:10456000B0B5044690F83C0001284FF0020008BFA7
:10457000B0BD0D46012184F83C1084F83D002A6846
:104580004F2A08DC1F2A11DD202A20D0302A1ED015
:10459000402A1CD012E06F2A0CDD702A17D0B2F529
:1045A000805F14D0B2F5005F11D007E07AB1102A15
:1045B0000DD003E0502A0AD0602A08D049F60C60DA
:1045C000C0F6000041F2C34102F0B4FE2A6821683F
:1045D0004FF6777388684F2A20EA030088604FF00F
:1045E00001001FDC1F2A4CDD202A4ED0302A4CD07F
:1045F000402A40F0688341F2FF70C4F2000081421B
:1046000000F3E68040F2FF70C4F20000814200F344
:104610009781B1F1804F00F0CD8140F20040C4F2AB
:104620000000C4E16F2A45DD702A6DD0B2F5005F4D
:1046300000F08180B2F5805F40F0458341F6FF30A5
:10464000C4F2000081424FF0000000F3D18040F638
:10465000FF32C4F20002914240F3338241F2FF3252
:10466000C4F20002914200F34C8240F60042C4F2D0
:104670000002914200F0278341F20002C4F20002DE
:1046800056E212B1102A40F01E8341F2FF70C4F2CC
:10469000000081422ADC40F2FF70C4F20000814237
:1046A00060DCB1F1804F00F08C8040F20040C4F239
:1046B000000083E0502A60D0602A40F0048341F279
:1046C000FF70C4F20000814200F3AA8040F2FF7044
:1046D000C4F20000814200F33E81B1F1804F00F04E
:1046E000828140F20040C4F2000079E140F2FF30E4
:1046F000C4F20100814257DC41F60000C4F2000020
:1047000081425ED0002057E041F2FF70C4F2000009
:10471000814200F3958040F2FF70C4F200008142B4
:1047200000F32481B1F1804F00F0768140F2004027
:10473000C4F200006DE140F6FF30C4F20000814297
:1047400000F38E80B1F1804F00F0A38040F2004072
:10475000C4F20000814200F09C8040F60000C4F2E8
:1047600000008CE040F60000C4F20000814228D036
:1047700040F60040C4F2000020E041F2FF70C4F2B5
:104780000000814200F3C18040F2FF70C4F20000DB
:10479000814200F3F680B1F1804F00F0868140F253
:1047A0000040C4F200007DE140F20040C4F201008C
:1047B000814206D044F20000C4F20100814240F080
:1047C000B480886820F07000104340F0070078E261
:1047D00040F2FF30C4F20100814200F3DE8041F676
:1047E0000000C4F20000814200F0E4800020DCE020
:1047F00040F2FF32C4F20102914240F3728144F26E
:10480000FF32C4F20102914200F3878140F200427C
:10481000C4F20102914200F0568244F2000285E1A6
:1048200040F2FF30C4F20100814200F3CF8041F634
:104830000000C4F20000814200F0D5800020CDE0ED
:1048400040F2FF30C4F20100814200F3D88041F60B
:104850000000C4F20000814200F0DE800020D6E0BB
:1048600040F60040C4F20000814212D00020C4F2A1
:10487000010081420DD040F20040C4F201008142AB
:1048800007D049F60C60C0F6000041F2EE4102F09C
:1048900051FDA8684FEA3030042807D349F60C6070
:1048A000C0F6000041F2F14102F044FD68680A28B8
:1048B00005D80121814040F2054211420AD1B0F5EC
:1048C000004F07D049F60C60C0F6000041F2F241FB
:1048D00002F030FDE868102808D349F60C60C0F6F5
:1048E000000041F2F34102F025FDE8682168D5E9B6
:1048F00001238D681A4325F47F4542EA00202843AE
:104900008860886840F48040DBE140F2FF30C4F208
:104910000100814200F3BC8041F60000C4F20000B7
:10492000814200F0C2800020BAE049F60C60C0F677
:10493000000041F2355102F0FDFC21682A6840E791
:1049400040F60000C4F20000814233D040F600403F
:10495000C4F200002BE040F60000C4F200008142E7
:1049600041D040F60040C4F2000039E040F60000BB
:10497000C4F2000081424FD040F60040C4F2000073
:1049800047E040F60000C4F20000814200F08D8054
:1049900040F60040C4F2000084E040F20040C4F25F
:1049A0000100814206D044F20000C4F201008142BD
:1049B00040F0CA8068680A2800F2D2800121814054
:1049C00040F20542114240F0D680C9E040F200407A
:1049D000C4F20100814206D044F20000C4F201009A
:1049E000814240F0EB8068680A2800F2F3800121E0
:1049F000814040F20542114240F0F780EAE040F287
:104A00000040C4F20100814206D044F20000C4F22A
:104A10000100814240F00D81A8684FEA303004283F
:104A200007D349F60C60C0F6000041F2D94102F00C
:104A300081FC68680A2805D80121814040F20542BE
:104A400011420AD1B0F5004F07D049F60C60C0F60C
:104A5000000041F2DA4102F06DFCE868102808D34A
:104A600049F60C60C0F6000041F2DB4102F062FC46
:104A7000E8682168D5E901238D681A4325F47F454C
:104A800042EA002028438860886840F0770018E1F7
:104A900040F20040C4F20100814206D044F200001E
:104AA000C4F20100814240F0D38068680A2800F215
:104AB000DB800121814040F20542114240F0DF805D
:104AC000D2E0B1F1804F00F0FE8040F20042C4F22B
:104AD0000002914200F0F78040F60002C4F20002AA
:104AE00026E041F60042C4F20002914200F0EB8061
:104AF00042F20002C4F20002914200F0E48000227F
:104B000014E041F20042C4F20002914200F0DB8066
:104B100041F60002C4F200020AE044F20042C4F28C
:104B20000102914200F0CF8044F60002C4F201027B
:104B3000914200F0C88049F60C60C0F6000041F2D6
:104B4000CF4102F0F7FBBDE049F60C60C0F6000073
:104B500041F2225102F0EEFB68680A287FF62EAF80
:104B6000B0F5004F07D049F60C60C0F6000041F2E6
:104B7000255102F0DFFBE868102808D349F60C60E5
:104B8000C0F6000041F2265102F0D4FBE86821682B
:104B90006A680B6A0D6A23F00A0325F001050D62AD
:104BA0008D691A4325F0F00545EA001088610A6214
:104BB000886840F0470020F0300082E049F60C6041
:104BC000C0F6000041F2125102F0B4FB68680A28F6
:104BD0007FF60DAFB0F5004F07D049F60C60C0F678
:104BE000000041F2155102F0A5FBE868102808D337
:104BF00049F60C60C0F6000041F2165102F09AFB33
:104C0000E86821686A680B6A0D6A23F0A00325F042
:104C100010050D628D6943EA021225F4704545EADC
:104C2000003088610A62886840F0670020F0100058
:104C300047E049F60C60C0F6000041F2D64102F0B0
:104C400079FBA8684FEA30300428BFF4EAAEF0E6FA
:104C500049F60C60C0F6000041F2025102F06AFB16
:104C600068680A287FF625AFB0F5004F07D049F6EF
:104C70000C60C0F6000041F2055102F05BFBE868F1
:104C8000102808D349F60C60C0F6000041F2065126
:104C900002F050FBE86821686A680B6A0D6A23F02D
:104CA0000A0325F001050D628D691A4325F0F00510
:104CB00045EA001088610A62886840F0570020F0D9
:104CC000200088600020012184F83D10002184F834
:104CD0003C10B0BD002804BF012070472DE9F0470B
:104CE00004460D46006841F2FF71C4F2000188429B
:104CF0000DDC40F2FF71C4F20001884215DCB0F116
:104D0000804F2AD040F20041C4F2000122E040F27C
:104D1000FF31C4F20101884212DC41F60001C4F205
:104D20000001884219D0002112E040F60001C4F2CF
:104D30000001884211D040F60041C4F2000109E0B0
:104D400040F20041C4F20101884206D044F2000161
:104D5000C4F20101884240F04481A0684FEA30105B
:104D6000062800F24C81012101FA00F010F0570FE3
:104D700000F045812069002818BFB0F5807F40F021
:104D8000A480A06940F08000802840F0AB802868B3
:104D90000138032880F0B380A8680138032880F028
:104DA000BB80A8690138032880F0C380686840F0A0
:104DB0000200022840F0CB80686940F0020002281F
:104DC00040F0D380E8684FEAB000042880F0DB8030
:104DD000E8694FEAB000042880F0E38028691028D1
:104DE00080F0EB80286A102807D349F60C60C0F6E3
:104DF000000040F6E43102F09DFA2168E068B1F16C
:104E0000804F04F1040606D040F60042C4F20002CE
:104E1000914240F0DF8038B949F60C60C0F60000DE
:104E200040F6E53102F086FA94F83D0028B90020FA
:104E300084F83C00204600F0EBF8022084F83D00A6
:104E4000206844F20702816891438160314601F095
:104E500037FC20684FF6FF7881688269D0F820E03F
:104E6000D5E9006CD5E9023A46EA0109AE6922EAC1
:104E7000080243EA06234FF6FC46B343D5E9076729
:104E800042EA0A0229691A4342EA062242EA011169
:104E90002EF0AA026B6942EA0C0241EA073142EAAB
:104EA0000312C0F8089081610262012084F8460074
:104EB00084F83E0084F83F0084F8420084F8430000
:104EC00084F83D000020BDE8F087B0F5007F3FF496
:104ED00058AF49F60C60C0F6000040F6DA3102F037
:104EE00029FA4EE749F60C60C0F6000040F6DB31C7
:104EF00002F020FA286801380328FFF44DAF49F684
:104F00000C60C0F6000040F6DC3102F013FAA8682D
:104F100001380328FFF445AF49F60C60C0F60000E5
:104F200040F6DD3102F006FAA86901380328FFF4E3
:104F30003DAF49F60C60C0F6000040F6DE3102F0ED
:104F4000F9F9686840F0020002283FF435AF49F6ED
:104F50000C60C0F6000040F6DF3102F0EBF9686942
:104F600040F0020002283FF42DAF49F60C60C0F675
:104F700000004FF43E6102F0DDF9E8684FEAB0004E
:104F80000428FFF425AF49F60C60C0F6000040F697
:104F9000E13102F0CFF9E8694FEAB0000428FFF4EC
:104FA0001DAF49F60C60C0F6000040F6E23102F099
:104FB000C1F928691028FFF415AF49F60C60C0F656
:104FC000000040F6E33102F0B5F9286A1028BFF47A
:104FD0000CAF12E701384FF6FF718842BFF41CAFE7
:104FE00022E749F60C60C0F6000040F6D83102F026
:104FF000A1F9A0684FEA301006287FF6B4AE49F652
:105000000C60C0F6000040F6D93102F093F9B1E629
:1050100080B586B000220592CDE9032240F200411E
:105020000068C4F2000188420292019201D006B0E9
:1050300080BD43F630000092C4F20200036943F0E1
:1050400002030361036903F002030093009B0092D3
:10505000036843F0040303600068012300F00400C8
:1050600000900098C020019002200290CDE9033208
:10507000059001F5013001A9FDF7B6FD1D200021C5
:105080000022FEF785FA1D20FEF768FA06B080BD03
:1050900070470000B0B504460068C168026902EAC2
:1050A0000105A90720D4680738D4280752D4E80698
:1050B0006BD4E80740F08780280600F18E806806F0
:1050C00006D520686FF040010161204600F0DAFC4F
:1050D000A80658BFB0BD21686FF0200220460A61C3
:1050E000BDE8B040FEF7BCBE6FF0020101610121D6
:1050F00021778069800707D02046FFF7C9FF00208D
:1051000020776807D1D509E0204600F09FF82046B7
:1051100000F06EFB002020776807C6D520686FF08E
:105120000401016102212177806910F4407F07D0DA
:105130002046FFF7ADFF002020772807B7D509E00C
:10514000204600F083F8204600F052FB0020207734
:105150002807ACD520686FF0080101610421217790
:10516000C069800707D02046FFF792FF0020207714
:10517000E8069ED509E0204600F068F8204600F0D9
:1051800037FB00202077E80693D520686FF01001E8
:10519000016108212177C06910F4407F08D02046C2
:1051A000FFF776FF00202077E8073FF485AF0AE09D
:1051B000204600F04BF8204600F01AFB0020207734
:1051C000E8073FF479AF20686FF0010101612046E4
:1051D00000F024FC28067FF572AF20686FF0800194
:1051E00001612046FEF73AFE68067FF571AF68E779
:1051F00080B586B000220592CDE903220021006827
:10520000C4F2010188420292019201D006B080BD31
:1052100043F630000092C4F20200036843F0010339
:105220000360006800F00100009000984FF44070A7
:1052300001900220CDE902020120059001F58030A5
:1052400001A90492FDF7D0FC06B080BD70470000B4
:105250002DE9F04381B016460D460C2A044605D8C8
:105260000120B04041F21111084209D13C2E07D073
:1052700049F60C60C0F6000041F2820102F05AF8D3
:10528000286840F01000702811D1A86840F0020092
:10529000022819D1286940F00400042821D194F88B
:1052A0003C00012829D1022001B0BDE8F08349F675
:1052B0000C60C0F6000041F2830102F03BF8A868E0
:1052C00040F002000228E5D049F60C60C0F600006C
:1052D00041F2840102F02EF8286940F0040004280D
:1052E000DDD049F60C60C0F6000041F2850102F005
:1052F00021F894F83C000128D5D04FEAB6010120EE
:10530000032984F83C0000F26281DFE801F002200A
:10531000374C206841F6FF71C4F2000188425DDC21
:1053200040F6FF31C4F20001884200F3F480B0F18E
:10533000804F00F01E8140F20041C4F2000188421B
:1053400000F0178140F60001C4F200010FE120686F
:1053500041F2FF71C4F20001884256DC40F2FF7155
:10536000C4F20001884200F3E780B0F1804F00F002
:105370001B8140F20041C4F2000113E1206840F6B5
:10538000FF31C4F2000188424FDCB0F1804F66D09B
:1053900040F20041C4F20001884260D040F60001B2
:1053A000C4F2000150E0266840F6FF30C4F200006D
:1053B00040F200488642C4F2010857DCB6F1804F43
:1053C0006AD040F20040C4F20000864264D040F649
:1053D0000000C4F2000086425ED054E043F6FF7144
:1053E000C4F20101884200F3B28042F20001C4F22B
:1053F0000001884200F0BD800021C4F20101884212
:1054000000F0B78040F20041AFE040F2FF31C4F25B
:105410000101884200F3BC8041F60001C4F20001A2
:10542000884200F0C1800021BAE040F60041C4F299
:105430000001884213D00021C4F2010188420ED03D
:1054400040F20041C4F20101884208D049F60C60E4
:10545000C0F6000041F2B10101F06CFF206829465E
:1054600001F024FB206850F81C1F88E040F6004043
:10547000C4F2000086420FD00020C4F20100864230
:105480000AD0464508D049F60C60C0F6000041F24B
:10549000C20101F04FFF2668306A316A20F40050E3
:1054A00021F4805131627768F1692A6821F4E6417C
:1054B000AB6841EA022946F48061414540EA03387D
:1054C00015D1696941F48070B0F5807F304609D00C
:1054D00049F60C60C0F6000041F6B43101F02AFF35
:1054E0006969206827F4804242EA811700E030466B
:1054F0007760C6F81C9069682A693164C6F8208014
:1055000050F81C1F41F400610160016821F48061C2
:105510000160110257E040F60041C4F200018842E8
:1055200027D041F60001C4F20001884221D041F6A3
:105530000041C4F200011AE040F60001C4F200018B
:10554000884231D040F60041C4F200012AE044F222
:105550000001C4F2010188420BD044F20041C4F2C0
:105560000101884205D044F60001C4F201018842DD
:105570003DD1294601F0C8F9206850F8181F41F0C4
:1055800008010160016821F00401016029691AE045
:1055900040F20041C4F20101884205D044F200010A
:1055A000C4F20101884218D1294601F015FA206899
:1055B00050F8181F41F400610160016821F4806116
:1055C000016029690902026811430160002000217D
:1055D00084F83C1001B0BDE8F08349F60C60C0F6D9
:1055E00000004FF4855101F0A5FE2068DCE749F684
:1055F0000C60C0F6000041F28F0101F09BFE2068B4
:10560000B7E70000002804BF01207047B0B504468A
:10561000006841F6FF31C4F20001884216DC40F612
:10562000FF31C4F20001884225DD41F2FF31C4F2AE
:10563000000188423BDC40F60041C4F20001884290
:105640004CD041F20001C4F2000145E040F2FF31CC
:10565000C4F2010188421CDD44F2FF31C4F20101B1
:1056600088422FDC40F20041C4F20101884235D06B
:1056700044F200012EE0B0F1804F2FD040F2004103
:10568000C4F20001884229D040F60001C4F20001B2
:1056900022E041F60041C4F2000188421ED042F2ED
:1056A0000001C4F20001884218D0002112E041F24A
:1056B0000041C4F20001884210D041F60001C4F25A
:1056C000000109E044F20041C4F20101884205D022
:1056D00044F60001C4F20101884270D1A0684FEA8B
:1056E0003010062879D8012101FA00F010F0570F88
:1056F00073D02069002818BFB0F5807F40D12168A1
:10570000E068B1F1804F05D040F60042C4F20002DB
:10571000914241D138B949F60C60C0F6000040F220
:105720002F5101F007FEA069251D40F08000802860
:1057300038D194F83D0028B9002084F83C00204678
:1057400000F054F8022084F83D002068294600F05B
:10575000B7FF012084F8460084F83E0084F83F003B
:1057600084F8400084F8410084F8420084F8430043
:1057700084F8440084F8450084F83D000020B0BD62
:10578000B0F5007FBBD049F60C60C0F6000040F2D7
:105790002E5101F0CFFDB2E701384FF6FF7188427C
:1057A000B9D2C0E749F60C60C0F600004FF4A6611C
:1057B00001F0C0FD94F83D000028C3D1BCE749F6D4
:1057C0000C60C0F6000040F22C5101F0B3FDA0685F
:1057D0004FEA301006287FF686AF49F60C60C0F617
:1057E000000040F22D5101F0A5FD82E77047000056
:1057F00070470000B0B50446006840F6FF32C4F2BE
:10580000000290420D460FDCB0F1804F1ED040F2F6
:105810000041C4F20001884218D040F60001C4F2F1
:105820000001884212D0C4E040F60041C4F20001F9
:1058300088420BD040F20041C4F20101884205D0F9
:105840000021C4F20101884240F0B3804FEAB50163
:1058500004291FD325F00401B1FA81F14FEA511C4C
:10586000A0F18040A0F5C050A0F59632A0F5983187
:10587000B2FA82F2B1FA81F15209B5FA85F3490917
:105880005B0911430B4202BFB0FA80F1490911EAEA
:105890000C010ED0082D05D0042D06D0CDB104F199
:1058A000410104E004F1400101E004F13F01002066
:1058B00012E0002D40F09080A0F58061A0F500601E
:1058C000B1FA81F1B0FA80F049094009084300F0CB
:1058D000838004F13E010120097801291CBF0120C9
:1058E000B0BD18B1022084F83E000BE00220082D64
:1058F00006D0042D14BF84F8410084F83F0001E075
:1059000084F8400020682946012200F07DFF2068CD
:1059100041F2FF71C4F2000188420FDC40F2FF71D6
:10592000C4F2000188421BDCB0F1804F69D040F224
:105930000041C4F20001884263D069E040F2FF32C6
:10594000C4F20102904218DC41F60003C4F20003E5
:10595000984256D00023C4F20103984219D057E070
:1059600040F60001C4F2000188424AD040F60041EE
:10597000C4F20001884244D04AE044F20003C4F279
:10598000010398423DD040F20043C4F20103984223
:105990003ED1436C884243F400434364BEDD9042F1
:1059A00023DC41F60001C4F20001884229D0002125
:1059B00023E025F00401B1FA81F200294FEA521CDC
:1059C0007FF44EAF41F60002C4F2000202F59432B9
:1059D00090423FF45FAF43E749F60C60C0F6000029
:1059E00040F2B35101F0A6FC54E744F20001C4F2C6
:1059F0000101884205D040F20041C4F20101884211
:105A000006D1816801F00701062904BF0020B0BD5E
:105A1000016841F0010101600020B0BDB0B540F265
:105A200000450446C4F20005006805F57C41884243
:105A300016D101F0A5F840F2AC00C2F200000188D6
:105A400069B940F2A431C2F200010A88013293B26E
:105A5000632B0A8003D100220A8001210180206883
:105A6000A84218BFB0BD40F20830C2F20000418920
:105A70004FF6E85301318AB29A4288BF0021418132
:105A8000B0BD00007047000070B582B0044690F8C9
:105A90004200202809D113460A4600294FF0010090
:105AA00018BF002B04D102B070BD022002B070BD3F
:105AB00001202063002622206663A262A38566641B
:105AC00084F842002168E06B46F6617C47F2C10E23
:105AD00046F6E555C0F6000CC0F6000EC0F600050F
