:020000040800F2
:10000000401200204D0200084966000841660008C1
:1000100045660008CD0C0008C5740008000000000B
:1000200000000000000000000000000085660008DD
:100030000D0D0008000000004D66000889660008EC
:1000400067020008670200086702000867020008EC
:1000500067020008670200086702000867020008DC
:10006000190D0008210D000867020008670200084A
:1000700067020008F50C0008670200086702000824
:100080006702000867020008C10C0008E90C0008BC
:10009000D10C000867020008DD0C000867020008A8
:1000A0006702000849670008670200086702000845
:1000B00055670008616700086702000867020008CA
:1000C000670200086702000867020008670200086C
:1000D000670200086702000867020008670200085C
:1000E000110D000867020008670200086702000897
:1000F000670200086702000867020008670200083C
:10010000670200086702000867020008670200082B
:10011000556F0008670200086702000867020008C0
:10012000010D000867020008670200086702000866
:1001300067020008000000000000000067020008DD
:1001400067020008670200086702000867020008EB
:1001500067020008670200086702000867020008DB
:1001600067020008670200086702000867020008CB
:10017000670200086702000800000000000000009D
:1001800067020008310D000800F002F800F04FF897
:100190000AA090E8000C82448344AAF10107DA45E2
:1001A00001D100F044F8AFF2090EBAE80F0013F0E5
:1001B000010F18BFFB1A43F001031847289D0000E8
:1001C000489D0000103A24BF78C878C1FAD8520779
:1001D00024BF30C830C144BF04680C6070470000C1
:1001E0000023002400250026103A28BF78C1FBD840
:1001F000520728BF30C148BF0B607047662909F01D
:10020000D684642900F0E480732900F099830020EB
:1002100070471FB509F0B9FC00F096FB0400002000
:10022000002108F0E1FFE0601FBD10B510BD00F037
:100230008BFC1146FFF7EDFF07F0E2F900F0A9FC97
:1002400003B4FFF7F2FF03BC00F0ECFC0948804761
:1002500009480047FEE7FEE7FEE7FEE7FEE7FEE7A8
:10026000FEE7FEE7FEE7FEE704480549054A064BC0
:10027000704700003567000889010008400C002025
:1002800040120020400E0020400E002053EA020CD5
:1002900000F069802DE9F04B4FF00006002B1FBFE6
:1002A000B3FA83F503FA05F424FA05F65E4012BFAB
:1002B0001643B2FA82F502FA05F4C5F120051EBF15
:1002C00022FA05FC44EA0C04203556EA044C4FEAB5
:1002D000144418BF641C4FF000084FF0000990420E
:1002E00071EB030C39D3002919BFB1FA81F701FA78
:1002F00007F6B0FA80F700FA07F6C7F120071EBF2D
:1003000020FA07FC46EA0C062037B6FBF4FCA7EB04
:100310000507103F07F01F0BCBF120062CFA06F65D
:100320000CFA0BFB44BFB3460026202FA4BF5E4649
:100330004FF0000B5BEA060C08BF4FF0010B19EB06
:100340000B0948EB0608ABFB027C06FB02CC0BFB5F
:1003500003CCC01B71EB0C01C1E70B4602464146C2
:100360004846BDE8F08B13B5084318BF4FF0FF3087
:100370000146AFF30080BDE81C40704770B50C46E5
:100380000546012A05D02878800600D5EA690023B1
:1003900002E0012305E05B1C934202D2E05C0028EE
:1003A000F9D1A869E618C01AA861286A1844286219
:1003B0002846AFF3008004E0D5E9012114F8010BD1
:1003C0009047B442F8D32846AFF3008070BD0000D8
:1003D0002DE9F0410646002410687529314616A51E
:1003E00010D0AFF30080002802DA404213A507E0E6
:1003F00031688A0701D512A502E0490704D511A585
:10040000012401E0AFF3008000210A2206F1240755
:1004100009E0B0FBF2FCB0FBF2F302FB1C00303051
:1004200078541846491C0028F3D123462A46304602
:10043000BDE8F04100F00BB8000000002D00000006
:100440002B000000200000007047704770472DE926
:10045000F0470D4699469246044600F1240801688B
:10046000880604D5E06921F01001216000E0012038
:10047000A84201DD471B00E00027A1697A1902EBC1
:100480000900081AA0612078C00602D42046AFF304
:100490000080002608E0D4E901211AF80600904700
:1004A000206A401C761C20624E45F4DB2078C00692
:1004B0000AD52046AFF3008006E0D4E901213020C0
:1004C0009047206A401C2062381EA7F10107F4DC27
:1004D00007E0D4E9012118F805009047206A401C84
:1004E0002062281EA5F10105F3DC2046AFF3008051
:1004F0002078000602D50220BDE8F0870120FBE746
:100500002DE9FF4F0C461E464FF0FF378BB0D2E966
:100510000001DDF860800A908A46C1F30A5505B9EA
:100520003D46002108464FF00000BAF1000F00F4EC
:10053000400005DA00EB80004FF4400101EA500072
:100540004FEA9059B9F1010F00DDB9460A9850EA17
:100550004A000ED044F61050A5F2FF3545432F1443
:10056000B8F1000F1ED07542291E1EDDC9F1000230
:100570001CE0B8F1010F4FF0000001D0302103E082
:10058000F24305E02154401CB042FBDB3046002220
:10059000002121540B99C1F80880C1E900200FB057
:1005A000BDE8F08FBD1B6D1CDEE74A4600DA6942EC
:1005B00006A800F053FA06AB93E8070003AB83E804
:1005C000070050460A9908F02EFA8DE80700A0F5BA
:1005D00000501F3800900398002D0ADD42F21F01E1
:1005E0004A460844002303A90390684608F098FC93
:1005F00009E0A0F500504A461F38002303A90390E4
:10060000684608F0A2FC8DE807000004000C03D047
:100610004FF0FF30410800E01046B8F1000F03D062
:100620000022009215461EE0751E05D400F090F9D8
:10063000303262556D1EF9D5B3460122084302D00F
:1006400000227F1C04E02078302801D100227F1E88
:10065000002A099784D01DE0112D07DA00F078F9FF
:10066000303262556D1C50EA0102F5D1084302D0C8
:100670000098C8B10EE00021681E05E0235C625CB2
:1006800063542254401E491C8142F7DBAB46A81B31
:10069000401E0990002004F80B000B98099AC0F83E
:1006A0000880C0E9002B7AE711264FF0000857E7D1
:1006B0002DE9F04F88460446D21D22F0070191B083
:1006C000D1E90001CDE90A0108F076FD02460B9858
:1006D000C00F01D02D2007E02068810701D52B2015
:1006E00002E0202101EAC000032A099001D0072A74
:1006F00005DB03464146204600F070F90BE1207807
:10070000800601D5E06900E00620B8F1650F81465A
:1007100006D0B8F1660F18D0B8F1670F70D131E08C
:100720000020B9F1110F009001DB112301E009F164
:1007300001030AAA01A90CA8FFF7E2FEDDE90C708B
:10074000002609F10105834647E001204B46009051
:100750004FF000470AAA01A90CA8FFF7D1FEDDE976
:100760000DB00C995D46002610B909F101000D1875
:10077000B9EB050003D4C0F1FF3609F10105A5EB83
:1007800009002BE0B9F1010F01DA4FF00109002057
:10079000B9F1110F0090484601DD112300E0034636
:1007A0000AAA01A90CA8FFF7ABFEDDE90C704D46C3
:1007B00000268346207800070AD4AB4500DA5D4660
:1007C00001A8012D04DD411911F8011C302907D0C1
:1007D0004F4502DA17F1040F04DA012082460FE0D8
:1007E0006D1EEEE7002F02DCED1B3E4403E0781C9B
:1007F000A84200DD7D1CB81B00F1010A4FF0004744
:100800002078000703D4AA4501DB4FF0FF3A00210E
:10081000B7F1004F0DF143088DF8431024D00220AA
:100820002B23002F01DA7F422D230A21021EA0F183
:10083000010000DC5FB197FBF1FC97FBF1F201FBDB
:100840001C7C17460CF1300C08F801CDEEE7A8F13E
:10085000010003702188090501D5452100E06521CB
:10086000A0F1010800F8011C09980FA9A1EB0807E5
:10087000FF1D00B10120411901EBEA70A169384464
:10088000081A401EA0612078C00602D42046AFF3AB
:100890000080099828B1D4E901219047206A401CC2
:1008A00020622078C00622D52046AFF300801EE0EB
:1008B000002E04DBB34502DD01A8805D00E030209E
:1008C000D4E901219047206A401C2062761CAAF1DD
:1008D00001005FEA000A0AD100F036F8C06801683A
:1008E000405CD4E901219047206A401C2062281E08
:1008F000A5F10105DCDC07E0D4E9012118F8010BC2
:100900009047206A401C2062381EA7F10107F3DCE3
:100910002046AFF30080032011B041E610B54369D3
:1009200013B1AFF3008001E0FFF728FD012010BDF7
:10093000127800F124010A7000224A700122EDE7CA
:1009400011684FF0FF32E9E7004870473800002097
:1009500030B5B0F10A0271F100034FEA900E4EEA91
:10096000817EB0EB0E0061EB91014FEA101E4EEA62
:10097000017E10EB0E0041EB11114FEA102E4EEAF2
:10098000016E10EB0E0041EB11214FEA104E4EEAC2
:10099000014E10EB0E0041EB1141401841F10001F6
:1009A0004FEAD00040EA41704FEAD1014FEA81049A
:1009B00044EA907410EB800544EB01046D1944EB9C
:1009C0000404521BA3414FF0000348BF0A3200D574
:1009D00030BD401C41F1000130BD00002DE9F04167
:1009E0001F46044603260168072A01F4006004DB61
:1009F00008B116A505E016A503E008B115A500E0AD
:100A000015A521F010002060A069C01EA0610FB1E3
:100A1000401EA0612046AFF300804FB1D4E9012110
:100A200038469047206A401C2062C01C206206E0C5
:100A3000206AFAE7D4E9012115F8010B9047761EE8
:100A4000F8D22046AFF30080BDE8F0814E414E0061
:100A50006E616E00494E4600696E66002DE9F047F2
:100A6000814616468AB0354878440DC88DE80D0099
:100A700032487844801C03AC0DC884E80D0041F670
:100A80009B300844372190FBF1F290FBF1F5A5F182
:100A9000800501FB12041B3C02D56442012000E0EA
:100AA0000020DFF898A080460027FA44AAF1BE0A89
:100AB0000EE0E0070AD03246684607EB4701012303
:100AC0000AEB810108F041FA8DE8070064107F1CF1
:100AD000002CEED1194F7F44AE3F19E0E80715D046
:100AE00007EB04100DF1180A90E80E008AE80E00DA
:100AF000C068F04201D1981908903246012306A936
:100B000003A808F022FA03AB83E807006D10641C09
:100B1000002DE3D14FF0010332466946B8F1000FD2
:100B200003A802D008F0FCF901E008F00EFAC9E9C8
:100B30000001C9F808200AB0BDE8F087C4910000A0
:100B400000487047180000207546FFF7F9FFAE46D1
:100B500005006946534620F00700854618B020B5C9
:100B6000FFF782FBBDE820404FF000064FF0000782
:100B70004FF000084FF0000BAC46ACE8C009ACE801
:100B8000C009ACE8C009ACE8C00921F007018D46F6
:100B9000704710B50446AFF300802046BDE8104012
:100BA000FFF74EBB0000000030B44FF0013C50F89E
:100BB000042B51F8043BCCFA52F4D51A20D1FCB9DD
:100BC00050F8042B51F8043BCCFA52F4D51A17D143
:100BD000B4B950F8042B51F8043BCCFA52F4D51AAE
:100BE0000ED16CB950F8042B51F8043BCCFA52F4F6
:100BF000D51A05D1002CDAD030BC4FF00000704778
:100C000029BAB1FA81F111F01801D1F12000844024
:100C1000F2D1CA40CB4012F0FF0213F0FF0330BC08
:100C2000D01A704701491820ABBEFEE7260002002B
:100C3000704700000146806B036C026C13F0500F8C
:100C400008D0D20648BF00F049B9806BC26C084694
:100C5000104700BF42F40071016401688A6812F015
:100C6000405F01D000F036B9027E002AFAD1CA6A8C
:100C700012F4700F02D08A685205F3D44A6822F049
:100C800020024A60016C21F480710164016CC90486
:100C900048BF00F01FB9016C41F00101016400F090
:100CA00019B90000806B40210164416C41F00401DE
:100CB000416400F013B90000806B00F00DB9000032
:100CC00040F2AC60C2F2000000F00AB9FEE700009A
:100CD00040F28410C2F2000000F0A0BF40F2841085
:100CE000C2F2000000F09ABF40F28410C2F200008D
:100CF00000F094BF40F25470C2F2000001F038BC22
:100D000040F2F460C2F2000001F032BC7047000013
:100D10004FF4004001F088BF042001F085BF0000BF
:100D2000082001F081BF000072B600BFFEE700009E
:100D30007047000070470000F0B581B00D460021FB
:100D400000912968074613290ED2686801381028D7
:100D500016D2A86808281ED297F83C00012826D190
:100D6000022001B0F0BD00BF49F67440C0F600009B
:100D700040F28B6106F0A8FB686801381028E8D3C0
:100D800049F67440C0F6000040F28C6106F09CFB0E
:100D9000A8680828E0D349F67440C0F6000040F285
:100DA0008D6106F091FB97F83C000128D8D02868A7
:100DB00001210A2887F83C100AD381B2490011FAB0
:100DC00080F23968A2F11E0301F10C0205E000BFB8
:100DD000396800EB400301F11002072416689C40BB
:100DE000A6431660AE68146806FA03F32343136043
:100DF0006A68062A06D802EB8202531F01F1340505
:100E00000CE000BF0C2A02EB820287BFA2F1410373
:100E100001F12C05A2F1230301F130051F262C68F6
:100E20009E4024EA060642F204322E60C4F2010219
:100E300086B22C6806FA03F3A2F541762343B14249
:100E40002B6005D0002087F83C0001B0F0BD00BF4A
:100E5000122809D1106840F480001060002087F843
:100E60003C0001B0F0BD00BF20F001011029E9D124
:100E70001168102841F400011160E3D140F2140020
:100E8000C2F2000000684DF68361C4F21B31A0FB82
:100E90000101880C00EB80004000009000980028C1
:100EA000D0D000980138009000980028CAD000984F
:100EB0000138009000980028C4D0009801380090B4
:100EC00000980028BED000980138009000980028B3
:100ED000E7D1B7E770470000704700007047000097
:100EE00070B50446006806684568207E022809D26D
:100EF000E0690138102811D26069032819D2B007BF
:100F000021D439E049F67440C0F6000040F2B74100
:100F100006F0DAFAE06901381028EDD349F674409A
:100F2000C0F600004FF4976106F0CEFA606903281E
:100F3000E5D349F67440C0F6000040F2B94106F02E
:100F4000C3FAB00718D515F0200015D0206CC006E4
:100F500003D4206C40F4007020642068816811F094
:100F6000405F02D1217E00296AD02046FFF7B2FF00
:100F700020686FF012010160700715D515F0800030
:100F800012D0206CC00603D4206C40F400502064C2
:100F90002068816811F4401F30D02046FFF7CAFE58
:100FA00020686FF00C010160F00718BF15F04000D9
:100FB00014D1B00610D515F0806008BF70BD206850
:100FC000616C6FF0200541F002016164056020460C
:100FD000FFF784FF2068056070BD00BF20680068CF
:100FE000C007E6D0206C40F480302064204600F03A
:100FF00011FA20686FF001010160DAE7816B11F4EA
:10100000401F02D081684905C7D441684905C4D44E
:10101000816811F0405FC0D1217E0029BDD14168B7
:1010200021F080014160206C20F480502064206C0D
:10103000C005B2D4206C40F001002064ADE700BFD1
:10104000C16A11F4700F03D0816849053FF58DAF77
:10105000416821F020014160206C20F48070206400
:10106000206CC0043FF581AF206C40F0010020648B
:101070007BE70000002804BF01207047F0B581B075
:101080000446006842F20001C4F20101884213D014
:1010900042F20011C4F2010188420DD042F2002157
:1010A000C4F20101884207D049F67440C0F600003E
:1010B0004FF4A17106F008FA60684FEA3040042846
:1010C0001CD2A0684FEA3060042824D2206902288C
:1010D0002CD2207E022834D2A06AB0F1106F3CDA04
:1010E000B0F1806F46DBB0F1C06F57DB69D0B0F173
:1010F000E06F66D0B0F1006F63D047E149F674400D
:10110000C0F6000040F2431106F0DEF9A0684FEA95
:1011100030600428DAD349F67440C0F600004FF47A
:10112000A27106F0D1F920690228D2D349F67440A1
:10113000C0F6000040F2451106F0C6F9207E0228F4
:10114000CAD349F67440C0F600004FF4A37106F00C
:10115000BBF9A06AB0F1106FC2DBB0F1506F11DAC9
:10116000B0F1306F22DAB0F1106F2AD0B0F1206FF9
:1011700027D00BE1B0F1007F1EDA10B3B0F1807F11
:101180001FD003E100F1714102291AD3B0F1506F71
:1011900017D0B0F1606F14D0F8E000BFB0F1806FED
:1011A0000FD0B0F1A06F0CD0F0E000BF09D0B0F1CB
:1011B000406F06D0EAE000BF03D0B0F1407F40F0BE
:1011C000E580E06840F40060B0F5006F40F0ED802D
:1011D000E0690138102880F0F58094F8300002288A
:1011E00080F0FD806069032880F0058194F820007C
:1011F000022807D349F67440C0F600004FF4A671E8
:1012000006F062F9A06A0127C0F60077B8420CD058
:10121000E06A4FEA3070042807D349F67440C0F6FC
:1012200000004FF4A87106F04FF9206CC0B3206C99
:10123000C0063FD4206C41F202118843023042F2D2
:1012400004312064C4F20101086820F440300860D1
:101250000A6894E829001A4326690A60416821F463
:1012600080714160416841EA06214160416821F096
:1012700040714160416829434160816821F4006107
:101280008160E168826811438160A16A8268B94225
:1012900022F070628260826812D122F0405118E020
:1012A000204600F0B9F80020606484F83C00206C0F
:1012B000C006BFD50120002184F83C1001B0F0BD6C
:1012C00011438160816821F040518160E16A826848
:1012D00011438160816821F0020181608168227E72
:1012E00094F8203041EA42018160FBB1616A4A1EF4
:1012F000082A09D349F67440C0F600004FF4F5619E
:1013000006F0E2F82068616A426842F400624260D6
:10131000426822F4604242604EF20002CFF6FF7251
:10132000436802EB4131194303E000BF416821F4F7
:1013300000614160C16A002321F47001C162E26969
:101340006169CFF6F073C76A03EB02523A43C26297
:10135000826822F40072826094F83020836843EA45
:1013600042228260826822F480628260826842EA5D
:101370008121816000206064216C012262F30101FF
:101380002164002184F83C1001B0F0BD49F674409E
:10139000C0F6000040F2471106F096F8E06840F40D
:1013A0000060B0F5006F3FF413AF49F67440C0F62B
:1013B00000004FF4A47106F087F8E06901381028A6
:1013C000FFF40BAF49F67440C0F6000040F249113B
:1013D00006F07AF894F830000228FFF403AF49F6DB
:1013E0007440C0F600004FF4A57106F06DF8606916
:1013F0000328FFF4FBAE49F67440C0F6000040F24B
:101400004B1106F061F894F820000228BFF4F2AE08
:10141000F8E60000704700002DE9F04186B0044670
:1014200042F200070068C4F201070026B8420596A0
:10143000049603D006B0BDE8F08100BF43F630004B
:101440000096C4F2020041690DF1040841F4807174
:1014500041614169032501F4807100910099009672
:10146000016841F001010160016801F00101009192
:1014700000990096016841F004010160016801F0E3
:101480000401009100990096016841F00201016099
:101490000068414600F0020000900098C0200190D2
:1014A00007F56040CDE9025601F0CAFB302001A9E2
:1014B00061C107F56840414601F0C2FB07F5644091
:1014C0004146CDE90155039601F0BAFB40F2F465BF
:1014D00046F21040C2F20005C4F202004FF48061EF
:1014E000C5E9000605F110004FF400624FF4005307
:1014F0004EC04FF44030C5E908062846C5E90266EB
:1015000001F016F9002818BFFFF70EFC1220002189
:101510000022A563AC6302F051F8122002F032F809
:1015200006B0BDE8F0810000F0B581B004460020AF
:101530000090207E154602280E460BD2E06A4FEA44
:101540003070042813D294F83C0001281BD10220EB
:1015500001B0F0BD49F67440C0F6000040F25A51A7
:1015600005F0B2FFE06A4FEA30700428EBD349F689
:101570007440C0F6000040F25B5105F0A5FF94F8FE
:101580003C000128E3D00120216884F83C008868F1
:10159000C0072AD188684DF6836240F00100886058
:1015A00040F21400C2F200000068C4F21B32A0FB3B
:1015B0000202900C00EB400000900098A8B100BF20
:1015C000009801380090009878B100980138009098
:1015D000009850B1009801380090009828B1009808
:1015E0000138009000980028EAD18868C00503D52A
:1015F000886820F4807088608A68206CD20709D1DE
:1016000040F010002064606C40F001006064002035
:1016100001B0F0BD40F20172904300F5807020648B
:101620004868400504D5206C012262F30D30206427
:10163000226C0020D2044FF0000244BF626C22F002
:101640000602626484F83C00A06B40F6354240F626
:10165000B943C0F60002C0F60003C0E90F2340F60C
:10166000A542C0F60002C2646FF022020A604A6816
:1016700042F2080742F080624A608A682B4642F4D0
:1016800080728A604C313246C4F2010701F066FA7A
:10169000D7F8FC122068C9060ED0A7F108018842CD
:1016A000B5D1386810F0405FB1D1386840F0804063
:1016B0003860002001B0F0BD42F20001C4F2010127
:1016C000884217D042F20021C4F2010188420DD0B5
:1016D00042F20011C4F20101884298D1D7F8FC12FD
:1016E000C90607D007F5FC71884290D1D7F8FC12E3
:1016F000C9068CD4816811F0405F7FF488AF81689F
:1017000041F080418160002001B0F0BD70B5054618
:1017100090F8206048F68070C0F203000C468142C9
:1017200007D349F69050C0F6000040F2826105F000
:10173000CBFE701E012807D8286800F11401002094
:101740000A6822430A6070BD05F1240101204FF4AC
:1017500080240A6822430A6070BD00002DE9F0432E
:1017600081B0054690F8207000680E46846888684D
:10177000994640F004000428904615D1F06840F0E6
:10178000020002281DD13069092825D2B06870B343
:101790007068B0F1005F36D349F69050C0F6000093
:1017A00040F2F3412DE000BF49F69050C0F6000032
:1017B00040F2EA4105F088FEF06840F0020002289D
:1017C000E1D049F69050C0F6000040F2EB4105F040
:1017D0007BFE30690928D9D349F69050C0F6000045
:1017E00040F2EC4105F070FEB0680028D0D13068BE
:1017F000B0F5006F07D349F69050C0F6000040F2F4
:10180000EF4105F061FE307D022807D349F6905084
:10181000C0F6000040F2F54105F056FE781E0128A2
:101820000ED814F0E05F11D0C4F3016001218140B3
:10183000C9F80010B16879B1726841EAC2010DE0DF
:1018400005F1240101204FF4802226E005F1240156
:1018500001204FF4001220E031684905D6E9032346
:101860002F68114307EB0010C0F88011C0F88431D5
:10187000317D012905D100F5C2710A6842F48072F8
:101880000A60D8F80410C0F88C11D8F8002000F5D0
:10189000C071C0F88821002001220B681A430A6039
:1018A00001B0BDE8F0830000F0B581B090F82020D1
:1018B000013A012A58D808680C46B0F5803F5BD23F
:1018C0006068B0F5803F63D2A068B0F5803F6BD20E
:1018D000274657F80C0FB0F5803F73D2A069022855
:1018E0007CD2E069022880F085802069022880F09F
:1018F0008D80206A022880F0958060691C2880F025
:101900009D80616A1C2908D349F69050C0F60000FA
:1019100040F2753105F0D8FD616A46F20060C4F20C
:101920000000026842F001020260026822F47C5268
:101930000260026842EA012101606369E56903F01F
:101940001F010122C66902FA01F1CA438E43012D2B
:10195000C66100F08180002D40F08F80C66806EAE5
:1019600002053E4627467BE0416A41F48021416200
:10197000012001B0F0BD00BF49F69050C0F6000054
:1019800040F2523105F0A0FD6068B0F5803F9BD376
:1019900049F69050C0F6000040F2533105F094FD36
:1019A000A068B0F5803F93D349F69050C0F6000090
:1019B0004FF4557105F088FD274657F80C0FB0F528
:1019C000803F8BD349F69050C0F6000040F255316D
:1019D00005F07AFDA0690228FFF483AF49F6905024
:1019E000C0F6000040F2563105F06EFDE0690228B5
:1019F000FFF47BAF49F69050C0F6000040F257313B
:101A000005F062FD20690228FFF473AF49F690509B
:101A1000C0F600004FF4567105F056FD206A02280A
:101A2000FFF46BAF49F69050C0F6000040F2593118
:101A300005F04AFD60691C28FFF463AF49F6905039
:101A4000C0F600004FF45D7105F03EFD616A1C298F
:101A5000BFF45AAF61E700BFC66846EA01052646F3
:101A6000C5603668A58800EBC30345EA06461E64D8
:101A7000A6683F8847EA06475F644368A56943EA6A
:101A800001072669246A002D08BF03EA02074760A0
:101A90004369002E43EA010708BF03EA0207012C4D
:101AA000476102D1C2691143C161016821F001019E
:101AB0000160002001B0F0BD70470000406A70472F
:101AC0002DE9F04190F8206098460D460446022921
:101AD000174607D349F69050C0F6000040F2E9518E
:101AE00005F0F2FC701E012800F280802068002DB5
:101AF00000F086800169890700F0868000EB051000
:101B0000D0F8B01111F00401B960D0F8B02100F59F
:101B1000D87119BFD2087A60520D3A60096801F095
:101B20000201F960D0F8B411090700F5DA715ABF63
:101B30000A6802F00F0208223A610A68002DC2F317
:101B40000722BA6109684FF020024FEA114179611A
:101B5000D0F8B80188F80000206800EB0510D0F834
:101B6000B8014FEA102088F80100206800EB05104A
:101B7000D0F8B8014FEA104088F80200206800EB66
:101B80000510D0F8B8014FEA106088F8030020680B
:101B900000EB0510D0F8BC0188F80400206800EBC9
:101BA0000510D0F8BC014FEA102088F80500206825
:101BB00000EB0510D0F8BC014FEA104088F8060091
:101BC000206800EB0510D0F8BC014FEA106088F8DF
:101BD0000700206814BF00F1100100F10C01002083
:101BE0000B681A430A60BDE8F08100BF04F12401CC
:101BF00001204FF480220B681A430A60BDE8F0818F
:101C0000C16889077FF47AAF04F1240101204FF401
:101C100000120B681A430A60BDE8F0812DE9F04F0D
:101C200081B0044600684669D0F804908768D0F80F
:101C30000CB0D0F810A0D0F81880F10704D100251E
:101C400030071DD424E000BFF90710D00121BA07E6
:101C5000816009D4780700F1AF80380700F1B680C1
:101C6000204600F0DDFA02E0204600F0DBFA002515
:101C7000F80500F18780F80300F1B180300707D53F
:101C80001BF0100004D0206845F400751021C160DD
:101C9000700708D51BF0080005D020680821C16036
:101CA000204600F06BFAB00706D52068C0688007B0
:101CB00002D0204600F064FA700607D51AF0100032
:101CC00004D0206845F4806510210161B00608D574
:101CD0001AF0080005D0206808210161204600F0B4
:101CE0006BFAF00606D520680069800702D020460E
:101CF00000F064FAB00308D519F0100005D0206890
:101D000010214160204600F05BFAF00308D519F07D
:101D1000080005D0206808214160204600F08CFAB8
:101D2000300440F19B805FEA497040F1948006F4F2
:101D3000807008EA102028435FEA8871014648BF96
:101D400041F00201B20558BF01465FEA48700D46F6
:101D500048BF45F00405700558BF0D46300540F1F9
:101D60007A8018F0700000F076801038000905289D
:101D70006CD8DFE800F003595D61656945F008053E
:101D800064E000BF20684FF48071BA0581600BD415
:101D9000780515D438051DD4204600F045FAF8031F
:101DA0007FF56CAF1BE000BF204600F03FFAF80360
:101DB0007FF564AF13E000BF4FF4006558E700BF44
:101DC00005F50055F8037FF559AF08E04FF480554D
:101DD0004EE700BF05F58045F8037FF54FAF20685B
:101DE0004FF48031BA0381600AD4780310D43803E9
:101DF00014D4204600F01CFA30073FF541AF47E706
:101E0000204600F017FA30073FF53AAF40E700BF31
:101E100005F5004530073FF533AF39E705F5803567
:101E200030073FF52DAF33E745F010050EE000BF5A
:101E300045F020050AE000BF45F0400506E000BF80
:101E400045F0800502E000BF45F480752068816997
:101E500021F07001816120680421416055B1606A00
:101E600040EA05012046616201B0BDE8F04FFFF78E
:101E700023BE00BF01B0BDE8F08F0000B0B5002860
:101E800042D00446006846F20041C4F20001884294
:101E90000DD046F60001C4F20001884207D049F691
:101EA0009050C0F600004FF48F7105F00DFB207EBE
:101EB00002282BD2607E022833D2A07E02283BD299
:101EC000E07E022843D2207F02284BD2607F022886
:101ED00053D2A068800007D049F69050C0F60000A9
:101EE00040F2251105F0F0FAE0684FEA306004286E
:101EF00050D220694FEA3040102858D26069B0F5BE
:101F0000E00F60D16BE000BF0120B0BD49F69050FA
:101F1000C0F6000040F21F1105F0D6FA607E0228DC
:101F2000CBD349F69050C0F600004FF4907105F005
:101F3000CBFAA07E0228C3D349F69050C0F6000029
:101F400040F2211105F0C0FAE07E0228BBD349F629
:101F50009050C0F600004FF4917105F0B5FA207F63
:101F60000228B3D349F69050C0F6000040F2231186
:101F700005F0AAFA607F0228ABD349F69050C0F66C
:101F800000004FF4927105F09FFAA0688000A3D181
:101F9000AAE700BF49F69050C0F600004FF49371D5
:101FA00005F092FA20694FEA30401028A6D349F68E
:101FB0009050C0F6000040F2271105F085FA6069E4
:101FC000B0F5E00F0BD04FEA3050072807D349F6A1
:101FD0009050C0F600004FF4947105F075FA6068F7
:101FE0000138B0F5806F07D349F69050C0F6000075
:101FF00040F2291105F068FA94F8200010B9204643
:1020000000F06EF82068016841F00101016000F005
:10201000E1FF054620684168C90705D100F0DAFFF5
:10202000401B0B28F6D310E0016821F0020101608B
:1020300000F0D0FF054600BF2068416889070DD534
:1020400000F0C8FF401B0B28F6D3606A052140F45E
:1020500000306062012084F82010B0BD217E02684B
:10206000012922F0800208BF80320260617E02688E
:10207000012922F0400208BF40320260A17E0268BE
:10208000012922F0200208BF20320260E17E0268AE
:10209000012922F0100218BF10320260217F02686D
:1020A000012922F0080208BF08320260617F02683D
:1020B000012922F0040208BF04320260D4E901C2FF
:1020C000D4E9033561691A432A431143ACF1010293
:1020D0001143C16100200121606284F82010B0BD6D
:1020E00080B586B0016846F20040C4F2000081422B
:1020F00002D006B080BD00BF002143F6300201913E
:10210000C4F20202136900F5CE3043F0007313618C
:10211000136903F000730193019B0191136843F06D
:1021200001031360126802F001020192019A4FF458
:10213000C05201920222CDE902210321049109211A
:10214000059101A900F07CFD13200021002201F07F
:1021500035FA132001F016FA14200021002201F0B4
:102160002DFA142001F00EFA16200021002201F0B1
:1021700025FA162001F006FA06B080BD704700006F
:1021800010B540F2780440F2D842C2F20004C2F224
:10219000000200212346FFF793FC002818BF10BD62
:1021A000D4E90012E079C4E9021200281CBF94EDC2
:1021B000020B84ED040B10BD704700007047000057
:1021C00070470000B0B5044690F8200001281DD1EA
:1021D000022084F820002068016821F001010160DC
:1021E00000F0F8FE054600BF20684068C00713D025
:1021F00000F0F0FE401B0B28F6D3606A40F400307C
:102200006062052084F820000120B0BD606A40F4BF
:10221000002060620120B0BD00206062B0BD0000FF
:1022200070470000704700007047000070470000D2
:1022300070470000704700007047000070B504460A
:1022400000284FF001003FD00D46E9B3286816463C
:102250004FEAB0000F2839D8012101FA00F04AF600
:10226000AB21084232D0686840F0020002283AD11F
:102270006FF01000064207D049F6C850C0F60000C3
:1022800040F2CE3105F020F9607901284FF00200CC
:1022900008BF70BD2071206806F01002016840F68A
:1022A000FE73D5E900659340994345EA06039340E0
:1022B00019430160C0210368914023EA01010160D4
:1022C000012020710020607170BD00BF49F6C85028
:1022D000C0F600004FF4737105F0F6F8686840F03E
:1022E00002000228C4D049F6C850C0F6000040F2EF
:1022F000CD3105F0E9F86FF010000642BCD1C3E71C
:10230000002804BF0120704710B50446006847F25A
:102310000041C4F20001884207D049F6C850C0F617
:10232000000040F2171105F0CFF8207920B9002005
:102330006071204600F008F8022020710020012181
:102340002061217110BD000080B586B047F20041C8
:102350000068C4F20001002288420592049201D074
:1023600006B080BD43F630000092C4F2020003695B
:1023700043F000530361036903F000530093009B93
:102380000092036843F001030360006800F001005D
:1023900000900098302001900320CDE9020201F561
:1023A000C63001A900F04CFC06B080BDF0B581B08C
:1023B0000746002000908FB36FF010001C461546B2
:1023C0000E46014207D049F6C850C0F6000040F260
:1023D000273105F079F8082D24D80120A84040F2D3
:1023E000111108421ED04FF6F170844207D349F60E
:1023F000C850C0F6000040F2293105F065F8386891
:10240000002E00900098284414BF1430083000902B
:1024100000980460002001B0F0BD00BF012001B0B1
:10242000F0BD00BF49F6C850C0F600004FF44A7135
:1024300005F04AF84FF6F1708442E0D3D7E7000088
:10244000B0B548B304466FF010000D46014207D006
:1024500049F6C850C0F600004FF4DE7105F034F8BC
:10246000607901284FF0020008BFB0BD20712068DC
:1024700005F01001012203688A401A4302600268D5
:1024800065B13C2302F4701203FA01F18A420DD1C6
:10249000416841F0020108E00120B0BD02F03C01BA
:1024A0003C2903D1416841F00101416001202071C4
:1024B00000206071B0BD000070B5866D044600F06C
:1024C00089FD94F8351002292ED105462068216C2B
:1024D000026822F016020260426922F08002426124
:1024E00009B9A16C19B1016821F008010160016806
:1024F00021F0010101600068C00708D000F06AFD0A
:10250000401B052818D820680068C007F6D1E06D88
:102510003F2101FA00F0B060012084F8350000206E
:10252000002184F8341070BD8020606501200021F6
:1025300084F8341070BD00BF20206065032084F84B
:102540003500002184F8341070BD000090F835107B
:10255000022909D1052180F835100068016821F0B1
:102560000101016000207047802141650120704712
:10257000F0B581B004460020009040F21400C2F291
:1025800000000268D4E9166048F2B51337680821E4
:10259000C1F64E3381403942A2FB03250CD022689C
:1025A00013685B0708D5136823F004031360B16058
:1025B000616D41F00101616501218140394208D01E
:1025C00022685269120604D5B160616D41F00201C2
:1025D000616504218140394208D02268126892075F
:1025E00004D5B160616D41F0040161651021814045
:1025F000394217D020680268120713D5B16002680B
:102600000168520308D4C90508D4016821F0080103
:102610000160216C21B905E0080343D4216C09B1A4
:1026200020468847E16D202000FA01F23A4245D069
:1026300020680368DB0641D5B26094F83530026843
:10264000052B1FD122F016020260426922F080029F
:102650004261226C0AB9A26C1AB1026822F0080227
:1026600002603F208840B060012084F83500216D71
:102670000020002984F8340058D02046884701B053
:10268000F0BD00BF0168520310D4C90512D401681F
:1026900021F010010160012084F83500002084F849
:1026A000340007E0A16C0029BAD1BBE7080301D4CC
:1026B000616C00E0E16B09B120468847606DA8B30A
:1026C000606DC0072ED0052084F835002068A90A67
:1026D000026822F001020260009A01328A420092EE
:1026E0001AD80268D20717D0009A01328A420092A3
:1026F00012D80268D2070FD0009A01328A420092A3
:102700000AD80268D20707D0009A01328A420092A2
:1027100002D80268D207DFD1012084F835000020FA
:1027200084F83400E16C09B12046884701B0F0BD5F
:102730002DE9F041044600F04DFCECB1054620685F
:1027400046F20F41C4F20201884219DC46F26F01E1
:10275000C4F20201884229DC46F23F01C4F20201C0
:10276000884243DC46F21001C4F20201884268D07C
:1027700046F2280160E000BF0120BDE8F08100BF03
:1027800046F26F41C4F2020188421FDC46F23F412B
:10279000C4F20201884233DC46F21041C4F2020165
:1027A00088424ED046F2284146E000BF46F29F01E3
:1027B000C4F2020188422DDC46F27001C4F202012B
:1027C00088423ED046F2880136E000BF46F29F4183
:1027D000C4F20201884227DC46F27041C4F20201D1
:1027E00088422ED046F2884126E000BF46F24001E2
:1027F000C4F20201884224D046F258011CE000BF16
:1028000046F24041C4F2020188421AD046F25841D1
:1028100012E000BF46F2A001C4F20201884210D0CB
:1028200046F2B80108E000BF46F2A041C4F202013E
:10283000884206D046F2B841C4F20201884240F014
:102840007F816068B0F1606F0AD04FEA706007283E
:1028500006D349F61D50C0F60000B82104F034FE3E
:10286000A068002818BF402840F0DC80E06840F4F1
:102870000070B0F5007F40F0E180206940F4806096
:10288000B0F5806F40F0E8806069002818BFB0F5AF
:10289000006F40F0E980A069002818BFB0F5005F24
:1028A00040F0EE80E069002818BF202840F0F48056
:1028B000206A4FEA3040042806D2606A40F00401E2
:1028C00004290DD1A8B92AE049F61D50C0F6000030
:1028D000BF2104F0F9FD606A40F004010429F1D041
:1028E00049F61D50C0F60000C02104F0EDFD606AFD
:1028F000A8B1A06A042880F0DB80E06A4FEAF050BB
:10290000042880F0E280206B4FEA7050042806D340
:1029100049F61D50C0F60000C72104F0D5FD022085
:1029200084F835000020216884F83400086820F01D
:10293000010008600868C0070AD000BF00F04AFB29
:10294000401B052800F2D08021680868C007F5D137
:10295000086848F23F02CFF21002D4E90135024084
:1029600004F10C0E9EE8C1511A432A431043304330
:10297000384340EA0800626A40EA0C00042A40EA50
:102980000E0321D1D4E90A5E206B4EEA0302104304
:1029900008604869BEF1000F20F0030040EA05001E
:1029A00040F0040C16D0B8F5005F00F0A580B8F137
:1029B000000F40F0B380022D00F0B480012D00F034
:1029C000A7803DB9AEE000BF0B60486920F007006A
:1029D00040EA020C6FF00F004AF6AB2250FA81F089
:1029E000CAF6AA22A0FB02231A0949F66043C0F6E0
:1029F00000039A5C40F2FF335F284FF03F00C1F8BC
:102A000014C021EA030100FA02F088BF0431C4E9CE
:102A100016128860002301220020636584F83520A7
:102A2000BDE8F08180283FF421AF49F61D50C0F683
:102A30000000B92104F048FD18E700BF49F61D5019
:102A4000C0F60000BA2104F03FFD206940F4806028
:102A5000B0F5806F3FF418AF49F61D50C0F6000086
:102A6000BB2104F031FD0FE7B0F5805F3FF413AFF9
:102A700049F61D50C0F60000BC2104F025FD0AE710
:102A8000B0F5804F3FF40EAF49F61D50C0F6000080
:102A9000BD2104F019FD05E7B0F5807F3FF408AFD4
:102AA00049F61D50C0F60000BE2104F00DFDFFE602
:102AB00049F61D50C0F60000C52104F005FDE06A8E
:102AC0004FEAF0500428FFF41EAF49F61D50C0F63F
:102AD0000000C62104F0F8FC206B4FEA7050042877
:102AE000BFF416AF1BE700BF03222023032063655A
:102AF00084F83520BDE8F081032D3FF66BAF01224D
:102B000040230120DFE805F0020E020485E700BF44
:102B1000AEF1C070B0FA80F0400905E0032D06D395
:102B20007FF458AFCEF3006000283FF453AF01228A
:102B300040230120636584F83520BDE8F08100BFA3
:102B400049F61D50C0F60000B72104F0BDFC6068D6
:102B5000B0F1606F7FF479AE82E600002DE9F041BC
:102B600014460746D0F85880581E4FF6FF721D468F
:102B700090420E4607D349F61D50C0F6000040F2C1
:102B8000CB1104F0A1FC97F83400012833D00120C8
:102B900087F8340097F83500012829D1022087F8FA
:102BA0003500002078653868B9683A6CFB6D0768B5
:102BB000402927F4802731460760456004BF21463D
:102BC000344681603F219940C460C8F8081001680C
:102BD00041F0160101601AB1016841F0080101607D
:102BE000016841F0010101600020BDE8F08100BFF3
:102BF000002087F834000220BDE8F081B0B504461B
:102C000000F0E8F9054640F20C00C2F2000000783E
:102C1000611C18BF044400BF00F0DCF9401BA04257
:102C2000FAD3B0BD7047000043F61441C4F201016D
:102C30000A68024214BF08607047FFF7F3BF000044
:102C40002DE9F04F83B0044600F13E4000F1FF70E3
:102C50004FEAB027092F0D4606D349F6E440C0F6E7
:102C60000000AC2104F030FC28680021B1EB104FCB
:102C700040F0188180B2002800F014816868B0F537
:102C8000881F80F21B81122800F23281012101FA93
:102C900000F00F21C0F20601084200F0298105F181
:102CA0001000019041F60040C4F20200082143F6F2
:102CB0000049844208BF0721C4F20109072F38BF29
:102CC00039464FF0010C4FF0030E4FF0000A4FF061
:102CD000000B0027009107E001370BF1040B102FC8
:102CE0000AF1020A00F0DA8028680CFA07F810EA04
:102CF000080FF1D0686800F003014A1E012A07D9C5
:102D0000032929D100F00301022941D06DE000BF61
:102D1000EA68042A0ED349F6E440C0F60000C02158
:102D200004F0D2FB6868EA684FF0030E4FF0010C24
:102D300000F00301A3680EFA0AF6B34302FA0AF29E
:102D40001A43A2606268C0F3001322EA0802BB4083
:102D50001A4362600329D5D0A96803290CD349F628
:102D6000E440C0F60000D12104F0AEFBD5E901013A
:102D70004FF0030E4FF0010CE2680EFA0AF39A438B
:102D800001FA0AF11143E16000F0030102292CD19C
:102D900001980068102806D281B249F2FF7222FA27
:102DA00001F1C9070CD149F6E440C0F60000DE216C
:102DB00004F08AFB01984FF0030E4FF0010C02E083
:102DC0004FA101EB80006FF0030101EA570121449C
:102DD00000680A6A0BF01C030F269E40B24398401D
:102DE00010430862686800F0030122680EFA0AF3D3
:102DF0009A4301FA0AF1114310F4403F21603FF475
:102E00006BAF002043F644010290C4F2020108684F
:102E10004FF6084640F4804008600868CFF6FF7619
:102E200000F480400290029827F003004844815942
:102E30000BF00C020F2393409943009B03FA02F21C
:102E400011438151D9F80800696840EA080243F645
:102E50000C46CB0258BF20EA0802C9F80820C4F289
:102E6000010630688B0240EA080258BF20EA0802D7
:102E70003260D9F804008B0340EA080258BF20EA08
:102E80000802C9F80420D9F80000C90340EA080282
:102E900058BF20EA0802C9F800201DE703B0BDE8CA
:102EA000F08F00BF49F6E440C0F60000AD2104F009
:102EB0000BFB6868B0F5881FFFF6E5AEB0F5081F9C
:102EC0000CDAB0F5881F3FF4EAAEB0F5901F3FF47E
:102ED000E6AEB0F5041F3FF4E2AE09E03FF4DFAE2A
:102EE000B0F5441F3FF4DBAEB0F5481F3FF4D7AE5A
:102EF00049F6E440C0F60000AE2104F0E5FACEE663
:102F000000000000010000000200000003000000BB
:102F1000040000000500000006000000070000009B
:102F200008000000090000000A0000000000000086
:102F30000C00000000000000000000000F00000076
:102F4000B0B50C46054639B949F6E440C0F6000074
:102F50004FF4BE7104F0B8FA2869204018BF012070
:102F6000B0BD0000B0B50C46054639B949F6E4409D
:102F7000C0F600004FF4DB7104F0A6FA686900EABD
:102F8000040124EA000040EA0140A861B0BD00004D
:102F900070B516460C46054621B16EB1012E0FD113
:102FA000AC6170BD49F6E440C0F6000040F29D11EE
:102FB00004F08AFA002EF1D12404AC6170BD00BF88
:102FC00049F6E440C0F600004FF4CF7104F07CFAFB
:102FD000AC6170BD40F63840C2F200000068704736
:102FE00070B5002800F08A800446006845F2004170
:102FF000C4F20001884213D045F60001C4F200017A
:1030000088420DD045F60041C4F20001884207D045
:1030100049F60060C0F6000040F2C91104F054FA0D
:10302000606841F680210138C0F20601884267D20B
:10303000A06840F48040B0F5804F6FD1E068B0F5F3
:10304000806F77D2206940F40040B0F5404F40F0E7
:1030500080806069022880F08880A0696FF0FE019E
:10306000084207D049F60060C0F6000040F2CF11D8
:1030700004F02AFAE06940F04000402840F0BC80AB
:10308000206A40F08000802840F0C48094F83D0021
:1030900028B9002084F83C00204600F011F92420D3
:1030A00084F83D002068016821F001010160016899
:1030B00041F400410160016821F40041016000F029
:1030C000EBFB48F28041C0F21E0140F60013D4F839
:1030D00004E088424FF00001C0F23D0348F2A16CC9
:1030E0004FF0000238BF01219842C0F2010C38BFF6
:1030F0000122E64538BF0A46002A45D0012070BDAE
:1031000049F60060C0F600004FF4E57104F0DCF908
:10311000A06840F48040B0F5804F8FD049F6006041
:10312000C0F6000040F2CB1104F0CEF9E068B0F533
:10313000806F87D349F60060C0F600004FF4E67157
:1031400004F0C2F9206940F40040B0F5404F3FF46C
:1031500080AF49F60060C0F6000040F2CD1104F0E7
:10316000B3F960690228FFF478AF49F60060C0F651
:1031700000004FF4E77104F0A7F9A0696FF0FE01B9
:1031800008427FF46FAF75E74DF68361C4F21B31DF
:10319000A0FB01122168950C4B684FF4967623F042
:1031A0003F0343EA9243754344F6D3564B60C1F262
:1031B00062060B6AA5FB0656B50923F03F03E645F8
:1031C00038BF950C6A1C1A430A62CA6948F2A066A5
:1031D0004CF6FF73C0F20106B64522EA030227D877
:1031E00001384FEA4E03B0FBF3F001306FF31F30AC
:1031F000042898BF04203AE049F60060C0F60000B9
:103200004FF4E87104F060F9206A40F080008028F3
:103210003FF43CAF49F60060C0F6000040F2D11127
:1032200004F052F994F83D0000287FF438AF30E7FD
:10323000A368013863B119230EFB03F3B0FBF3F06D
:1032400001306FF31F3078B100F5804008E000BF17
:103250000EEB4E03B0FBF3F001306FF31F3028B1DB
:1032600000F5004003E000BF012000E00120104312
:10327000C8610868D4E9072320F0C0001043184350
:103280000860886848F2FF3204F10C0690434CCE87
:1032900018431043A5698860C86820F0FF003043D8
:1032A0002843C860086840F0010008600020202121
:1032B000206484F83D10206384F83E0070BD000057
:1032C000B0B586B0016845F20040C4F2000081420A
:1032D00002D006B0B0BD00BF002543F63004019512
:1032E000C4F20204216800F5D83041F002012160E7
:1032F000216801F0020101910199C021019112217F
:10330000029101210391032104910421059101A956
:10331000FFF796FC0095206940F4001020612069B9
:1033200000F400100090009806B0B0BD40F20C0010
:1033300040F63841C2F20000C2F2000100780A688B
:10334000104408607047000080B543F60040C4F2A6
:103350000200016841F400710160016841F480617C
:103360000160016841F480710160032000F066F99A
:103370000F2000F005F800F027F8002080BD0000C5
:1033800070B540F20C06C2F2000640F21401327829
:10339000C2F200014FF47A730968B3FBF2F20446FB
:1033A000B1FBF2F1084600F063FD0F2C4FF0010570
:1033B00008D838B94FF0FF3021460022002500F030
:1033C000FDF87460284670BD80B582B0002043F6D9
:1033D00040010190C4F202014A6842F480424A600E
:1033E0004A6802F480420192019A00900868002223
:1033F00040F0805008600868002100F08050009084
:103400000098512000F0DAF8512002B0BDE8804069
:1034100000F0B8B8002804BF0120704770B504461A
:103420000E46006844F6FF71C4F20001154688425A
:1034300012DC44F20041C4F20001884226D044F676
:103440000001C4F20001884220D044F60041C4F2D9
:10345000000188421AD011E045F20001C4F20001D7
:10346000884213D041F20001C4F2010188420DD01C
:1034700041F20041C4F20101884207D049F6AB6035
:10348000C0F600004FF4167104F01EF86FF40060EF
:10349000054207D049F6AB60C0F6000040F25B2160
:1034A00004F012F8102E43D2A06840F48050B0F51A
:1034B000805F4BD1E06940F40040B0F5004F53D13C
:1034C00094F8410028B9002084F84000204602F01A
:1034D000C1FF242084F841002068C16821F4005114
:1034E000C160204603F03EFF2068016921F490414D
:1034F0000161416921F02A014161016921F00F0157
:103500000161016931430161C16821F40061C16059
:10351000C1682943C160C16841F40051C160002005
:103520002021606484F8411084F84210606370BD0B
:1035300049F6AB60C0F600004FF4177103F0C4FF0A
:10354000A06840F48050B0F5805FB3D049F6AB601E
:10355000C0F6000040F25D2103F0B6FFE06940F4E0
:103560000040B0F5004FABD049F6AB60C0F60000AC
:1035700040F25E2103F0A8FF94F841000028A8D192
:10358000A1E70000B0F1FF3F10DDC1B200F01F0065
:10359000012202FA00F04EF20012CEF2000242EADC
:1035A000D10121F003010860704700BF49F6555072
:1035B000C0F60000BC2103F087BF000070B51546BF
:1035C0000E46102A044606D349F65550C0F60000B0
:1035D000A82103F079FF102E06D349F65550C0F606
:1035E0000000A92103F070FF4EF60C50CEF200004F
:1035F00001684FF0FF33C1F3022181F00702042A72
:1036000028BF0422033903FA02F238BF002126EA58
:1036100002028A4003FA01F104F00F0325EA0101D6
:10362000043B1143184409010C3004F16042B4F129
:10363000FF3FC8BF02F56440017070BD10B504467D
:103640000338052806D349F65550C0F600009021EE
:1036500003F03AFF4EF60C50CEF2000001684FF630
:10366000FF02114064F30A2141F0806141F0FD71D5
:10367000016010BD2DE9F041002800F0DB80044618
:1036800000680D4601380F2807D349F6AC40C0F654
:10369000000040F25A2103F017FF082D07D349F626
:1036A000AC40C0F6000040F25B2103F00DFF43F692
:1036B0000808C4F20208D8F8F80300F00700A8428E
:1036C00008D288F8F853D8F8F80300F00700A842A9
:1036D00040F0B080206881071ED5410705D5D8F895
:1036E000001041F4E051C8F80010010705D5D8F8E2
:1036F000001041F46041C8F80010A1686FF00702A3
:1037000002EB3112082A80F0B780D8F8002022F0AE
:10371000F0021143C8F80010C00765D1D8F8F803CB
:1037200000F00700A84207D988F8F853D8F8F80342
:1037300000F00700A8427DD1206841071AD5E16852
:103740006FF0030202EBB122042A0CD34FEAB1223C
:103750004AB149F6AC40C0F6000040F2C32103F084
:10376000B3FE2068E168D8F8002022F4E05211434B
:10377000C8F8001000071AD520696FF0030101EBAB
:10378000B02104290BD34FEAB02141B149F6AC4036
:10379000C0F6000040F2CA2103F096FE2069D8F876
:1037A000001021F4604141EAC000C8F8000000F0B8
:1037B0009BF8D8F8001049F64842C1F30311C0F64F
:1037C0000002515C40F2140220FA01F140F21000B4
:1037D000C2F200000068C2F200021160FFF7D0FDE3
:1037E0000020BDE8F08100BF6068042808D349F6D6
:1037F000AC40C0F6000040F2852103F065FE606831
:10380000811E022908D258F8081C89015CBF0120DA
:10381000BDE8F08112E000BF012807D158F8081C6C
:1038200089035CBF0120BDE8F08107E058F8081C5F
:10383000890703D40120BDE8F08100BFD8F800104B
:1038400021F003010843C8F80000FFF7C3FB064658
:1038500041F28837D8F80000616800F00C00B0EB46
:10386000810F3FF45BAFFFF7B5FB801BB842F1D986
:103870000320BDE8F08100BF4FEA3112002A3FF477
:1038800044AF49F6AC40C0F6000040F27E2103F0A0
:103890001BFE2068A16838E740F2140043F60801D7
:1038A000C2F20000C4F202010068096849F65842F9
:1038B000C1F38221C0F60002515CC840704700008D
:1038C00040F2140043F60801C2F20000C4F2020103
:1038D0000068096849F65842C1F34231C0F6000257
:1038E000515CC8407047000010B543F60404C4F2B0
:1038F0000204606800F00C0142F200400829C0F2A6
:10390000F40007D0042918BF10BD41F20020C0F216
:103910007A0010BD216801F03F0221682368490246
:10392000C3F3881106D4A1FB00010023FCF7AEFC11
:1039300007E000BF41F20020C0F27A004843B0FB2C
:10394000F2F021680222C1F3014102EB4101B0FB18
:10395000F1F010BD2DE9F04182B0002800F0C080E8
:1039600004460068102807D349F6AC40C0F60000B2
:10397000E62103F0A9FD206843F60006C007C4F263
:10398000020612D06068002818BFB0F5803F40F0F2
:103990002381B06800F00C00042815D13068800342
:1039A00003D56068002800F09B802078800753D5FD
:1039B000E068022822D2206920282AD2B06810F0BC
:1039C0000C0F32D13BE000BFB06800F00C000828BB
:1039D00002D170684002E1D46068B0F5803F07D042
:1039E000B0F5A02F40F06C81306840F4802030604A
:1039F000306840F4803030606CE100BF49F6AC4084
:103A0000C0F6000040F21D1103F05EFD2069202881
:103A1000D4D349F6AC40C0F600004FF48F7103F0E8
:103A200053FDB06810F00C0F09D0B06800F00C0026
:103A3000082840F0AD807068400200F1A98030682D
:103A4000800702D5E06801284AD13068216920F05A
:103A5000F80040EAC10030602078000744D42078A4
:103A6000400763D4A069032808D349F6AC40C0F6E8
:103A7000000040F2CD1103F027FDA06958B3B168F2
:103A800001F00C01082940F0C380012828D070689B
:103A9000E16900F480028A4222D1216A00F03F02EB
:103AA0008A421DD147F6C071626A0140B1EB821FA4
:103AB00016D1A26A0023CFF6FF7303EBC23200F4E3
:103AC00040316FF30F0291420AD1E16A00F0706059
:103AD000B0EB016F04D1002002B0BDE8F08100BF5F
:103AE000012002B0BDE8F0816069022808D349F6E0
:103AF000AC40C0F600004FF4AF7103F0E5FC606924
:103B0000002840F26000C4F2472071D00121C0F8C3
:103B1000201EFFF75FFA0546706F80079FD4FFF7FE
:103B200059FA401B0228F7D9E1E000BFA068052838
:103B300000F29E80012101FA00F010F0230F00F046
:103B40009780306C10F080580AD100200190306CC2
:103B500040F080503064306C00F08050019001984B
:103B600047F20007C4F200073868C00526D4386859
:103B700040F480703860FFF72DFA05463868C005BC
:103B80001CD4FFF727FA401B0228F7D9AFE000BF8B
:103B9000E068002856D06020C4F24720012140F898
:103BA000601CFFF717FA0546306880073FF54DAFF8
:103BB000FFF710FA401B0228F6D998E0A068012808
:103BC00005D0052862D1306F40F004003067306FB7
:103BD00040F00100306763E0B0F5A02F3FF4D9AEAC
:103BE00049F6AC40C0F60000EB2103F06DFCD0E6D6
:103BF0000021C0F8201EFFF7EDF90546706F800721
:103C00007FF52DAFFFF7E6F9401B0228F6D96EE0ED
:103C1000022871D1E06940F48000B0F5800F40F0D7
:103C2000AB80206A02383E2880F0B380606A323868
:103C3000B0F5BF7F00F2BB80A06A082840F2C280C6
:103C400008E100BF6020C4F24720002140F8601C5A
:103C5000FFF7C0F9054600BF306880077FF5FCAE6E
:103C6000FFF7B8F9401B02284FF00300F4D933E7FF
:103C700049F6AC40C0F600004FF4C57103F024FCD7
:103C8000306C10F080583FF460AF69E7316F002866
:103C900021F001013167316F21F0040131673FD01C
:103CA000FFF798F9054641F2883700BF306F80076B
:103CB00048D4FFF78FF9401BB842F7D917E000BF8F
:103CC0003168002821F480313160316821F480218D
:103CD000316041D0FFF77EF9054600BF30688003B0
:103CE0003FF563AEFFF776F9401B6428F6D9032051
:103CF00002B0BDE8F08100BF6020C4F2472000217F
:103D00000160FFF767F90446306880017FF5E3AE94
:103D1000FFF760F9001B02284FF00300F4D9DBE63F
:103D2000FFF758F9054641F2883700BF306F80072A
:103D300008D5FFF74FF9401BB8424FF00300F5D903
:103D4000CAE600BFB8F1000F7FF48CAE306C20F0F3
:103D50008050306486E600BFFFF73CF9054600BF9F
:103D6000306880037FF521AEFFF734F9401B6428EB
:103D70004FF00300F4D9AFE649F6AC40C0F60000BE
:103D80004FF4EB7103F0A0FB206A02383E28FFF4E9
:103D90004DAF49F6AC40C0F6000040F2D71103F039
:103DA00093FB606A3238B0F5BF7F7FF645AF49F6C6
:103DB000AC40C0F600004FF4EC7103F085FBA06A44
:103DC000082847D8012101FA00F010F4AA7F41D059
:103DD000E06A02380E2807D349F6AC40C0F600006E
:103DE0004FF4ED7103F070FB6027C4F24727002009
:103DF0003860FFF7EFF805463068800108D5FFF717
:103E0000E9F8401B02284FF00300F5D964E600BF33
:103E100004F11C052FCD08430021CFF6FF7140EAC5
:103E2000821001EBC3316FF30F0140EA05600843D4
:103E3000706001203860FFF7CDF8044630688001DB
:103E40003FF549AEFFF7C6F8001B02284FF003000C
:103E5000F4D941E649F6AC40C0F6000040F2D91171
:103E600003F032FBE06A02380E28B5D2BCE700004E
:103E7000411E0020B0EB116F1CBF012070474EF2B5
:103E80001002CEF2000251604EF62351CEF2000134
:103E9000F0230B700721906011607047704700009D
:103EA00070470000F0B581B00746006840F200425C
:103EB00040F48060C4F2010290420D462ED1286881
:103EC00040F40060B0F5006F36D1686840F480605F
:103ED000B0F5806F3ED1A8684FEA3020042846D262
:103EE000E868B0F5807F4ED2286940F48050B0F584
:103EF000805F56D1686940F40050B0F5005F5ED134
:103F0000E86940F48040B0F5804F66D197F83C00F6
:103F100001286ED1022001B0F0BD00BF49F67060EB
:103F2000C0F6000040F2E67103F0CEFA286840F4D3
:103F30000060B0F5006FC8D049F67060C0F60000B0
:103F400040F2E77103F0C0FA686840F48060B0F5B1
:103F5000806FC0D049F67060C0F600004FF4FD617C
:103F600003F0B2FAA8684FEA30200428B8D349F623
:103F70007060C0F6000040F2E97103F0A5FAE8684D
:103F8000B0F5807FB0D349F67060C0F6000040F213
:103F9000EA7103F099FA286940F48050B0F5805F27
:103FA000A8D049F67060C0F6000040F2EB7103F053
:103FB0008BFA686940F40050B0F5005FA0D049F674
:103FC0007060C0F6000040F2EC7103F07DFAE86921
:103FD00040F48040B0F5804F98D049F67060C0F64C
:103FE000000040F2ED7103F06FFA97F83C000128F1
:103FF00090D095E85F0023F47C5322F470521A436A
:1040000021F4F041114320F4E040084324F4C0417E
:1040100008433043E96920F480403A68084350641B
:10402000002087F83C0001B0F0BD0000B0B50446A8
:10403000006840F6FF72C4F2000290420D460FDCA9
:1040400040F2FF71C4F2000188421DDCB0F1804FE4
:1040500033D040F20041C4F2000188422DD09DE0EF
:104060004FF6FF71C4F2000188421BDC41F20001EF
:10407000C4F20001884220D041F20041C4F20001A4
:1040800088421AD08AE000BF40F60001C4F2000165
:10409000884212D040F60041C4F2000188420CD0A0
:1040A0007CE000BF0021C4F20101884205D040F24B
:1040B0000041C4F20101884270D128684FEA3010F3
:1040C000082807D349F67060C0F6000040F2AA71D4
:1040D00003F0FAF9686840F08000802807D049F6BC
:1040E0007060C0F6000040F2AB7103F0EDF994F897
:1040F0003C0001284FF0020008BFB0BD84F83D002D
:104100002068426881682B6822F070021A4341F2ED
:10411000FF73C4F20003984242600DDC40F2FF726C
:10412000C4F20002904215DCB0F1804F2AD040F278
:104130000042C4F2000223E040F2FF32C4F2010266
:10414000904213DC41F60002C4F20002904219D002
:10415000002213E040F60002C4F20002904211D0A7
:1041600040F60042C4F200020AE000BF44F200023E
:10417000C4F20102904205D040F20042C4F20102B2
:10418000904204D16A6821F08001114381600120CE
:1041900084F83D00002084F83C00B0BD49F6706012
:1041A000C0F6000040F2A97103F08EF928684FEACA
:1041B00030100828BFF486AF8CE70000002804BF49
:1041C00001207047B0B50446006841F6FF31C4F2E3
:1041D0000001884216DC40F6FF31C4F2000188423B
:1041E00026DD41F2FF31C4F2000188423CDC40F69A
:1041F0000041C4F2000188424ED041F20001C4F2F5
:10420000000147E040F2FF31C4F2010188421DDDA8
:1042100044F2FF31C4F20101884231DC40F2004136
:10422000C4F20101884237D044F2000130E000BFFF
:10423000B0F1804F30D040F20041C4F2000188421A
:104240002AD040F60001C4F2000123E041F600410B
:10425000C4F2000188421FD042F20001C4F2000102
:10426000884219D0002113E041F20041C4F200015C
:10427000884211D041F60001C4F200010AE000BFFB
:1042800044F20041C4F20101884205D044F6000125
:10429000C4F20101884273D1A0684FEA30100628A9
:1042A0007CD8012101FA00F010F0570F76D0206978
:1042B000002818BFB0F5807F40D12068B0F1804F52
:1042C00005D040F60041C4F20001884242D1E068C6
:1042D00038B949F63860C0F600004FF48B7103F02E
:1042E000F3F8A069251D40F0800080283AD194F8A9
:1042F0003D0028B9002084F83C00204600F058F822
:10430000022084F83D002068294602F02FFA01209F
:1043100084F8460084F83E0084F83F0084F84000AA
:1043200084F8410084F8420084F8430084F8440093
:1043300084F8450084F83D000020B0BDB0F5007F52
:10434000BBD049F63860C0F6000040F2151103F00A
:10435000BBF8B2E7E0684FF6FF7101388842B8D287
:10436000BFE700BF49F63860C0F6000040F2171101
:1043700003F0AAF894F83D000028C1D1BAE700BFC5
:1043800049F63860C0F6000040F2131103F09CF8C3
:10439000A0684FEA301006287FF683AF49F63860F0
:1043A000C0F600004FF48A7103F08EF87FE700003A
:1043B00010B582B00068B0F1804F15D00021C4F272
:1043C000010188422CD10020019043F64000C4F244
:1043D00002004168192441F001014160406800F089
:1043E0000100019001980FE00020009043F640008A
:1043F000C4F2020001681C2441F001010160006860
:1044000000F0010000900098204600210022FFF7F4
:10441000D5F8204602B0BDE81040FFF7B3B800BFA2
:1044200002B010BD10B50446006841F6FF31C4F279
:104430000001884216DC40F6FF31C4F200018842D8
:1044400026DD41F2FF31C4F2000188423CDC40F637
:104450000041C4F2000188424ED041F20001C4F292
:10446000000147E040F2FF31C4F2010188421DDD46
:1044700044F2FF31C4F20101884231DC40F20041D4
:10448000C4F20101884237D044F2000130E000BF9D
:10449000B0F1804F30D040F20041C4F200018842B8
:1044A0002AD040F60001C4F2000123E041F60041A9
:1044B000C4F2000188421FD042F20001C4F20001A0
:1044C000884219D0002113E041F20041C4F20001FA
:1044D000884211D041F60001C4F200010AE000BF99
:1044E00044F20041C4F20101884205D044F60001C3
:1044F000C4F20101884255D194F83D0001281CBF47
:10450000012010BD022084F83D00206841F2FF72B6
:10451000C168C4F20002904241F00101C1600DDCAB
:1045200040F2FF71C4F20001884215DCB0F1804F07
:104530002AD040F20041C4F2000123E040F2FF31F2
:10454000C4F20101884213DC41F60001C4F200010B
:10455000884219D0002113E040F60001C4F20001A6
:10456000884211D040F60041C4F200010AE000BFC9
:1045700044F20001C4F20101884205D040F200413A
:10458000C4F20101884206D1816801F007010629C1
:1045900004BF002010BD016841F00101016000204E
:1045A00010BD00BF49F63860C0F600004FF4E87156
:1045B00002F08AFFA0E70000B0B5044690F83C0086
:1045C00001284FF0020008BFB0BD0D46012184F85C
:1045D0003C1084F83D002A684F2A09DC1F2A13DDAD
:1045E000202A22D0302A20D0402A1ED014E000BF3A
:1045F0006F2A0DDD702A18D0B2F5805F15D0B2F5A4
:10460000005F12D008E000BF7AB1102A0DD003E09D
:10461000502A0AD0602A08D049F63860C0F6000057
:1046200041F2C34102F050FF2A6821684FF67773C8
:1046300088684F2A20EA030088604FF001001FDCE1
:104640001F2A4DDD202A4FD0302A4DD0402A40F07D
:104650007A8341F2FF70C4F20000814200F3EC80E3
:1046600040F2FF70C4F20000814200F39F81B1F17B
:10467000804F00F0D88140F20040C4F20000CFE14A
:104680006F2A47DD702A6FD0B2F5005F00F084809A
:10469000B2F5805F40F0578341F6FF30C4F200006E
:1046A00081424FF0000000F3D78040F6FF32C4F2A1
:1046B0000002914240F3428241F2FF32C4F2000212
:1046C000914200F35B8240F60042C4F20002914244
:1046D00000F0398341F20002C4F2000265E200BF3B
:1046E00012B1102A40F02F8341F2FF70C4F2000093
:1046F00081422BDC40F2FF70C4F20000814263DC97
:10470000B1F1804F00F0918040F20040C4F200000F
:1047100088E000BF502A63D0602A40F0148341F241
:10472000FF70C4F20000814200F3AE8040F2FF70DF
:10473000C4F20000814200F34581B1F1804F00F0E6
:104740008C8140F20040C4F2000083E140F2FF306F
:10475000C4F2010081425BDC41F60000C4F20000BB
:10476000814262D000205BE041F2FF70C4F20000A1
:10477000814200F3998040F2FF70C4F20000814250
:1047800000F32C81B1F1804F00F0818140F20040B4
:10479000C4F2000078E100BF40F6FF30C4F2000030
:1047A000814200F39180B1F1804F00F0A68040F289
:1047B0000040C4F20000814200F09F8040F60000FB
:1047C000C4F200008FE000BF40F60000C4F2000019
:1047D00081422AD040F60040C4F2000022E000BF2F
:1047E00041F2FF70C4F20000814200F3C38040F246
:1047F000FF70C4F20000814200F3FC80B1F1804FF1
:1048000000F08F8140F20040C4F2000086E100BF5A
:1048100040F20040C4F20100814206D044F20000A0
:10482000C4F20100814240F0B580886820F0700039
:10483000104340F0070084E240F2FF30C4F2010070
:10484000814200F3E38041F60000C4F2000081429F
:1048500000F0E9800020E1E040F2FF32C4F2010202
:10486000914240F37B8144F2FF32C4F20102914253
:1048700000F3908140F20042C4F20102914200F044
:10488000628244F200028EE140F2FF30C4F2010085
:10489000814200F3D58041F60000C4F2000081425D
:1048A00000F0DB800020D3E040F2FF30C4F20100D2
:1048B000814200F3DF8041F60000C4F20000814233
:1048C00000F0E5800020DDE040F60040C4F200008A
:1048D000814212D00020C4F2010081420DD040F28A
:1048E0000040C4F20100814207D049F63860C0F6AA
:1048F000000041F2EE4102F0E7FDA8684FEA3030D7
:10490000042807D349F63860C0F6000041F2F141AF
:1049100002F0DAFD68680A2805D80121814040F2DA
:10492000054211420AD1B0F5004F07D049F6386070
:10493000C0F6000041F2F24102F0C6FDE86810281E
:1049400008D349F63860C0F6000041F2F34102F0A6
:10495000BBFDE8682168D5E901238D681A4325F479
:104960007F4542EA002028438860886840F4804000
:10497000E7E100BF40F2FF30C4F20100814200F3E2
:10498000C38041F60000C4F20000814200F0C980FB
:104990000020C1E049F63860C0F6000041F2355110
:1049A00002F092FD21682A683FE700BF40F6000050
:1049B000C4F20000814236D040F60040C4F200004C
:1049C0002EE000BF40F60000C4F20000814244D057
:1049D00040F60040C4F200003CE000BF40F600009A
:1049E000C4F20000814252D040F60040C4F2000000
:1049F0004AE000BF40F60000C4F20000814200F02F
:104A0000908040F60040C4F2000087E040F2004091
:104A1000C4F20100814206D044F20000C4F2010059
:104A2000814240F0CF8068680A2800F2D7800121D7
:104A3000814040F20542114240F0DB80CEE000BFF1
:104A400040F20040C4F20100814206D044F200006E
:104A5000C4F20100814240F0EF8068680A2800F249
:104A6000F7800121814040F20542114240F0FB8075
:104A7000EEE000BF40F20040C4F20100814206D0E7
:104A800044F20000C4F20100814240F01181A868A4
:104A90004FEA3030042807D349F63860C0F60000EA
:104AA00041F2D94102F010FD68680A2805D80121B9
:104AB000814040F2054211420AD1B0F5004F07D0C3
:104AC00049F63860C0F6000041F2DA4102F0FCFC21
:104AD000E868102808D349F63860C0F6000041F2B3
:104AE000DB4102F0F1FCE8682168D5E901238D681B
:104AF0001A4325F47F4542EA0020284388608868ED
:104B000040F077001DE100BF40F20040C4F2010018
:104B1000814206D044F20000C4F20100814240F01C
:104B2000D78068680A2800F2DF800121814040F2C6
:104B30000542114240F0E380D6E000BFB1F1804F62
:104B400000F0018140F20042C4F20002914200F004
:104B5000FA8040F60002C4F2000226E041F600426C
:104B6000C4F20002914200F0EE8042F20002C4F270
:104B70000002914200F0E780002214E041F200427E
:104B8000C4F20002914200F0DE8041F60002C4F25D
:104B900000020AE044F20042C4F20102914200F035
:104BA000D28044F60002C4F20102914200F0CB80B0
:104BB00049F63860C0F6000041F2CF4102F084FCB3
:104BC000C0E000BF49F63860C0F6000041F2225153
:104BD00002F07AFC68680A287FF629AFB0F5004F2A
:104BE00007D049F63860C0F6000041F2255102F0C6
:104BF0006BFCE868102808D349F63860C0F600005E
:104C000041F2265102F060FCE86821686A680B6A8C
:104C10000D6A23F00A0325F001050D628D691A4320
:104C200025F0F00545EA001088610A62886840F0C6
:104C3000470020F0300084E049F63860C0F60000FC
:104C400041F2125102F040FC68680A287FF609AF71
:104C5000B0F5004F07D049F63860C0F6000041F2C9
:104C6000155102F031FCE868102808D349F6386085
:104C7000C0F6000041F2165102F026FCE8682168F7
:104C80006A680B6A0D6A23F0A00325F010050D6217
:104C90008D6943EA021225F4704545EA00308861C7
:104CA0000A62886840F0670020F0100049E000BF09
:104CB00049F63860C0F6000041F2D64102F004FC2B
:104CC000A8684FEA30300428BFF4E6AEECE600BF37
:104CD00049F63860C0F6000041F2025102F0F4FBE0
:104CE00068680A287FF621AFB0F5004F07D049F673
:104CF0003860C0F6000041F2055102F0E5FBE868BB
:104D0000102808D349F63860C0F6000041F2065179
:104D100002F0DAFBE86821686A680B6A0D6A23F022
:104D20000A0325F001050D628D691A4325F0F0058F
:104D300045EA001088610A62886840F0570020F058
:104D4000200088600020012184F83D10002184F8B3
:104D50003C10B0BD002804BF012070472DE9F0478A
:104D600004460D46006841F2FF71C4F2000188421A
:104D70000EDC40F2FF71C4F20001884216DCB0F193
:104D8000804F2CD040F20041C4F2000124E000BF6B
:104D900040F2FF31C4F20101884213DC41F6000108
:104DA000C4F2000188421AD0002113E040F600014D
:104DB000C4F20001884212D040F60041C4F2000162
:104DC0000AE000BF40F20041C4F20101884206D06F
:104DD00044F20001C4F20101884240F03981A06828
:104DE0004FEA3010062800F24181012101FA00F05B
:104DF00010F0570F00F03A812069002818BFB0F575
:104E0000807F33D1A06940F0800080283AD12868A3
:104E10000138032842D2A868013803284AD2A86979
:104E20000138032852D2686840F0020002285AD1A3
:104E3000686940F00200022862D1E8684FEAB000D9
:104E400004286AD2E8694FEAB000042872D22869BF
:104E500010287BD2286A102880F084802068261DC4
:104E6000B0F1804F40F08B808FE000BFB0F5007F45
:104E7000C8D049F63860C0F6000040F6DA3102F0DA
:104E800023FBBFE749F63860C0F6000040F6DB318F
:104E900002F01AFB286801380328BCD349F63860B1
:104EA000C0F6000040F6DC3102F00EFBA8680138C5
:104EB0000328B4D349F63860C0F6000040F6DD316F
:104EC00002F002FBA86901380328ACD349F6386028
:104ED000C0F6000040F6DE3102F0F6FA686840F0F5
:104EE00002000228A4D049F63860C0F6000040F65F
:104EF000DF3102F0E9FA686940F0020002289CD034
:104F000049F63860C0F600004FF43E6102F0DCFA6A
:104F1000E8684FEAB000042894D349F63860C0F638
:104F2000000040F6E13102F0CFFAE8694FEAB00044
:104F300004288CD349F63860C0F6000040F6E23110
:104F400002F0C2FA28691028FFF484AF49F63860ED
:104F5000C0F6000040F6E33102F0B6FA286A1028E5
:104F6000FFF47CAF49F63860C0F6000040F6E4314B
:104F700002F0AAFA2068261DB0F1804F05D040F655
:104F80000041C4F2000188425AD1E06838B949F6BC
:104F90003860C0F6000040F6E53102F095FA94F86A
:104FA0003D0028B9002084F83C00204600F068F855
:104FB000022084F83D00206844F207028168914392
:104FC0008160314601F0D2FB20684FF6FF7881689E
:104FD0008269D0F820E0D5E9006CD5E9023A46EACA
:104FE0000109AE6922EA080243EA06234FF6FC46AD
:104FF000B343D5E9076742EA0A0229691A4342EA3C
:10500000062242EA01112EF0AA026B6942EA0C0262
:1050100041EA073142EA0312C0F808908161026256
:10502000012084F8460084F83E0084F83F0084F8AC
:10503000420084F8430084F83D000020BDE8F0877A
:10504000E0684FF6FF7101388842A0D2A7E700BFA1
:1050500049F63860C0F6000040F6D83102F034FA64
:10506000A0684FEA301006287FF6BFAE49F63860D8
:10507000C0F6000040F6D93102F026FABCE6000086
:1050800080B586B0016840F20040C4F20000814261
:1050900002D006B080BD00BF002143F6300201916E
:1050A000C4F20202136900F5013043F002031361F8
:1050B000136903F002030193019B0191136843F00C
:1050C000040313601268012302F004020192019AA2
:1050D000C02201920222CDE9033101A90292059278
:1050E000FDF7AEFD1D2000210022FEF767FA1D200E
:1050F000FEF748FA06B080BD70470000B0B5044620
:105100000068C168026902EA0105A90720D468079E
:1051100034D428074AD4E80660D4E80777D12806B3
:1051200000F17F80680606D520686FF040010161BC
:10513000204600F0B9FCA80658BFB0BD21686FF04A
:10514000200220460A61BDE8B040FEF7A9BE00BFBC
:105150006FF002010161012121778069800703D08E
:105160002046FFF7C9FF05E0204600F08FF82046F3
:1051700000F072FB002020776807CAD520686FF026
:105180000401016102212177806910F4407F03D07E
:105190002046FFF7B1FF05E0204600F077F82046F3
:1051A00000F05AFB002020772807B4D520686FF064
:1051B0000801016104212177C069800704D02046DD
:1051C000FFF79AFF06E000BF204600F05FF8204698
:1051D00000F042FB00202077E8069ED520686FF0A3
:1051E0001001016108212177C06910F4407F03D0CC
:1051F0002046FFF781FF05E0204600F047F82046F3
:1052000000F02AFB00202077E8073FF488AF2068F1
:105210006FF001010161204600F012FC28067FF5C5
:1052200081AF20686FF0800101612046FEF736FEF5
:1052300068067FF580AF77E780B586B0016800200B
:10524000C4F20100814201D006B080BD002143F6C6
:1052500030020191C4F20202136800F5803043F07D
:1052600001031360126802F001020192019A4FF4E7
:10527000407201920222CDE902210491012105919F
:1052800001A9FDF7DDFC06B080BD000070470000FD
:105290002DE9F04F81B016460D460C2A044605D87C
:1052A0000120B04041F21111084209D13C2E07D033
:1052B00049F63860C0F6000041F2820102F004F9BC
:1052C000286840F01000702812D1A86840F0020051
:1052D00002281AD1286940F00400042822D194F849
:1052E0003C0001282AD1022001B0BDE8F08F00BFA8
:1052F00049F63860C0F6000041F2830102F0E4F89C
:10530000A86840F002000228E4D049F63860C0F6F0
:10531000000041F2840102F0D7F8286940F004004F
:105320000428DCD049F63860C0F6000041F285015F
:1053300002F0CAF894F83C000128D4D04FEAB60134
:105340000120032984F83C0000F26F81DFE801F0BE
:105350000220384E206841F6FF71C4F200018842F5
:1053600060DC40F6FF31C4F20001884200F3FE80A9
:10537000B0F1804F00F02A8140F20041C4F20001F8
:10538000884200F0238140F60001C4F200011BE1D5
:10539000206841F2FF71C4F2000188425ADC40F2F9
:1053A000FF71C4F20001884200F3F280B0F1804F37
:1053B00000F0288140F20041C4F2000120E100BF6A
:1053C000206840F6FF31C4F20001884252DCB0F19F
:1053D000804F69D040F20041C4F20001884263D09E
:1053E00040F60001C4F2000153E000BF266840F619
:1053F000FF30C4F2000040F200418642C4F20101D5
:105400005ADCB6F1804F6FD040F20040C4F2000089
:10541000864269D040F60000C4F20000864263D0A4
:1054200057E000BF43F6FF71C4F20101884200F368
:10543000BB8042F20001C4F20001884200F0C68045
:105440000021C4F20101884200F0C08040F2004116
:10545000B8E000BF40F2FF31C4F20101884200F31E
:10546000C58041F60001C4F20001884200F0CA8004
:105470000021C3E040F60041C4F20001884213D08D
:105480000021C4F2010188420ED040F20041C4F272
:105490000101884208D049F63860C0F6000041F2A8
:1054A000B10102F011F82068294601F05FFB206885
:1054B00050F81C1F90E000BF40F60040C4F200000E
:1054C000864211D00020C4F2010086420CD08E42E8
:1054D0000AD049F63860C0F600000E4641F2C2011B
:1054E00001F0F2FF31462668D6F82090306A20F4A9
:1054F000805030627768D6F81CA0D5F800B0D5F897
:10550000088046F48060884216D1696941F4807051
:10551000B0F5807F304609D049F63860C0F600000B
:1055200041F6B43101F0D0FF6969206827F4804268
:1055300042EA811701E000BF30462AF4E64242EA1F
:105540000B227760F26129F400516A6841EA083160
:105550002B693264316250F81C1F41F40061016014
:10556000016821F48061016019025AE040F60041AF
:10557000C4F20001884229D041F60001C4F20001C2
:10558000884223D041F60041C4F200011CE000BF74
:1055900040F60001C4F20001884233D040F60041D9
:1055A000C4F200012CE000BF44F20001C4F201018A
:1055B00088420BD044F20041C4F20101884205D078
:1055C00044F60001C4F2010188423FD1294601F0AE
:1055D000F5F9206850F8181F41F0080101600168D2
:1055E00021F00401016029691BE000BF40F2004185
:1055F000C4F20101884205D044F20001C4F2010165
:10560000884219D1294601F043FA206850F8181F42
:1056100041F400610160016821F480610160296941
:1056200009020268114301600020002184F83C1047
:1056300001B0BDE8F08F00BF49F63860C0F6000049
:105640004FF4855101F040FF2068DBE749F63860F0
:10565000C0F6000041F28F0101F036FF2068B5E787
:10566000002804BF01207047B0B50446006841F629
:10567000FF31C4F20001884216DC40F6FF31C4F26B
:105680000001884226DD41F2FF31C4F20001884268
:105690003CDC40F60041C4F2000188424ED041F2A9
:1056A0000001C4F2000147E040F2FF31C4F2010101
:1056B00088421DDD44F2FF31C4F20101884231DC31
:1056C00040F20041C4F20101884237D044F20001A7
:1056D00030E000BFB0F1804F30D040F20041C4F262
:1056E000000188422AD040F60001C4F2000123E004
:1056F00041F60041C4F2000188421FD042F200018D
:10570000C4F20001884219D0002113E041F20041A7
:10571000C4F20001884211D041F60001C4F2000138
:105720000AE000BF44F20041C4F20101884205D002
:1057300044F60001C4F20101884273D1A0684FEA27
:10574000301006287CD8012101FA00F010F0570F24
:1057500076D02069002818BFB0F5807F40D120683E
:10576000B0F1804F05D040F60041C4F200018842FC
:1057700042D1E06838B949F63860C0F6000040F21E
:105780002F5101F0A1FEA069251D40F08000802866
:105790003AD194F83D0028B9002084F83C00204616
:1057A00000F058F8022084F83D002068294600F0F7
:1057B000DDFF012084F8460084F83E0084F83F00B5
:1057C00084F8400084F8410084F8420084F84300E3
:1057D00084F8440084F8450084F83D000020B0BD02
:1057E000B0F5007FBBD049F63860C0F6000040F24B
:1057F0002E5101F069FEB2E7E0684FF6FF71013803
:105800008842B8D2BFE700BF49F63860C0F6000052
:105810004FF4A66101F058FE94F83D000028C1D174
:10582000BAE700BF49F63860C0F6000040F22C51DC
:1058300001F04AFEA0684FEA301006287FF683AFD9
:1058400049F63860C0F6000040F22D5101F03CFEF0
:105850007FE700007047000070470000B0B50446C5
:10586000006840F6FF32C4F2000290420D460FDCA1
:10587000B0F1804F1DD040F20041C4F200018842D7
:1058800017D040F60001C4F20001884211D045E073
:1058900040F60041C4F2000188420AD040F20041C3
:1058A000C4F20101884204D00021C4F201018842FF
:1058B00034D14FEAB501042940D325F00401B1FAEF
:1058C00081F14909A0F18040A0F5C0505DB9A0F573
:1058D0009632A0F59833B2FA82F2B3FA83F3520902
:1058E0005B091A4334D1B0FA80F252090A4225D139
:1058F0005DB9A0F58061A0F50060B1FA81F1B0FA60
:1059000080F049094009084322D149F63860C0F6C1
:10591000000040F2B35101F0D7FD0FE025F0040183
:10592000B1FA81F200294FEA5211CBD141F60002BF
:10593000C4F2000202F594329042C3D145B1082D61
:1059400010D0042D14BF04F1410004F13F000BE01E
:1059500094F83E0001281CBF0120B0BD022084F84D
:105960003E0013E004F14000007801281CBF012034
:10597000B0BD0220082D07D0042D14BF84F84100CB
:1059800084F83F0002E000BF84F840002068294608
:10599000012200F091FF206841F2FF71C4F2000182
:1059A00088420BDC40F2FF71C4F20001884213DC34
:1059B000B0F1804F36D040F2004115E040F2FF31A7
:1059C000C4F20101884215DC41F60001C4F2000175
:1059D000884227D0002115E040F60001C4F2000102
:1059E00088421FD040F60041C4F20001884219D01D
:1059F0001FE000BF44F20001C4F20101884211D04F
:105A000040F20041C4F20101884212D1416C40F2DF
:105A1000004340F48062C4F2010341F400419A4221
:105A2000416406D1816801F00701062904BF002006
:105A3000B0BD016841F0010101600020B0BD00006F
:105A4000B0B540F200450446C4F20005006805F513
:105A50007C41884216D101F0F7F840F2A400C2F26E
:105A60000000018869B940F29C31C2F200010A8845
:105A7000013293B2632B0A8003D100220A800121F4
:105A800001802068A84218BFB0BD40F20030C2F2C9
:105A9000000041894FF6E85301318AB29A4288BF2B
:105AA00000214181B0BD00007047000070B582B098
:105AB000044690F8420020280AD113460A460029DD
:105AC0004FF0010018BF002B06D102B070BD00BF1F
:105AD000022002B070BD00BF0120206300262220FA
