:020000040800F2
:10000000887604243903000895600008FD5B000829
:10001000616000083D060008B5720008000000009D
:10002000000000000000000000000000F165000872
:10003000FD0B000800000000B9600008F36500082F
:100040005303000853030008530300085303000838
:1000500053030008FD62000853030008530300081F
:100060005303000853030008530300087D070008EA
:100070008907000895070008A10700085303000836
:1000800053030008530300085303000853030008F8
:100090004D0E000853030008590E000853030008D2
:1000A00085670008A96700089D6700089167000838
:1000B00053030008530300085303000853030008C8
:1000C00053030008530300085303000853030008B8
:1000D0005303000853030008A972000853030008E3
:1000E00053030008530300080000000053030008F6
:1000F0005303000853030008530300085303000888
:100100005303000853030008B567000853030008B1
:100110005303000853030008530300085303000867
:10012000AD070008B907000853030008530300088F
:10013000530300085303000853030008650E00082A
:1001400000000000000000000000000000000000AF
:100150005303000853030008530300085303000827
:100160005303000853030008530300085303000817
:100170005303000853030008530300085303000807
:100180005303000853030008256A0008316A000879
:1001900053030008530300085303000853030008E7
:1001A00053030008530300085303000853030008D7
:1001B00053030008530300085303000853030008C7
:1001C00053030008530300085303000853030008B7
:1001D00053030008530300085303000853030008A7
:1001E0005303000853030008530300085303000897
:1001F0005303000853030008530300085303000887
:100200005303000853030008530300085303000876
:100210005303000853030008530300085303000866
:1002200053030008530300085303000800000000B4
:1002300053030008530300080000000053030008A4
:100240005303000853030008530300085303000836
:100250005303000853030008530300085303000826
:100260005303000853030008530300085303000816
:100270005303000853030008530300080000000064
:100280005303000853030008530300080000000054
:10029000000000005303000800F002F800F03CF8F2
:1002A0000AA090E8000C82448344AAF10107DA45D1
:1002B00001D100F031F8AFF2090EBAE80F0013F0E7
:1002C000010F18BFFB1A43F001031847A07F00007D
:1002D000C07F0000103A24BF78C878C1FAD852070E
:1002E00024BF30C830C144BF04680C6070470000B0
:1002F0000023002400250026103A28BF78C1FBD82F
:10030000520728BF30C148BF0B6070471FB507F0C8
:1003100047FF1FBD10B510BD00F05AF91146FFF799
:10032000F5FF07F06DFC00F078F903B4FFF7F2FF7A
:1003300003BC00F07DF900000948804709480047E8
:10034000FEE7FEE7FEE7FEE7FEE7FEE7FEE7FEE785
:10035000FEE7FEE704480549054A064B70470000E2
:10036000A96600089902000888700424887604248D
:10037000887204248872042453EA020C00F0698015
:100380002DE9F04B4FF00006002B1FBFB3FA83F5A9
:1003900003FA05F424FA05F65E4012BF1643B2FADA
:1003A00082F502FA05F4C5F120051EBF22FA05FC0C
:1003B00044EA0C04203556EA044C4FEA144418BFB2
:1003C000641C4FF000084FF00009904271EB030CE1
:1003D00039D3002919BFB1FA81F701FA07F6B0FA4B
:1003E00080F700FA07F6C7F120071EBF20FA07FCC6
:1003F00046EA0C062037B6FBF4FCA7EB0507103FD6
:1004000007F01F0BCBF120060CFA0BFB2CFA06F6BB
:1004100044BFB3460026202FA4BF5E464FF0000B1A
:100420005BEA060C08BF4FF0010B19EB0B09ABFBA5
:10043000027C48EB0608C01B06FB02CC0BFB03CC7E
:1004400071EB0C01C1E70B46024641464846BDE848
:10045000F08B13B54FF000004FF00001AFF30080B8
:10046000BDE81C407047032A40F2308010F0030CB6
:1004700000F0158011F8013BBCF1020F624498BFF7
:1004800011F801CB00F8013B38BF11F8013BA2F194
:10049000040298BF00F801CB38BF00F8013B11F00F
:1004A000030300F02580083AC0F0088051F8043BAF
:1004B000083A51F804CBA0E80810F5E7121D5CBF1C
:1004C00051F8043B40F8043BAFF30080D20724BF4F
:1004D00011F8013B11F801CB48BF11F8012B24BFE3
:1004E00000F8013B00F801CB48BF00F8012B704732
:1004F00010B5203AC0F00B80B1E81850203AA0E8BF
:100500001850B1E81850A0E81850BFF4F5AF5FEAF2
:10051000027C24BFB1E81850A0E8185044BF18C9A5
:1005200018C0BDE810405FEA827C24BF51F8043B4C
:1005300040F8043B08BF7047D20728BF31F8023BA0
:1005400048BF11F8012B28BF20F8023B48BF00F834
:10055000012B70474FF0000200B5134694469646B3
:10056000203922BFA0E80C50A0E80C50B1F12001C6
:10057000BFF4F7AF090728BFA0E80C5048BF0CC074
:100580005DF804EB890028BF40F8042B08BF7047D2
:1005900048BF20F8022B11F0804F18BF00F8012B44
:1005A000704770477047704710B500F009F8006851
:1005B00010BD10B5044600F003F8046010BD000043
:1005C00000487047287004240048704728700424AD
:1005D0007546FFF7F9FFAE4605006946534620F021
:1005E0000700854618B020B5FFF7B4FEBDE82040EF
:1005F0004FF000064FF000074FF000084FF0000BDF
:1006000021F00701AC46ACE8C009ACE8C009ACE891
:10061000C009ACE8C0098D46704710B50446AFF379
:1006200000802046BDE81040FFF77FBE7047000005
:1006300001491820ABBEFEE726000200FEE70000DD
:100640002DE9F0418C460646AA204FF0080EDDE960
:100650000714069F55259FED3D0ADFED3D0A9FEDEE
:100660003D3B207084F801C084F802E092ED066AF8
:100670009FED3A4B9FED3B5B26EE000A9FED3B2B37
:100680009FED3C1BBDEEC00A10EE100A4FEA102C85
:1006900084F804C0E07093ED080A20EE200ABDEE55
:1006A000C00A10EE100A4FEA102C84F806C06071E0
:1006B00092ED030A20EE200ABDEEC00A10EE100AE9
:1006C000020A2272E07193ED050A20EE200ABDEEC7
:1006D000C00A10EE100A020AA272607291ED000BBD
:1006E00091ED026B30EE060B20EE030B20EE040BB7
:1006F00020EE050BBDEEC00B10EE100A010A2173AF
:10070000E07297ED000B20EE020BBDEEC00B10EE79
:10071000100A010AA173607397ED020B20EE010B22
:10072000BDEEC00B10EE100A010A21741321E07314
:10073000204605F096FC607421463046A574BDE85D
:10074000F0410123132205F040B900000000C8C2A7
:100750000000C8421F85EB51B81E1940E3A59BC499
:1007600020B0A2BF000000000000494000000000CF
:10077000000059C00000000000005940014800F08E
:1007800079BF000078070024014800F073BF000023
:10079000F0070024014800F06DBF000000070024AE
:1007A000014800F067BF000088060024014800F0FF
:1007B00061BF000010060024014800F05BBF00008C
:1007C00068080024294A016891423AD0274A183221
:1007D000914236D0254A3032914232D0234A4832B3
:1007E00091422ED0214A603291422AD01F4A78325B
:1007F000914226D01D4A9032914222D01B4AA83203
:1008000091421ED01A4A91421BD0194A1832914285
:1008100017D0174A3032914213D0154A48329142CC
:100820000FD0134A603291420BD0114A7832914274
:1008300007D00F4A9032914203D00D4AA83291421C
:1008400011D1CAB21823103AB2FBF3F26FF30901C7
:10085000032A02F00703074AD25CC26500D9091DCA
:1008600081650846704721F0FF01F9E7100002405A
:10087000100402400882000830B5224A01230168B2
:100880009142CAB21BD01F4C1434A14217D01D4C48
:100890002834A14213D01B4C3C34A1420FD0194C38
:1008A0005034A1420BD0174C6434A14207D0154CF0
:1008B0007834A14203D0134C8C34A1420CD11421C2
:1008C000114C083AB2FBF1F10F4A803201F01F05DA
:1008D00004EB8101AB4010E00C4D1824103A0D449C
:1008E000B2FBF4F1A82D00D80831094A01F01F0429
:1008F00002EB8101064AA3408032603080E80E009E
:1009000030BD00000854025800580258F0FBFDBFEB
:100910000008024010B50279531E072B2DD8174C42
:100920000168A1421BD0154C1434A14217D0134CBE
:100930002834A14213D0114C3C34A1420FD00F4CAB
:100940005034A1420BD00D4C6434A14207D00B4C63
:100950007834A14203D0094C8C34A14203D1084918
:10096000074C443102E00749064C443104EB820253
:10097000C0E91B2101219940416710BD085402586C
:10098000FC580258FC08024010B583694FF0C0744F
:10099000826A0146002053B1B3F5005F15D072B1F1
:1009A000012A0CD0022A0AD0032A09D104E01AB184
:1009B000012A06D0022A03D1C96AC90100D5012043
:1009C00010BDC96AA142FAD010BD002AF7D0012A91
:1009D000F2D0022AF3D0032AF3D010BD2DE9F04F54
:1009E000804E804FDFF8FC911836DFF8F8A14837C9
:1009F0000468856D0AF1300ADFF8ECB14C45DFF888
:100A0000ECC1DFF8ECE16DD0B4426BD0544569D055
:100A1000BC4267D0DFF8D081A8F11808444561D006
:100A20005C455FD064455DD074455BD0DFF8C48120
:100A3000444557D0DFF8BC8108F11808444551D02F
:100A4000DFF8B08108F1300844454BD0DFF8A481CD
:100A500008F14808444545D0DFF8988108F160085E
:100A600044453FD0DFF88C8108F17808444539D0FF
:100A7000DFF8808108F19008444533D0DFF87481B5
:100A800008F1A80844452DD0DFF86C81444529D0F1
:100A9000DFF8648108F11408444523D0DFF8588159
:100AA00008F1280844451DD0DFF84C8108F13C08C6
:100AB000444517D0DFF8408108F15008444511D073
:100AC000DFF8348108F1640844450BD0DFF8288151
:100AD00008F17808444505D0DFF81C8108F18C083E
:100AE000444509D1D0E91948C4F80480C46E1CB14A
:100AF000D0E91C48C4F8048004684C452ED0B442A8
:100B00002CD054452AD0BC4228D0374E183EB4428F
:100B100024D05C4522D0644520D074451ED0354E8B
:100B2000B4421BD0334E1836B44217D0314E303653
:100B3000B44213D02F4E4836B4420FD02D4E6036FB
:100B4000B4420BD02B4E7836B44207D0294E9036A3
:100B5000B44203D0274EA836B44215D190F85C6059
:100B60003F2406F01F06B440AC600468256825F4F5
:100B7000802525602EE09A600068C160BDE8F08F96
:100B800099600068C260F9E71B4EB4421BD01A4E50
:100B90001436B44217D0184E2836B44213D0164E2D
:100BA0003C36B4420FD0144E5036B4420BD0124EE5
:100BB0006436B44207D0104E7836B44203D00E4E9D
:100BC0008C36B442DAD190F85C60012406F01F063E
:100BD000B4406C60046863608368402B0368CFD1C5
:100BE000C9E700001000024088000240A000024057
:100BF000B800024010040240085402587047000038
:100C00002DE9F0410478DDF81880BB2C73D190F801
:100C100002C06424C57800264778BCF1000F08D0D4
:100C2000BCF1010F67D1042F1BD2DFE807F01A8E49
:100C3000B5DC042FF8D2DFE807F002153B627F49EC
:100C4000012D01D101220A60C078002809D17C4A17
:100C50009FED7C0A10200E601121F0EE400A07F093
:100C600077FAE6E0012D04D0022D10D0032D1CD020
:100C7000DFE002794079B2FBF4F242EA002000B2F0
:100C800000EE100AB8EEC00A81ED000AD1E0027948
:100C90004079B2FBF4F242EA002000B200EE100A02
:100CA000B8EEC00A81ED020AC3E00279407967E03C
:100CB000012D04D0022D10D0032D1DD0B9E00179F3
:100CC0004079B1FBF4F141EA002000B200EE100AD5
:100CD000B8EEC00A82ED000AABE001794079B1FBC1
:100CE000F4F141EA002000B200EE100AB8EEC00AAA
:100CF00082ED020A9DE09EE00179407967E0012DD6
:100D000004D0022D10D0032D1CD092E0017940793F
:100D1000B1FBF4F141EA002000B200EE100AB8EE97
:100D2000C00A83ED000A84E001794079B1FBF4F157
:100D300041EA002000B200EE100AB8EEC00A83EDCE
:100D4000020A76E00179407968E0B5FBF4F30279B4
:100D500043EA022212B200EE102AB8EEC00A81ED78
:100D6000000A42798379B2FBF4F242EA032212B21A
:100D700000EE102AB8EEC00A81ED020AC279007AAC
:100D8000B2FBF4F242EA002000B200EE100AB8EE24
:100D9000C00A81ED030A4CE0B5FBF4F3017943EAA4
:100DA000012109B200EE101AB8EEC00A82ED000A65
:100DB00041798379B1FBF4F141EA032109B200EEF4
:100DC000101AB8EEC00A82ED020AC179007AB1FBAE
:100DD000F4F141EA002000B200EE100AB8EEC00AB9
:100DE00082ED030A25E0B5FBF4F2017942EA012124
:100DF00009B200EE101AB8EEC00A83ED000A41797C
:100E00008279B1FBF4F141EA022109B200EE101A35
:100E1000B8EEC00A83ED020AC179007AB1FBF4F1A1
:100E200041EA002000B200EE100AB8EEC00A83EDDD
:100E3000030AA8F80060BDE8F08100000400002467
:100E40004C0A00240000000072B6FEE7014801F0E1
:100E500015BC0000A4000024014801F00FBC0000F4
:100E6000A4000024014801F009BC0000A4000024F3
:100E7000F0B503684FF6FC716D4C426BD3F88450AB
:100E80008D4345EA8205C3F88450036853F8845FB4
:100E9000068F25F47F0545EA06451D60836B654D89
:100EA0009F180268D2F888308B4343EA8703C2F860
:100EB0008830026852F8883F868F23F4FE0343EAA5
:100EC00006431360066856F8A03FC26B8B4307EBDE
:100ED000420243EA82033360076857F8A03FB0F844
:100EE000406023F4FE0343EA06433B60D0E910363A
:100EF00003FB06220368D3F8B0608E4346EA8206FD
:100F0000C3F8B0600368B0F84860D3F8B07027F455
:100F1000FE0747EA0646C3F8B060D0E912670368E7
:100F200006FB0722D3F8AC608E4346EA8206C3F87C
:100F3000AC60D0E91467036806FB0722D3F8F060C1
:100F40008E4346EA8206C3F8F0600368B0F8586042
:100F5000D3F8F07027F47C1747EA0646C3F8F06030
:100F60000368876D53F8C06F02EB47028E4346EA71
:100F7000820119600168B0F85C20D1F8C03023F418
:100F80007C1343EA0242C1F8C020016890F8602057
:100F9000D1F8C03023F07C5343EA0262C1F8C0208C
:100FA000416B04EB8101C166826B01EB8202026737
:100FB000C36B02EBC3024267D0E91034634302EB18
:100FC00083028267D0E91234634302EB8302C26773
:100FD000D0E91434634302EB8302C0F88020836DB0
:100FE00002EBC303C0F88430C46D826E544303EB3C
:100FF0008403C0F88830046E544303EB8402C0F8C5
:101000009020AA420AD9D0F89C20032142F0200265
:10101000C0F89C2080F898100120F0BD002200E06C
:1010200004C1D0F890308B42FAD80020F0BD000007
:1010300000AC0040FCD3004030B589B0002403ABC5
:10104000082500940120019409210294152283E8C7
:1010500027000D48694601F008FA0B4801F055FEDB
:1010600009480022012101F0BBF908B1FFF7ECFEAD
:1010700006484460C0E90245046144618461C4617A
:10108000046209B030BD0000A4000024E008002480
:101090002DE9F84F044601F089FF00903CB194F827
:1010A0003500022806D0802161650020E4E001209F
:1010B000BDE8F88FC74DC74EC64918352068303691
:1010C000DFF81483DFF814938842DFF814A3DFF805
:1010D00014B32ED0A8422CD0B0422AD0404528D0FC
:1010E000484526D0504524D0584522D0BD4A183214
:1010F00090421ED0BC4A90421BD0BB4A183290424C
:1011000017D0B94A3032904213D0B74A4832904291
:101110000FD0B54A603290420BD0B34A7832904239
:1011200007D0B14A9032904203D0AF4AA8329042E1
:1011300009D1026822F01E0202602068426922F092
:101140008002426103E0026822F00E02026027681A
:101150008F4238464DD0A8424BD0B04249D040458E
:1011600047D0484545D0504543D0584541D09D4A89
:10117000183290423DD09C4A90423AD09A4A183256
:10118000904236D0984A3032904232D0964A483215
:1011900090422ED0944A603290422AD0924A7832BD
:1011A000904226D0904A9032904222D08E4AA83265
:1011B00090421ED08D4A90421BD08C4A14329042ED
:1011C00017D08A4A2832904213D0884A3C32904243
:1011D0000FD0864A503290420BD0844A64329042FB
:1011E00007D0824A7832904203D0804A8C329742AC
:1011F00004D1206E026822F4807202607549206872
:10120000884228D0A84226D0B04224D0404522D0DF
:10121000484520D050451ED058451CD07149183142
:10122000884218D07049884215D06F4918318842D9
:1012300011D06D49303188420DD06B494831884218
:1012400009D069496031884205D0674978318842C0
:1012500001D065499031016821F0010101600EE083
:1012600001F0A4FE0099401A052808D920226265E1
:101270000321002084F8351084F8340017E738681B
:10128000C007EDD1534A0121206890422ED0A842D8
:101290002CD0B0422AD0404528D0484526D05045D1
:1012A00024D0584522D04F4B183398421ED04E4B75
:1012B00098421BD04C4B1833984217D04A4B3033CE
:1012C000984213D0484B483398420FD0464B603376
:1012D00098420BD0444B7833984207D0424B90331E
:1012E000984203D0404BA833984208D194F85C70E0
:1012F0003F23A06D07F01F07BB40836007E094F811
:101300005C30A06D03F01F0301FA03F34360206813
:1013100090424DD0A8424BD0B04249D0404547D032
:10132000484545D0504543D0584541D02D4A183204
:1013300090423DD02C4A90423AD02B4A18329042EB
:1013400036D0294A3032904232D0274A4832904231
:101350002ED0254A603290422AD0234A78329042D9
:1013600026D0214A9032904222D01F4AA832904281
:101370001ED01E4A90421BD01C4A1432904217D0F5
:101380001A4A2832904213D0184A3C3290420FD069
:10139000164A503290420BD0144A6432904207D021
:1013A000124A7832904203D0104A8C3290420BD1CC
:1013B000D4E919024260E06E30B1026822F4807212
:1013C0000260D4E91C024260002084F8351084F8E1
:1013D00034006DE6100002405800024070000240E8
:1013E00088000240A0000240100402400854025845
:1013F0002DE9F05F28B190F83510022904D0802142
:1014000041650120BDE8F09F904C904B0168183C6D
:1014100018338E4ADFF83C92A1428D4CDFF838E257
:101420008E4FDFF83CB2DFF83CA28F4D8F4E31D0AB
:1014300091422FD099422DD0A1422BD0494529D09D
:10144000714527D0B94225D0DFF810C20CF1180C35
:1014500061451FD0DFF808C2ACF1600C614519D0BE
:10146000DFF8FCC1ACF1480C614513D0DFF8F0C1E6
:10147000ACF1300C61450DD0DFF8E4C1ACF1180CD3
:10148000614507D0594505D0514503D0A94201D047
:10149000B1422CD1DFF8B4C14FF0040880F8358098
:1014A000ACF1180C61451DD091421BD0994219D066
:1014B000A14217D0494515D0714513D0B94211D07A
:1014C0006648183081420DD065486038814209D0A5
:1014D00063484838814205D061483038814201D0A4
:1014E0005F481838086820F001000860ABE0D1F8C8
:1014F00000C02CF00E08DFF854C1C1F80080ACF138
:10150000180C0168614527D0914225D0994223D01B
:10151000A14221D049451FD071451DD0B9421BD0F1
:10152000DFF838C10CF1180C614515D0DFF830C177
:10153000ACF1600C61450FD0DFF824C1ACF1480C70
:10154000614509D0DFF818C1ACF1300C614503D01A
:10155000DFF80CC1ACF1180CD1F800C02CF0010C74
:10156000C1F800C0DFF8E4804FF0010C0168A8F179
:101570001808414546D0914244D0994242D0A142F8
:1015800040D049453ED071453CD0B9423AD0334A6B
:101590001832914236D0324A603A914232D0304AC3
:1015A000483A91422ED02E4A303A91422AD02C4AC3
:1015B000183A914226D0594524D0514522D0A9420B
:1015C00020D0B1421ED02A4A91421BD0284A143260
:1015D000914217D0264A2832914213D0244A3C32F5
:1015E00091420FD0224A503291420BD0204A6432AD
:1015F000914207D01E4A7832914203D01C4A8C3265
:10160000914218D1016E0A6822F480720A6090F843
:101610005C20816D02F01F020CFA02F24A60D0E9F0
:1016200019124A60C16E31B10A6822F480720A60F0
:10163000D0E91C124A600022016D80F835C080F8A4
:10164000342001B188470020DCE600002800024079
:10165000580002407000024088000240A000024092
:101660007004024088040240A0040240B804024012
:10167000085402582DE9FC5F0446F74E0020DFF8BD
:10168000D88300904FF41652F44808F11808A56D5D
:10169000DFF8C493DFF8C0A3016809F130092068BE
:1016A0000AF1480AB1FBF2F1B04201912F68D5F876
:1016B00000C0DFF8ACB335D04146884232D048454F
:1016C00030D050452ED058452CD0E54918318842AD
:1016D00028D0E3493031884224D0E149483188425A
:1016E00020D0E04988421DD0DE491831884219D007
:1016F000DC493031884215D0DA494831884211D06E
:10170000DFF860E30EF1600E70450BD0D54A7832F9
:10171000904207D0D34B9033984203D0D149A8319F
:1017200088427DD194F85C20082102F01F0201FA62
:1017300002F23A424AD0B04232D0404530D0484519
:101740002ED050452CD058452AD0C54A1832904248
:1017500026D0C34A3032904222D0C14A4832904209
:101760001ED0C04A90421BD0BE4A1832904217D0B9
:10177000BC4A3032904213D0BA4A483290420FD01D
:10178000B84A603290420BD0B64A7832904207D0C5
:10179000B44A9032904203D0B24AA832904203D168
:1017A000026802F0040202E0026802F008026AB174
:1017B000026822F00402026094F85C0000F01F004E
:1017C0008140A960606D40F00100606594F85C00A4
:1017D000012100F01F008140394240D02068B04212
:1017E00034D0404532D0484530D050452ED05845B1
:1017F0002CD09B4A1832904228D0994A30329042DD
:1018000024D0974A4832904220D0964A90421DD028
:10181000944A1832904219D0924A3032904200E0F5
:10182000AFE113D08F4A483290420FD08D4A6032D8
:1018300090420BD08B4A7832904207D0894A90323E
:10184000904203D0874AA83290427DD1406910F07F
:10185000800F04D0A960606D40F00200606594F8CC
:101860005C00042100F01F00814039423ED0206816
:10187000B04232D0404530D048452ED050452CD0D3
:1018800058452AD0764A1832904226D0744A3032CF
:10189000904222D0724A483290421ED0714A904201
:1018A0001BD0704A1832904217D06E4A30329042A4
:1018B00013D06C4A483290420FD06A4A603290424C
:1018C0000BD0684A7832904207D0664A90329042F4
:1018D00003D0644AA83290424ED1006810F0020F43
:1018E00004D0A960606D40F00400606594F85C006D
:1018F000102100F01F008140394258D02068B042CA
:1019000034D0404532D0484530D050452ED058458F
:101910002CD0534A1832904228D0514A303290424B
:1019200024D04F4A4832904220D04E4A90421DD097
:101930004C4A1832904219D04A4A3032904215D05F
:10194000484A4832904200E014E00FD0454A6032E5
:1019500090420BD0434A7832904207D0414A9032AD
:10196000904203D03F4AA832904207D1006800F06D
:10197000080006E0006872E70068B7E7006800F05A
:101980000400A0B1A96020680168490304D500687B
:10199000000308D5A16C07E00168C90503D40168FC
:1019A00021F008010160216C09B12046884794F8B4
:1019B0005C00202100F01F008140394279D020686E
:1019C000B04232D0404530D048452ED050452CD082
:1019D00058452AD0224A1832904226D0204A303226
:1019E000904222D01E4A483290421ED01D4A904258
:1019F0001BD01C4A1832904217D01A4A30329042FB
:101A000013D0184A483290420FD0164A60329042A2
:101A10000BD0144A7832904207D0124A903290424A
:101A200003D0104AA832904203D1006800F01000A1
:101A300002E0006800F00200B0B3A96094F835003D
:101A40000428206801680FD049037ED50068000390
:101A50002BD4616C2AE000001000024054000024E6
:101A6000700002401004024021F01601016020685D
:101A7000416921F080014161206C08B9A06C20B15E
:101A80002068016821F00801016094F85C303F2172
:101A9000012003F01F0300229940A96084F835005B
:101AA00084F83420216D65E003E0E16B09B1204644
:101AB0008847606D00287DD0606DC00759D02068D0
:101AC000042184F83510B0422BD0404529D0484538
:101AD00027D0504525D0584523D09D49884220D055
:101AE0009B49183188421CD099493031884218D01E
:101AF0009849884215D097491831884211D09549A4
:101B0000303188420DD093494831884209D09149FB
:101B10006031884205D08F497831884201D08D49A3
:101B20009031016821F00101016020680099019A5B
:101B3000491C0091914202D80168C907F6D100689A
:101B4000C00710D003200FE0FFE70168C905ACD43F
:101B500003680121002223F01003036084F835108C
:101B600084F83420A1E7012084F83500002084F8AF
:101B70003400E16C00291DD002B02046BDE8F05FC2
:101B80000847754988421DD073491431884219D0DD
:101B900071492831884215D06F493C31884211D0B3
:101BA0006D49503188420DD06B496431884209D06B
:101BB000694900E084E07831884203D066498C317D
:101BC00088427DD194F85C800427016808F01F08E2
:101BD00007FA08F717EA0C0F009746D04F0744D5CD
:101BE00000980F04686003D5C8033CD4A16CC1E71A
:101BF000880638D42068B0422DD0554960398842D3
:101C000029D0484527D0504525D0584523D05049A4
:101C1000884220D04E49183188421CD04C4930317E
:101C2000884218D04B49884215D04A491831884219
:101C300011D04849303188420DD046494831884258
:101C400009D0704507D0904205D0984203D0414951
:101C5000A831884203D1016821F0080102E001683F
:101C600021F004010160216C84E7022707FA08F7DC
:101C700017EA0C0F00974ED08F074CD500980F0431
:101C8000686003D5C80344D4616C73E7880640D408
:101C90002068B0422FD02E49603988422BD0484569
:101CA00029D0504527D0584525D02949884222D0EF
:101CB0002749183188421ED025493031884200E03A
:101CC00044E018D02349884215D02249183188426F
:101CD00011D02049303188420DD01E494831884208
:101CE00009D0704507D0904205D0984203D01949D9
:101CF000A831884203D1016821F0140102E0016893
:101D000021F00A010160012184F83510002084F8D7
:101D10003400E16B2EE7082202FA08F212EA0C0FF7
:101D200014D0090712D5016821F00E01016094F862
:101D30005C100120002201F01F0100FA01F169602E
:101D4000606584F8350084F8342012E7BDE8FC9F14
:101D50008800024010040240085402582DE9F05F48
:101D6000044601F023F9002C07467DD0E34E022102
:101D700020684FF00308DFF888934FF00005DFF884
:101D800084A3B042DFF880B334D0DC4A18329042EA
:101D900030D048452ED050452CD058452AD0DA4A6C
:101DA0001832904226D0D84A3032904222D0D64AB9
:101DB000483290421ED0D54A90421BD0D34A1832A6
:101DC000904217D0D14A3032904213D0CF4A483295
:101DD00090420FD0CD4A603290420BD0CB4A78323D
:101DE000904207D0C94A9032904203D0C74AA832E5
:101DF00090427DD184F83510B04284F834502ED012
:101E0000BE49183188422AD0484528D0504526D0AE
:101E1000584524D0BC491831884220D0BA493031C5
:101E200088421CD0B8494831884218D0B749884206
:101E300015D0B6491831884211D0B44930318842A2
:101E40000DD0B2494831884209D0B049603188424A
:101E500005D0AE497831884201D0AC499031016853
:101E600021F00101016008E027E100BF01F09EF8C8
:101E7000C01B052801D920211CE120680068C0078B
:101E8000F4D104F108002168D4E9053C8E4685C8E8
:101E900009681043D4E907281F43636A38439C4FFD
:101EA00040EA0C001043394040EA0800042B40EAA5
:101EB000010003D1D4E90B12114308439549096885
:101EC0006FF30F01B1F1005F0FD36168A1F1290237
:101ED000052A08D9163A032A05D9083A012A02D94F
:101EE0004F39032901D840F48010CEF8000000E0FB
:101EF00023E02068676A4069042F20F0070047EA62
:101F000000070DD1D4E90A01074349B12046FEF785
:101F10003BFD28B140206065012184F83510CCE0FC
:101F2000206847612046FEF74DFC94F85C203F2175
:101F300002F01F029140816054E0774A90421BD02A
:101F4000754B1433984217D0734B2833984213D0F3
:101F5000714B3C3398420FD06F4B503398420BD0AB
:101F60006D4B6433984207D06B4B7833984203D063
:101F7000694B8C3398427DD184F8351084F8345005
:101F8000664B0168A26801EA030E402A73D0802ADA
:101F900072D00022D4E90378D4E9053142EAD702AD
:101FA00042EAD8085C4AD4E9077C48EAD30848EA00
:101FB000D10141EAD701524241EA1C11142341EAFE
:101FC0000E01016020681044B0FBF3F08000E06572
:101FD0002046FEF7F7FB94F85C20012102F01F0277
:101FE000914041602068B04257D04449183188423E
:101FF00053D0484551D050454FD058454DD0424917
:102000001831884249D040493031884245D03E4954
:102010004831884241D03D4988423ED03B49183141
:1020200088423AD039493031884236D03749483130
:10203000884232D03549603188422ED033497831D8
:1020400088422AD031499031884226D02F49A83180
:10205000884222D0304988421FD02F49143188420B
:102060001BD02D492831884217D02B493C3188425A
:1020700013D002E01DE017E018E0274950318842F4
:102080000BD025496431884207D0234978318842F2
:1020900003D021498C31884229D12046FEF7ECFB40
:1020A000A06880280CD00CE0102273E74FF4804227
:1020B00070E74021616584F835800120BDE8F09F1C
:1020C0006560216E20790860D4E91901416060687B
:1020D000401E072808D82046FEF71CFCE06E05606D
:1020E000D4E91C01416002E0E566256765670120CF
:1020F000656584F835000020E0E70000100002402C
:1021000040000240580002407000024010040240AB
:102110003F8010FE0010005C085402580F00FEFFC4
:102120002DE9F84F04008C464FF00000009014D0C9
:1021300094F83400012812D094F835500120002181
:1021400084F83400012D0CD0C0026065012000909D
:1021500084F834100098BDE8F88F0120FBE70220D6
:10216000F9E78C4D0226206884F83560A8428A4D34
:1021700061658A4E8A4FDFF82C82DFF82C92DFF8F7
:102180002CA2DFF82CB226D0A84224D0B04222D014
:10219000B84220D040451ED048451CD050451AD0EA
:1021A000584518D08349884215D082491831884251
:1021B00011D08049303188420DD07E494831884263
:1021C00009D07C496031884205D07A49783188420B
:1021D00001D078499031016821F001010160614628
:1021E0002046FEF7FBFB6B49206888422CD0A842B2
:1021F0002AD0B04228D0B84226D0404524D0484505
:1022000022D0504520D058451ED06A4A90421BD05B
:10221000684A1832904217D0664A3032904213D042
:10222000644A483290420FD0624A603290420BD0EA
:10223000604A7832904207D05E4A9032904203D092
:102240005C4AA83290420CD1026822F01E0242F091
:1022500016020260206C88B12068026842F0080211
:102260000BE0026822F00E0242F00A020260206CCB
:1022700020B12068026842F00402026020688842AF
:102280004BD0A84249D0B04247D0B84245D0404593
:1022900043D0484541D050453FD058453DD0454AB0
:1022A00090423AD0434A1832904236D0414A3032B6
:1022B000904232D03F4A483290422ED03D4A60325E
:1022C00090422AD03B4A7832904226D0394A903206
:1022D000904222D0374AA83290421ED0364A9042CD
:1022E0001BD0354A1432904217D0334A28329042DC
:1022F00013D0314A3C3290420FD02F4A5032904294
:102300000BD02D4A6432904207D02B4A783290424B
:1023100003D0294A8C3290420DD1206E0268D2033C
:1023200003D5026842F480720260E06E18B1026860
:1023300042F4807202602068884226D0A84224D0ED
:10234000B04222D0B84220D040451ED048451CD0D3
:1023500050451AD0584518D01649884215D015490D
:102360001831884211D01349303188420DD01149BB
:102370004831884209D00F496031884205D00D4963
:102380007831884201D00B499031016841F0010158
:102390000160DFE6100002402800024040000240D9
:1023A000580002407000024088000240A000024035
:1023B000B8000240100402400854025870B50446A8
:1023C00000F0F4FD0546601C02D004480078044487
:1023D00000F0ECFD401BA042FAD370BD14000024B5
:1023E00010B590F89830012B09D0022B07D0D0F807
:1023F0009C1041F00201C0F89C10012010BD036840
:102400009C6D0C4203D1DC6D44F0010404E09C6D32
:1024100031EA04041FD00324DC658B0505D503686D
:10242000D3F8E0401443C3F8E0404B0505D50368FA
:10243000D3F8E4401443C3F8E4400068084A01EAD2
:102440000203446D074A1C434465106840EA9170DA
:102450001060002010BDDC6D44F00204DCE70000D9
:10246000FFFFCF3F14A80040704770B590F8982048
:10247000012A09D0022A07D0D0F89C1041F00201AD
:10248000C0F89C10012070BD0B68CA6883B10B694D
:10249000072A43EA427325D00C7A4A6942EA8472D9
:1024A0004968006F00EBC100C0E90032002070BD38
:1024B000072A0DD00C7AD6060D8A4B6943EA84723E
:1024C00046EA0543C06E49681A4340F82120EDE70B
:1024D0000B8A4FF06055D1E9062442EA034245EAEF
:1024E0000423EFE78A69DBE770477047F0B590F89F
:1024F00098500024022D04D0D0F89C1041F008011F
:1025000029E0402905D0412929D0056D8D4219D9EE
:1025100042E00568D5F8A06016F4FE0F12D0D5F899
:10252000A460760613D0D5F8A460F60105D5D5F8D9
:10253000A06016F0004F00D50124D5F8A470466FB6
:10254000456C24E0D0F89C1041F0200103E0D0F865
:102550009C1041F48071C0F89C100120F0BD05680A
:10256000D5F8B06016F4FE0FECD0D5F8B46076065E
:10257000EDD0D5F8B460F60105D5D5F8B06016F009
:10258000004F00D50124D5F8B470866FC56CC7F331
:1025900005273C44654302E0456DC66F4D4306EB9D
:1025A00085052E6816F0804656602E6836D026F0D7
:1025B00060461660D5F800C000262E4F0CF0005C77
:1025C000C2F808C0D5F800C00CF0004CC2F810C02A
:1025D000B5F804C01FFA8CFCC2F81CC0D5F804C0C2
:1025E000CCF3034CC2F80CC0D5F804C00CF4801C2A
:1025F000C2F814C0D5F804C00CF4001CC2F818C00E
:10260000D5F804C0CCF3066CC2F820C0D5F804C0DD
:1026100008354FEADC7CC2F824C008E0C6F38A46DD
:10262000C7E700BF15F806C003F806C0761CD2F84D
:102630000CC017F80CC0B445F4D840290AD0412981
:102640000CD020294FF001020CD200688A40C0F85B
:1026500098200DE00068C0F8A84009E00068C0F8C4
:10266000B84005E0006801F01F018A40C0F89C20D6
:102670000020F0BDAC810008704700002DE9FF5F2D
:10268000DFF80CB304460BF10401DBF80000256809
:102690000F68AA468007D5F85090696DD5F850802C
:1026A0006E6D2A6DD5F854C02B6D00EA87700090CE
:1026B00009F470496F6D286D01EA09010191DAF89A
:1026C0005410DAF85490DAF8505008F00F0806EA7F
:1026D0000806029602F0F00203F071536FEA090651
:1026E0001F4000F060700CEA020CCDF80CC0F2053F
:1026F00001EA00090CD4E843C00509D400214FF4D5
:102700008073CAF85030CBF800102046FFF7B4FFB2
:10271000700512D4E84340050FD4206800234FF41D
:102720008068D0F8DC20D0F8E410C0F85080CBF8F6
:1027300000301140204600F007FBDFF858A2009857
:1027400050B12268830F00EA0A001065CBF8003010
:1027500020460099FFF788FE019850B12268830F48
:1027600000EA0A001065CBF800302046019900F01D
:10277000EDFA029850B12268830F00EA0A00106552
:10278000CBF800302046029900F088FA039850B147
:102790002268830F00EA0A001065CBF8003020465B
:1027A000039900F0B1FA30050CD4E843000509D4D0
:1027B000236800204FF400621A65CBF80000204621
:1027C00000F0C5FAB00512D4E84380050FD42068A4
:1027D00000234FF40078D0F8D820D0F8E010C0F8EB
:1027E0005080CBF800301140204600F0AEFA3003A4
:1027F0000CD4E843000309D4236800204FF40022DE
:102800001A65CBF80000204600F046FAF0030CD41D
:10281000E843C00309D4236800204FF480321A65CE
:10282000CBF80000204600F08EFA70030CD4E84389
:10283000400309D4226800204FF480231365CBF8AD
:102840000000204600F07EFAB0030FD4E843800376
:102850000CD4236800204FF400321A65CBF8000036
:10286000D4F89C0040F08000C4F89C00B9F1000F3F
:102870000BD022684FEA997309EA0A001065CBF879
:10288000003049462046FFF730FE5FB12268BB0F9B
:1028900007EA0A001065CBF80030D4F89C003843F2
:1028A000C4F89C003C492068884268D16068814631
:1028B0008068800763D0D9F82060D9F82410D9F84F
:1028C0002080D9F82400D9F820C0D9F82470D9F88C
:1028D0002030D9F82450D9F8202003F4FC4306F026
:1028E0000F0AD9F824601D40D9F824B008F0300848
:1028F0000CF4C07C02F4F02211EA0A0100EA080894
:1029000007EA0C0706EA0206D9F820A004D0C9F8A5
:102910002010204600F013FAB8F1000005D06168DD
:1029200008624146204600F00CFA6FEA0B004006B0
:102930000ED46FEA0A0040060AD460684021C36BD7
:10294000C26B01622046190C02F03F0200F0F8F958
:102950002FB1606807623946204600F0EFF935B1C3
:1029600060680562D4F89C002843C4F89C0036B126
:1029700060680662D4F89C003043C4F89C00D4F828
:102980009C00002802D02046FFF7AEFDBDE8FF9F67
:1029900010A80040FFFFCF3F00A000402DE9F0410C
:1029A00094B08D494C2204466846FDF7A1FD64B100
:1029B0008A4D2068A84202D100F58070606094F8CA
:1029C00098004FF0000820B108E0012014B0BDE8E5
:1029D000F081204684F8998000F002F9206881692E
:1029E00021F01001816100F0E1FA0327064604E0BE
:1029F00000F0DCFA801B0A2811D8206880690007E3
:102A0000F6D42068816941F00101816100F0CEFABD
:102A100006460DE000F0CAFA801B0A2808D9D4F84F
:102A20009C0040F00100C4F89C0084F89870CCE74A
:102A300020688069C007EDD02068816941F00201FB
:102A40008161207C01282068816937D041F04001F4
:102A50008161607C01282068816932D021F4804145
:102A60008161A07C0128206881692DD041F48051CA
:102A700081612068A268816921F4407111438161FC
:102A80002068816921F0A40181612068016921F039
:102A900010010161E068012819D010B302281BD091
:102AA0002068816941F0800181612068016941F0FD
:102AB00010010161E06803280ED012E021F040010E
:102AC000C6E741F48041CBE721F48051D0E720688C
:102AD000816941F0040103E02068816941F020012F
:102AE0008161207E6FF0FF02D4E90773A68A11028C
:102AF000400602EB0727A0F10070384327685B1EF1
:102B0000184301EB06463043F861A068B0F5407FFA
:102B100011D104F12800A68C6FF00F0C89C801EBCD
:102B20000641401E02EB0322104322680CEB071300
:102B300018430843D060206E30B12068626ED0F830
:102B4000C0101143C0F8C010D4E917126846D14232
:102B500009D02168A36E51F8C82F50F8233022F015
:102B600007021A430A60216C49B12168626C51F86E
:102B7000BC3F50F8226023F0070232430A60A16C88
:102B800051B12168E36C51F8BC2F50F8233022F08A
:102B9000700242EA03120A60216D51B12168626D30
:102BA00051F8BC3F50F8220023F4E06242EA0020D2
:102BB00008602068A84204D16068816821F00301A0
:102BC0008160C4F894800121C4F89C8084F8981036
:102BD0002046FEF74DF9F9E6BC81000800A0004050
:102BE00010B5B6B00446142130A8FDF7B3FCC021DF
:102BF0006846FDF7AFFC25492068884244D1002093
:102C00001C904FF400410446CDE90010684600F0E6
:102C10004DFC08B1FEF718F91D48016841F48071B8
:102C20000160006800F48070359019480C38016824
:102C300041F00201016000684FF4405109223492D2
:102C400000F0020035900220CDE93204CDE93010C9
:102C5000104830A900F07CF800221420114600F042
:102C600073FA142000F062FA00221620114600F0D8
:102C70006BFA162000F05AFA00223F20114600F0AD
:102C800063FA3F2000F052FA36B010BD00A40040B5
:102C9000EC44025800040258704700007CB5C90794
:102CA00028D0154B4021154AFFF720FC002821D1E0
:102CB000114A6946135C0B54401C0828FADB0F4C80
:102CC0000F4D104E2068112809D19DED000B0821F1
:102CD0003046B1EE400B85ED000B00F054F9206852
:102CE000122807D19DED000B0821304685ED020B1F
:102CF00000F049F97CBD00002800002404090024EC
:102D000098040024000C0258704790F8981001298C
:102D100007D0D0F89C1041F00401C0F89C100120AD
:102D20007047022180F89810002201688B6923F017
:102D300001038B61C0F89C201046704770477047B4
:102D400070477047704770477047704770477047CB
:102D50002DE9F84F03247D4D00234FF001094FF07A
:102D6000B04B4FF00F0AE9E009FA03F73A4076D08A
:102D70000E7906F00306012E01D0022E18D1D0F8EC
:102D800008C04FEA430ECE6804FA0EF82CEA080C8D
:102D900006FA0EF646EA0C068660D0F804C00E79F4
:102DA0002CEA070CC6F300169E4046EA0C06466065
:102DB0000E79F643B6070BD0C6684FEA43088F6812
:102DC00004FA08FC26EA0C0607FA08F73743C7603E
:102DD0000E7906F00306022E12D1DE080F694FEAC3
:102DE000437C00EB8606B646366A4FEADC6C0AFA8C
:102DF0000CF807FA0CF726EA08063743CEF82070DD
:102E00000F7906684FEA430807F0030704FA08FC45
:102E100007FA08F726EA0C06374307604E6816F4EF
:102E2000403F1CD04A4E376847F00207376036688B
:102E30009F0706F00206009623F0030606F1B0464F
:102E4000B6463F0FD6F80864DFF808810AFA07FC97
:102E5000404526EA0C0603D14FF0000C41E06CE03F
:102E6000DFF8F4C0604502D14FF0010C39E0DFF823
:102E7000ECC0604502D14FF0020C32E0DFF8E0C058
:102E8000604502D14FF0030C2BE0DFF8D8C060455D
:102E900002D14FF0040C24E0DFF8CCC0604502D131
:102EA0004FF0050C1DE0DFF8C4C0604502D14FF0C3
:102EB000060C16E0DFF8B8C0604502D14FF0070CF1
:102EC0000FE0DFF8B0C0604502D14FF0080C08E019
:102ED000DFF8A4C0604502D14FF0090C01E04FF0CB
:102EE0000A0C0CFA07FC4CEA060CCEF808C44F6832
:102EF000DBF80060FF0226EA020600D516435F46B3
:102F0000CBF80060D1F804C0DBF804605FEA8C2CD9
:102F100026EA020600D516437E606E684F6826EAF0
:102F20000206BF0300D516436E602E684F6826EA7E
:102F30000206FF0300D516432E605B1C0A6832FAB6
:102F400003F67FF411AFBDE8F88F00008000005851
:102F5000F4440258000002580004025800080258C5
:102F6000000C0258001002580014025800180258B1
:102F7000001C025800200258002402580069084032
:102F800000D001207047426921EA02030A4043EA67
:102F90000241816170470AB1816170470904FBE712
:102FA00001480068000C70470010005C0148806810
:102FB0007047000014000024024881680278114420
:102FC0008160704714000024032010B500F0DCF885
:102FD00001F0B6F80F4A104914681368C4F30322CD
:102FE00003F00F038A5CC95C02F01F0201F01F01AD
:102FF000D0400A4A20FA01F11160094908600F2007
:1030000000F010F808B1012010BD00F079F80020A0
:1030100010BD0000184402583C82000858000024EB
:103020005400002470B50D4D04462878A0B14FF42B
:103030007A71B1FBF0F00A490968B1FBF0F001F0D8
:1030400023FC48B9102C07D200222146501E00F064
:103050007BF800206C6070BD012070BD140000245E
:1030600054000024154BF0B5083B427813491A6010
:103070000B680A1F23F001030B6043681360057B94
:10308000C67A827A437B2D07847B45EA0665C77B37
:1030900090F809C0067A90F800E045EAC24040EA9C
:1030A000834040EA444040EA074040EA0C2040EABE
:1030B000460040EA0E000860F0BD0000A0ED00E010
:1030C000BFF35F8F044800210368034A23F4803371
:1030D000036070321160704724ED00E0074A40F051
:1030E0000100064970321060086840F480300860C2
:1030F000BFF34F8FBFF36F8F7047000024ED00E0E8
:10310000094808B5016841F0020101600068002229
:10311000114600F002000090052000F015F8BDE80F
:103120000840052000F002B8F4440258002809DBEA
:10313000410900F01F028900012001F1E0219040C7
:10314000C1F80001704700000E4BF0B41B680D463B
:10315000C3F30223C3F10706042E00D90426191D68
:10316000072901D2002300E0DB1E012404FA06F146
:103170009C40491E2940641E994014402143F0BCE4
:1031800004F0ACB80CED00E0064900F0070210B501
:103190004FF6FF040868044B204040EA0220184321
:1031A000086010BD0CED00E00000FA05134970B591
:1031B0000A68D243520705D5096801F00701814228
:1031C00013D118E00A6822F0070202430A60FFF7F1
:1031D000EDFE0A4D4FF47A760446083D07E000BF45
:1031E000FFF7E4FE001BB04201D9012070BD286842
:1031F000C0438004F4D4002070BD00000C48025885
:1032000010B500F057FF05490968054AC1F30211DE
:10321000515C01F01F01C84010BD0000204402585D
:103220003C820008494930B5484C0B1D0A681434EB
:1032300009681D68246802F00303C5F30012C1F396
:103240000531C4F3CC04002914FB02F200EE102A6D
:10325000F8EE400A75D03F4A9FED3D1AB7EE000ADE
:103260006BB1DFED3D1A012B01D0022B64D002EED1
:10327000101A1168F8EE422A81EEA22A21E0334C9E
:10328000283C23689B0612D5344B246801EE901A23
:103290001168C4F3C104F8EE612AE34001EE903AEC
:1032A000C1F30801F8EE611A81EEA22A0BE001EEEB
:1032B000901ADFED2B2A00BFF8EE611A116882EE3A
:1032C000A12AC1F3080101EE901A1168F8EE611A03
:1032D00040EE811A71EE800A62EE200AC1F34621A7
:1032E00001EE101AB8EE411A31EE001AC0EE811A42
:1032F000BCEEE11A80ED001A1168C1F3064101EE3F
:10330000101AB8EE411A31EE001AC0EE811ABCEE66
:10331000E11A80ED011A1168C1F3066101EE101A7D
:10332000B8EE411A31EE000A80EE801ABCEEC10AF6
:1033300080ED020A30BD04E001EE901ADFED092AAB
:10334000BAE70021016041608160F3E72844025838
:1033500000000039384402580024744A0090D00319
:103360000024744C0024F44A494930B5484C0B1DE4
:103370000A681C3409681D68246802F00303C5F359
:103380000022C1F30551C4F3CC04002914FB02F25E
:1033900000EE102AF8EE400A75D03F4A9FED3D1A24
:1033A000B7EE000A6BB1DFED3D1A012B01D0022B05
:1033B00064D002EE101A1168F8EE422A81EEA22AB9
:1033C00021E0334C283C23689B0612D5344B2468FB
:1033D00001EE901A1168C4F3C104F8EE612AE340CB
:1033E00001EE903AC1F30801F8EE611A81EEA22ACB
:1033F0000BE001EE901ADFED2B2A00BFF8EE611A08
:10340000116882EEA12AC1F3080101EE901A116839
:10341000F8EE611A40EE811A71EE800A62EE200A1F
:10342000C1F3462101EE101AB8EE411A31EE001A2E
:10343000C0EE811ABCEEE11A80ED001A1168C1F3EA
:10344000064101EE101AB8EE411A31EE001AC0EE34
:10345000811ABCEEE11A80ED011A1168C1F3066110
:1034600001EE101AB8EE411A31EE000A80EE801A11
:10347000BCEEC10A80ED020A30BD04E001EE901AF4
:10348000DFED092ABAE70021016041608160F3E7BE
:103490002844025800000039404402580024744A6D
:1034A0000090D0030024744C0024F44A2DE9FE4F10
:1034B0000546DFF8E48350F8081B0024F64FC943A3
:1034C000019005F12800264608F124080090080123
:1034D0001DD4A86E50B1B0F5801F0CD0B0F5001F00
:1034E0000ED0B0F5401F1ED001240FE0386840F424
:1034F0000030386017E00198022102F0DFFD03E0A0
:103500000098022102F06AFE04000CD026462888AA
:10351000C043C00523D4A86D05281ED2DFE800F003
:103520000C11161B1B00AA6ED8F8001021F44011D4
:103530001143C8F80010EAE7386840F400303860FA
:1035400009E00198002102F0B9FD03E00098002194
:1035500002F044FE044674B100E0012426462888A7
:10356000C043800528D4E86D80281ED00CDC90B1C3
:1035700040280ED114E0AA6DD8F8001021F0070100
:103580001143C8F80010EAE7C02813D0B0F5807FD7
:1035900010D001240FE0386840F40030386009E0B2
:1035A0000198002102F08AFD03E00098002102F05A
:1035B00015FE04469CB126462888DFF8DC92C043FD
:1035C00009F12C0940052CD4D5F8A800B0F5800FDE
:1035D00020D00DDCA0B1B0F5001F0FD115E0EA6DD1
:1035E000D8F8001021F4E0711143C8F80010E3E7A7
:1035F000B0F5C00F13D0B0F5000F10D001240FE0CC
:10360000386840F40030386009E00198002102F089
:1036100055FD03E00098002102F0E0FD04467CB176
:1036200026462888C04300052DD4D5F8AC00B0F15B
:10363000007F21D00EDCA8B1B0F1807F10D116E060
:10364000D5F8A820D9F8001021F460011143C9F879
:103650000010E6E7B0F1407F13D0B0F1806F10D0DA
:1036600001240FE0386840F40030386009E0019828
:10367000002102F023FD03E00098002102F0AEFDDE
:10368000044674B126462868C04380011FD4E86C04
:10369000D8B110280FD0202812D0302815D00124FE
:1036A00014E0D5F8AC20D9F8001021F0E061114306
:1036B000C9F80010E7E7386840F40030386004E0EB
:1036C0000198022102F0FAFC044674B126462888CB
:1036D000C043C0042BD4286EB0F5005F20D00DDCB1
:1036E000A0B1B0F5805F0FD115E06B48EA6C2030D7
:1036F000016821F0300111430160E8E7B0F5405F57
:1037000013D0B0F5804F10D001240FE0386840F49A
:103710000030386009E00198002102F0CFFC03E09E
:103720000098002102F05AFD04468CB126462888F4
:10373000C043800429D4686EB0F5403F23D010DC2C
:1037400008B3B0F5803F14D0B0F5003F0FD115E0BD
:103750002A6ED8F8001021F4E0411143C8F8001097
:10376000E5E7B0F5802F0ED0B0F5A02F0BD00124E7
:103770000AE00198012102F0A1FC03E00098012178
:1037800002F02CFD044694B126462888C04340042C
:103790002AD4D5F8B000B0F1405F23D010DC08B3D4
:1037A000B0F1805F14D0B0F1005F0FD115E06A6E08
:1037B000D8F8001021F4E0211143C8F80010E4E724
:1037C000B0F1804F0ED0B0F1A04F0BD001240AE031
:1037D0000198012102F072FC03E00098012102F03F
:1037E000FDFC044674B126462888C04300041FD45B
:1037F000286FD8B1B0F1805F0ED0B0F1005F10D06B
:10380000012414E0D5F8B020D9F8001021F0E041EF
:103810001143C9F80010E7E7386840F40030386019
:1038200004E00198012102F049FC044674B12646E7
:103830002868C043C0011ED4A86CD0B101280ED0A6
:10384000022811D0032814D0012413E02A6FD8F8DD
:10385000001021F040511143C8F80010E8E7386823
:1038600040F40030386004E00198022102F026FCA8
:103870000446ACB126462868DFF81CB0C043ABF163
:103880001C0B400252D40548016841F4807101606C
:10389000FFF78CFB824611E02C4402580048025886
:1038A000FA48AA6C016821F0030111430160E2E7C4
:1038B000FFF77CFBA0EB0A00642835D8F4480068C9
:1038C000C005F5D58CBBDFF8C4A3B5F8B4100AF178
:1038D000240ADAF8000001F4407100F440708842D4
:1038E00011D0DAF80010DAF8002021F4407142F427
:1038F0008032CAF80020DAF8002022F48032CAF8B8
:103900000020CAF80010D5F8B400B0F5807F1AD1B5
:10391000FFF74CFB029012E0FFF748FB0299411AB7
:1039200041F2883081420AD9032426462878DFF8FC
:103930005CA3C0430AF1080AC00721D03CE0DAF8D2
:1039400000008007E8D5D5F8B410C1F301200328A2
:1039500058460DD0016821F47C510160B5F8B420BF
:10396000DAF80010C2F30B021143CAF80010DDE7C9
:10397000C84A036802EA111223F47C511143ECE7B0
:10398000E86F182816D005DCA0B1082808D0102848
:1039900004D10AE020280DD028280BD001240AE009
:1039A0000198012102F08AFB03E00098012102F056
:1039B00015FC044664B126462878C04380071ED40F
:1039C000A86F062819D2DFE800F0160C111616169B
:1039D000EA6FDAF8001021F038011143CAF800103C
:1039E000EAE70198012102F069FB03E00098012158
:1039F00002F0F4FB04467CB100E00124264628785E
:103A0000C04340071FD4D5F89400062819D2DFE838
:103A100000F0160C11161616AA6FDAF8001021F035
:103A200007011143CAF80010E9E70198012102F0EB
:103A300045FB03E00098012102F0D0FB0446A4B14D
:103A400000E0012426462878C04380062BD4D5F810
:103A50009000B0F1405F24D011DC10B3B0F1805F72
:103A600015D0B0F1005F10D116E0D5F89420D9F848
:103A7000001021F007011143C9F80010E3E7B0F18D
:103A8000804F0ED0B0F1A04F0BD001240AE0019876
:103A9000002102F013FB03E00098022102F09EFBDC
:103AA000044694B126462878C04340062BD4D5F866
:103AB0009C00B0F5406F24D011DC10B3B0F5806FDE
:103AC00015D0B0F5006F10D116E0D5F89020DAF8D7
:103AD000001021F0E0411143CAF80010E3E7B0F50F
:103AE000805F0ED0B0F5A05F0BD001240AE00198F2
:103AF000002102F0E3FA03E00098022102F06EFBDD
:103B0000044694B126462878C04300062BD4D5F845
:103B1000A000B0F5C04F24D011DC10B3B0F5005FA9
:103B200015D0B0F5804F10D116E0D5F89C20D9F80B
:103B3000001021F4E0511143C9F80010E3E7B0F59B
:103B4000004F0ED0B0F5204F0BD001240AE00198B1
:103B5000002102F0B3FA03E00098022102F03EFBDC
:103B6000044654B126462878C04300071ED4D5F831
:103B70008400B0F5805F0AD00FE0D5F8A020D9F816
:103B8000001021F460411143C9F80010EBE70098E0
:103B9000022102F023FB00B10126D5F88420DAF8D7
:103BA000001021F440511143CAF800102878C04396
:103BB000C00613D4D5F89800B0F5807F05D10098E1
:103BC000022102F00BFB00B10126D5F89820D9F8AC
:103BD000001021F440711143C9F800102868C04357
:103BE000000316D4D5F8A40038B1B0F5803F09D051
:103BF000B0F5003F0BD001240AE00198002102F04B
:103C00005DFA03E00098022102F0E8FA04468CB164
:103C100026462868C043400322D4D5F88800B0F572
:103C2000801F11D0B0F5001F13D0B0F5401F15D084
:103C3000012414E0D5F8A420D9F8001021F4403173
:103C40001143C9F80010E4E7386840F400303860E8
:103C500004E00098012102F0C1FA04465CB1264656
:103C60002868C043C00323D4286DA8B1B0F5803FB5
:103C700017D001241BE0D5F88820DAF8001021F4D1
:103C800040111143CAF80010EAE700004C44025802
:103C900000480258CFFFFF00386840F40030386019
:103CA00004E00198022102F009FA0446E4B1264634
:103CB0002868C043800005D40098022102F08EFAE3
:103CC00000B101262868C04380031BD4D5F88000CA
:103CD000B0B1B0F5807F0FD0B0F5007F10D0B0F557
:103CE000407F0DD001240CE05A482A6D016821F470
:103CF000803111430160DBE7386840F40030386000
:103D0000ECB326462868C043C00207D46A6FD8F8CF
:103D1000001021F000411143C8F800102868C0438A
:103D2000C00008D4D5F8B820DBF8001021F4804199
:103D30001143CBF800102868C043800207D4EA6E14
:103D4000D8F8001021F080711143C8F800102868DD
:103D5000C04340000CD4DBF8001021F40041CBF844
:103D60000010DBF80010D5F8BC201143CBF8001090
:103D70002868C04308D437486A6D016800E018E03D
:103D800021F04051114301602868C043000208D46B
:103D9000D5F88C20DAF8001021F440011143CAF85C
:103DA000001028790024C04300F0010020430AD00D
:103DB0000FE0D5F88020DAF8001021F440711143AB
:103DC000CAF800109EE70198002102F077F900B1CF
:103DD00006462879C04300F00200204305D101982F
:103DE000012102F06BF900B106462879C04300F0CA
:103DF0000400204305D10198022102F05FF900B1CF
:103E000006462879C04300F00800204305D10098F9
:103E1000002102F0E3F900B106462879C04300F022
:103E20001000204305D10098012102F0D7F900B11C
:103E300006462879C04300F02000044304D10098CE
:103E4000022102F0CBF900B916B10120BDE8FE8FC6
:103E50000020FBE74C4402582DE9F05F04000F46B8
:103E60007ED0DFF83882D8F8000000F00F00B842AA
:103E70000CD2D8F8001021F00F013943C8F8001017
:103E8000D8F8000000F00F00B84269D12078844DC6
:103E900040070AD52069296801F07001884204D9D9
:103EA000296821F070010143296020787C4E361D7D
:103EB00000070AD56069316801F07001884204D9B1
:103EC000316821F07001014331602078C0060AD5C5
:103ED000A069316801F4E061884204D9316821F4B5
:103EE000E061014331602078DFF8B4B180060BF166
:103EF000080B0CD5E1695846DBF8002002F070028F
:103F0000914204D9026822F070020A4302602078CC
:103F100080070AD5E068296801F00F01884204D9BA
:103F2000296821F00F01014329602078C0073ED0A5
:103F30005B49A2682868183920F470601043286033
:103F40006068022818D0032819D00968012819D000
:103F5000490700294ADADFF848A1AAF1080A00E077
:103F600044E0DAF8002022F007020243CAF80020F9
:103F7000FFF71CF8814612E009688903E9E7096840
:103F80008901E6E7C905E4E7FFF710F8A0EB0901AE
:103F900041F28830814202D90320BDE8F09F616878
:103FA000DAF8000000F03800B0EBC10FECD1207857
:103FB00080070AD5E068296801F00F01884204D221
:103FC000296821F00F0101432960D8F8001040460C
:103FD00001F00F01B9420BD9016821F00F013943FB
:103FE0000160006800F00F00B84201D00120D4E762
:103FF000207840070AD52069296801F070018842BD
:1040000004D2296821F0700101432960207800075B
:104010000AD56069316801F07001884204D23168C4
:1040200021F07001014331602078C0060AD5A069F3
:10403000316801F4E061884204D2316821F4E06122
:1040400001433160207880060CD5E1695846DBF8E1
:10405000002002F07002914204D2026822F0700245
:104060000A43026000F06CF80E492A682B68C2F31C
:10407000032203F00F038A5CC95C02F01F0201F007
:104080001F01D040084A20FA01F111600749086079
:1040900007480068BDE8F05FFEF7C4BF002000528B
:1040A000184402583C8200085800002454000024A0
:1040B0001800002430B500F043F80B4A0B490C4BB4
:1040C00015681468C5F3032204F00F048A5C095DC7
:1040D00002F01F0201F01F01D040064A20FA01F150
:1040E00019601060084630BD184402583C82000830
:1040F000580000245400002400B5FFF7DBFF0549F9
:104100000968054AC1F30211515C01F01F01C84062
:1041100000BD00001C4402583C82000800B5FFF7B7
:10412000C9FF05490968054AC1F30221515C01F044
:104130001F01C84000BD00001C4402583C8200081A
:10414000454970B545480968434B103B11F03802AA
:1041500008D00111082A03D0102A0BD0182A0BD03E
:10416000084670BD19688906FBD51968C1F3C101FD
:10417000C84070BD3A4870BD3749374D18310C1DE5
:1041800024350A68096826682D6802F0030406F0E1
:104190000102C1F30511C5F3CC0515FB02F200EED7
:1041A000102AB8EE400AE9B32F4ADFED2E0AB7EE27
:1041B000001A6CB1DFED2D1A012C01D0022C43D076
:1041C00002EE101A1068F8EE422A81EEA22A1EE0D2
:1041D0001C68A40611D51B6801EE901A1168C3F380
:1041E000C103F8EE612AD84001EE900AC1F308003D
:1041F000F8EE611A81EEA22A0BE001EE901ADFEDD3
:104200001C2A00BFF8EE611A106882EEA12AC0F3E2
:10421000080001EE900AF8EE611A40EE201A31EE25
:10422000810A00E015E022EE000A1068C0F3462083
:10423000401C00EE900AF8EE600A80EE201ABCEEF8
:10424000C10A10EE100A70BD01EE901ADFED092AC6
:10425000D8E7002070BD0000104402580090D00341
:1042600000127A0000000039304402580024744AD9
:104270000024744C0024F44A2DE9F05F04007DD042
:10428000FF4F2078FE4D1837DFF8F493103DC0073C
:1042900048D0D9F80000396800F03800102815D04F
:1042A000182803D101F0030002280FD06068B0F590
:1042B000803F12D010B1B0F5A02F18D0286820F49C
:1042C00080302860286820F4802009E02868800376
:1042D00028D560680028D2D024E0286840F48030D7
:1042E0002860606888B1FEF761FE064609E028682C
:1042F00040F480202860F0E7FEF758FE801B642819
:104300006FD828688003F7D50CE0FEF74FFE06460D
:1043100005E000BFFEF74AFE801B6428F0D828683D
:104320008003F7D4207841F20308D54E0C3E800775
:1043300069D5D9F80000396810F038000ED0182877
:1043400001D188070AD0E06890B3296821F01901EB
:1043500001432960FEF72AFE824631E028684007C3
:1043600002D5E06800288AD0E168286820F01900AA
:1043700008432860FEF71AFE824607E0DFE000BF30
:10438000FEF714FEA0EB0A000228B9D828684007FF
:10439000F6D500BFFEF704FE40451BD82069402833
:1043A00012D0316821F47C3141EA003030602AE0DB
:1043B00018E000BFFEF7FAFDA0EB0A0002289FD824
:1043C00028684007F6D5E5E7306820F47C3040F4F3
:1043D0000030EBE7207C316821F0FE4141EA0060CB
:1043E000E4E70DE1286820F001002860FEF7DEFD1B
:1043F000824605E0FEF7DAFDA0EB0A0002288DD820
:1044000028684007F6D42078C0065DD5D9F80000AA
:10441000DFF86CB2396800F03800ABF1040B082803
:1044200010D0182803D101F0030001280AD0E06958
:104430000028286838D040F080002860FEF7B6FDDC
:10444000824623E02868C00523D5E069802876D11C
:104450001FE0206A202821D0316821F0F84141EA8C
:104460008060306030E000BF94F82010DBF800205E
:1044700022F07C5242EA0161CBF8001024E000BF38
:10448000FEF794FDA0EB0A00022898D82868C00522
:10449000F6D5FEF785FD4045E6D8DAE7306820F02E
:1044A000F84040F08040DCE720F080002860FEF714
:1044B0007DFD064605E000BFFEF778FD801B022863
:1044C0009DD82868C005F7D42078000729D56C4806
:1044D0006169643000298046016811D041F0010112
:1044E0000160FEF763FD064605E000BFFEF75EFDD6
:1044F000801B0228C9D8D8F800008007F6D510E044
:1045000021F001010160FEF751FD064605E000BF04
:10451000FEF74CFD801B022872D8D8F800008007F7
:10452000F6D42078800623D5A0690028286810D00A
:1045300040F480502860FEF739FD064605E036E17C
:10454000FEF734FD801B02285AD828688004F7D56E
:104550000EE020F480502860FEF728FD064604E0B7
:10456000FEF724FD801B02284AD828688004F7D46F
:10457000207840074FD5DFF80C81D8F8001041F4BF
:104580008071C8F80010FEF711FD064605E000BF77
:10459000FEF70CFD801B642832D8D8F80000C00557
:1045A000F6D5374EA068603601280AD008B1052834
:1045B00013D0306820F001003060306820F0040033
:1045C00002E0306840F001003060A06841F2883AB3
:1045D00090B1FEF7EBFC80460AE0306840F0040042
:1045E0003060EEE7FEF7E2FCA0EB0801514507D88A
:1045F00030688007F6D50EE0FEF7D8FC804607E06D
:1046000084E000BFFEF7D2FCA0EB080151457DD845
:1046100030688007F6D4606AB0B3DFF86480D9F8F8
:10462000001008F120084FF6F87B08F10409C1F3E7
:10463000C2010329A8F1040A69D00228286820F0E1
:104640008070286003D0FEF7B1FC044684E0FEF7DA
:10465000ADFC064605E000BFFEF7A8FC801B022863
:1046600077D828688001F7D4E26A40F2F3313868DD
:1046700054F8283F884340EA02101843386004E0A9
:104680001044025800480258B5E0217B4346228975
:104690004FF4FE0C208A4FF0FE474902267D521E41
:1046A000401EA1F50071C2F308088AB2761E0CEA1A
:1046B000004042EA08020243504607EA06610A4304
:1046C0001A60DAF8002022F00102CAF80020D9F8B6
:1046D0000020266A22EA0B0242EAC602C9F800203C
:1046E000DAF80010A26921F00C011143CAF8001099
:1046F0000168E26921F0020111430160016841F49F
:1047000080310160016841F4003101E021E027E0DF
:104710000160016841F480210160016841F00101FC
:104720000160286840F080702860FEF73FFC044676
:1047300005E000BFFEF73AFC001B022809D82868F4
:104740008001F7D557E000BFFEF730FC001B0228C0
:1047500002D90320BDE8F09F28688001F4D44AE024
:1047600039680128D8F8000021D0A26A01F00303BB
:1047700093421CD1E26AC1F305118A4217D1216B21
:10478000C0F30802491E8A4211D1616BC0F3462270
:10479000491E91420BD1A16BC0F30642491E9142C2
:1047A00005D1E16BC0F30660491E814201D00120B2
:1047B000D0E7A16C4E46D9F80000C0F3CC0081428E
:1047C00019D0DAF80000554620F00100CAF80000C0
:1047D000FEF7ECFB4FEA0007FEF7E8FBB842FBD020
:1047E000A26C306820EA0B0040EAC2003060286802
:1047F00040F0010028600020ACE700002DE9F04106
:1048000004001D4616460F4603D0D4F8880018B1A0
:1048100008E00120BDE8F081002084F884002046F3
:1048200000F0C8FE2420C4F888002068016821F048
:1048300001010160A06A10B1204602F021F9204672
:1048400002F0BEFA0128E5D0206871050D4A41EA60
:104850000541836843F4804383602068836823F4C0
:1048600000433B4383602068036813400B430360AD
:104870002068016841F0010101602046BDE8F04177
:1048800002F062B9FFFF00FC401EB0F1807F10B55E
:1048900001D3012010BD4FF0E02460610F216017AB
:1048A00002F01CFD0020A0610721216110BD7047AE
:1048B00070477047F0B590F83C20012A3BD01F4E5E
:1048C000012480F83C40022280F83D2002681C4D03
:1048D0005368B242D2F808C001D0AA4203D14F684F
:1048E00023F470033B430F6823F070031F435760AA
:1048F0000268B24213D0B2F1804F10D0114B9A42ED
:104900000DD0114B9A420AD0104B9A4207D0AA42BE
:1049100005D00F4B9A4202D00E4B9A4204D18968BF
:104920002CF0800319439160002180F83D4080F80D
:104930003C100846F0BD0220F0BD00000000014020
:10494000000401400004004000080040000C00404A
:10495000001800400040014010B5040003D094F856
:104960003D0010B107E0012010BD002084F83C009C
:10497000204600F023F8022084F83D002068211D25
:1049800001F01EFF012084F8480084F83E0084F8FE
:104990003F0084F8400084F8410084F8420084F825
:1049A000430084F8440084F8450084F8460084F805
:1049B000470084F83D00002010BD000010B586B00F
:1049C000044614216846FBF7C5FD23492068884248
:1049D00040D12248016841F001010160006800F007
:1049E000010005901D481038016841F01001016078
:1049F00000680123022200F01000059000204FF40F
:104A0000007100916946CDE90120CDE90303144806
:104A1000FEF79EF9002218201146FEF795FB18209C
:104A2000FEF784FB002219201146FEF78DFB1920AA
:104A3000FEF77CFB00221A201146FEF785FB1A20A8
:104A4000FEF774FB00221B201146FEF77DFB1B20A6
:104A5000FEF76CFB06B010BD00000140F0440258A8
:104A60000010025890F83D10012901D00120704734
:104A7000174A022180F83D100168CB6843F001031A
:104A8000CB600068904214D0B0F1804F11D0114932
:104A900088420ED0104988420BD01049884208D075
:104AA0000F49884205D00F49884202D00E498842FA
:104AB00007D181680D4A1140062906D0B1F5803F23
:104AC00003D0016841F0010101600020704700003F
:104AD000000001400004004000080040000C0040BD
:104AE00000040140001800400040014007000100A0
:104AF00070B5044690F83C000025012814D03A4BCC
:104B0000012684F83C60022084F83D002268906809
:104B1000184020F47F409060086870282FD010DC87
:104B200010F00F0F03D022E04FF0020070BD4FEAEB
:104B30002012072A1BD2DFE802F0535353534B399C
:104B40004100B0F1101F4BD009DCB0F5805F0FD0F1
:104B5000B0F5005F1ED0B0F5801F08D140E0A0F591
:104B6000801120393CD010293AD0202938D0012595
:104B700084F83D60002084F83C00284670BD4A68F7
:104B80002068D1E9021301F081FE2068816841F0BC
:104B9000770109E04A682068D1E9021301F076FE46
:104BA0002068816841F480418160E1E7CA68496812
:104BB000206801F07FFE2068502106E0CA6849683D
:104BC000206801F0C9FE2068602101F069FECFE78E
:104BD000CA684968206801F06DFE20684021F4E74A
:104BE000226801461046F0E788FFCEFF70472DE9A6
:104BF000F047054690F83C0000260C46012810D0EE
:104C0000012085F83C0072B1042A1CD0082A2CD05F
:104C10000C2A52D00126002085F83C003046BDE821
:104C2000F0870220FBE7E3682868D4E9001201F06E
:104C300053FE2868816921F00C018161286881692F
:104C4000A26811430FE0E3682868D4E9001201F07C
:104C500095FE2868816921F4406181612868816935
:104C6000A26841EA02218161D5E728684FF4206CEF
:104C7000D4E90032217B076AD0F820800CEA0323B4
:104C8000090727F4206728F4807CC0F820C0D0F8FA
:104C90001CC03B432CF00307174327F0F00242EA05
:104CA0001161C16103622868C16921F00C01C16111
:104CB0002868A268C169114328E0D4E90023286864
:104CC0004FF42048E1684FF6FF7C9946036A076A73
:104CD00008EA023223F420431A430CEA013127F494
:104CE00080570762C36923F4407747EA092323F416
:104CF00070431943C16102622868C16921F44061AF
:104D0000C1612868A168C26942EA0121C16182E7E4
:104D100010B5040003D094F83D0010B107E0012065
:104D200010BD002084F83C00204600F023F802204B
:104D300084F83D002068211D01F042FD012084F827
:104D4000480084F83E0084F83F0084F8400084F86E
:104D5000410084F8420084F8430084F8440084F859
:104D6000450084F8460084F8470084F83D000020A0
:104D700010BD000010B586B0044614216846FBF74C
:104D8000E9FB16492068884226D11548016841F0A0
:104D900008010160006800F008000590104808381C
:104DA000016841F00101016000680021012200F06A
:104DB0000100059002200092CDE90101CDE9031028
:104DC00008486946FDF7C4FF002201213220FEF7A2
:104DD000BBF93220FEF7AAF906B010BD000C004066
:104DE000E8440258000002582DE9F04104460068EA
:104DF0000027C6680569A90713D5B10711D5FA1EA2
:104E0000026101212177206880698007204602D055
:104E1000FFF7ECFE04E000F08BF8204600F089F884
:104E20002777680716D5700714D5226802206FF01F
:104E30000401116120772068806910F4407F2046CA
:104E400002D0FFF7D3FE04E000F072F8204600F035
:104E500070F82777280715D5300713D52268042066
:104E60006FF00801116120772068C0698007204633
:104E700002D0FFF7BBFE04E000F05AF8204600F035
:104E800058F82777E80616D5F00614D522680820CA
:104E90006FF01001116120772068C06910F4407F25
:104EA000204602D0FFF7A2FE04E000F041F82046C1
:104EB00000F03FF82777E80708D0F00706D0216810
:104EC0006FF001000861204600F034F8280601D494
:104ED000A80408D5300606D521686FF40250086191
:104EE0002046FFF7E5FCE80508D5300606D5216821
:104EF0006FF4807008612046FFF7D9FC680608D57A
:104F0000700606D521686FF040000861204600F069
:104F10006FF8A8060AD5B00608D521686FF0200002
:104F200008612046BDE8F041FFF7C3BCBDE8F08151
:104F30007047704738B500681D49884237D11D4D0C
:104F400041152846FEF71AF81B4C4FF4807120706B
:104F50002846FEF713F84FF4806160702846FEF78C
:104F60000DF8A07015480068012813D11448006896
:104F700001280FD11348018831B10090124B134A18
:104F800013491448FBF73CFE134B144A14491548C7
:104F900001F0B6F914480188491C89B20180A1F5D5
:104FA0004072E73A03D1114A01211170018038BDE6
:104FB000000C0040000C02583000002404000024C3
:104FC0000C00002412000024000A0024B40900246C
:104FD00068090024B00400245C090024500900245E
:104FE00080050024C40400241000002408000024CC
:104FF000704730B590F88410012918D0012280F84C
:1050000084202421C0F888100022202401680B6825
:105010000D6823F0005325F001050D60426601681C
:105020000B60C0F8884080F88420104630BD022014
:1050300030BD10B50446D0F88C00202801D00220E5
:1050400010BD61B15AB10123E366002020672046FC
:1050500002F08CF80028F3D1E16E012901D0012083
:1050600010BD226810211162226852E8001F41F031
:10507000100142E80013002BF6D110BD70B517499E
:10508000044600680125884206D115480F221549BB
:1050900005801548FFF7CDFF1449206888421CD1D0
:1050A0001349144802F008FF134814490268521CBF
:1050B00002600868002810D1142A0ED10D489FED17
:1050C000101A9FED100AD0ED080A0F4860EE810A11
:1050D00080EE801A80ED001A0D6070BD0014014052
:1050E00012000024B004002498030024007C004037
:1050F00081000024540400245000002404000024F3
:10510000DA0F49400000344300000024704770B5B6
:10511000044690F8840001281DD0012284F88420E0
:105120002420C4F8880020680568026822F0010283
:1051300002602068826822F060620A438260204632
:1051400001F07CFC2268202100201560C4F8881042
:1051500084F8840070BD022070BD70B5044690F8DC
:10516000840001281DD0012284F884202420C4F862
:10517000880020680568026822F001020260206849
:10518000826822F060420A438260204601F056FCA9
:105190002268202100201560C4F8881084F884005B
:1051A00070BD022070BD7047704770472DE9F04117
:1051B00007680025044640F60F030226F86939689F
:1051C000BA6818420AD183067ED501F0200302F0A6
:1051D000805C53EA0C0377D0616F7EE1D44BDFF83B
:1051E00054C3134001EA0C0C53EA0C0C6CD05FEA78
:1051F000C07C0CD05FEAC15C09D54FF0010CC7F848
:1052000020C0D4F8907047F00107C4F89070870769
:1052100009D5D70707D027683E62D4F8906046F0DA
:105220000406C4F8906046070AD5D60708D0276858
:1052300004263E62D4F8906046F00206C4F89060FE
:1052400006070CD501F020061E4308D02668082367
:105250003362D4F8903043F00803C4F8903003056B
:105260000BD54B0109D526684FF400633362D4F89F
:10527000903043F02003C4F89030D4F89030002BE5
:105280003DD0800609D501F0200002F0805108438E
:1052900003D0616F09B1204688472168D4F8900097
:1052A0008968490602D410F0280F2AD0204601F060
:1052B00045FD2068806840061ED52068083050E80B
:1052C000001F21F0400100E021E040E80012002A28
:1052D000F3D1D4F8800078B197490165D4F8800003
:1052E000FCF786F800280AD0D4F88000016D00E0B1
:1052F0002046BDE8F04108472046FFF756FFBDE8CD
:10530000F0812046FFF751FFC4F89050F7E7D4F83A
:105310006CC02023BCF1010F7ED15FEAC06C7BD54D
:105320005FEAC16C78D5102038622068806840063A
:1053300073D5D4F8802081491068884234D07F49E1
:105340001831884230D07D49303188422CD07B4999
:105350004831884228D079496031884224D0774941
:105360007831884220D07549903188421CD07349E9
:10537000A831884218D07249884215D07049183136
:10538000884211D06E49303188420DD06C49483185
:10539000884209D06A496031884205D0684978312D
:1053A000884201D06649903140684FF4807700040C
:1053B000000C40D0B4F85C1081423CD9A4F85E00E7
:1053C000D069B8422FD0216851E8000F20F48070D6
:1053D00041E80002002AF6D12068083050E8001F9A
:1053E00021F0010140E80012002AF5D120680830C0
:1053F00050E8001F21F0400140E80012002AF5D1DA
:10540000C4F88C30E566206850E8001F21F01001D8
:1054100040E80012002A01E04AE019E0F3D1D4F894
:105420008000FBF735FE2667B4F85C00B4F85E1028
:10543000401A81B208E0B4F85C1081427FF466AF94
:10544000D069B842FAD126672046FFF717FE56E723
:10545000B4F85C00B4F85E10B4F85E20401A81B273
:10546000002AF4D00029F2D0226852E8000F20F47C
:10547000907042E80007002FF6D1324F206800F10B
:10548000080050E8002F02EA070240E8002CBCF1B7
:10549000000FF3D1C4F88C30E5666567226852E8E6
:1054A000000F20F0100042E80003002BF6D1CAE7FD
:1054B000C60209D5560207D54FF48010386220463F
:1054C000BDE8F041FFF770BE06060AD501F0800680
:1054D00002F40002164304D0A16F00297FF408AF44
:1054E0000DE7420611D54A060FD52046016851E85E
:1054F000002F22F0400241E80024002CF6D1C0F831
:105500008830856700F002FBF9E6020206D54A0002
:1055100004D52046BDE8F041FFF745BEC00196D551
:10552000002994DA2046BDE8F041FFF7EFBD000006
:105530000100001020010004F36B0008100002407D
:1055400010040240FEFFFFEF10B5040003D0D4F8B2
:10555000880010B107E0012010BD002084F884000D
:10556000204600F027F82420C4F88800206801684D
:1055700021F001010160A06A10B1204601F080FA1B
:10558000204601F01DFC0128E6D02068416821F486
:10559000904141602068816821F02A018160206883
:1055A000016841F0010101602046BDE8104001F0B2
:1055B000CBBA00002DE9F04FB7B00546142130A852
:1055C000FAF7C8FFC0216846FAF7C4FFBE4A0321B4
:1055D000BC4E002428684FF0180BDFF8E892083E14
:1055E00017154FF00208904245D100201E9102226B
:1055F000CDE900206846FDF759FF08B1FBF724FC10
:10560000D9F8001041F08041C9F80010D9F8000025
:1056100000F080403590306840F002003060306823
:105620000B22CDF8C0B030A900F00200CDE93184E2
:105630003394CDE93420A548FDF78AFBA44E4F21D1
:10564000A44886E8130082153046C6E90347746112
:10565000C6E9064234627462FCF780FB08B1FBF7CE
:10566000F3FBC5F8806000220121B5635220FDF7ED
:105670006BFD522066E0984A4FF0400A904266D196
:1056800000221E9102238B466846CDE90032FDF7C9
:105690000DFF08B1FBF7D8FBD9F8001041F000412D
:1056A000C9F80010D9F8000000F0004035903068CB
:1056B00040F01000306030680822CDF8C0B030A94A
:1056C00000F01000CDE931843394CDE934208348D3
:1056D000FDF73EFBDFF808825223824A4046C0E9CC
:1056E0000347C8F81440C8F81840C8F81C40C8F868
:1056F000204088E80C04C8F82440FCF72FFB08B1D0
:10570000FBF7A2FB784E51227649C5F87C803046E3
:105710001839C8F8385086E81600C6E9034774619E
:10572000B461F46134627462FCF718FB08B1FBF7F2
:105730008BFB0022C5F8806053201146B563FDF74E
:1057400003FD5320FDF7F2FC37B0BDE8F08F674A48
:10575000904257D100201E910222CDE900206846D8
:10576000FDF7A4FE08B1FBF76FFBD9F8001041F478
:105770000031C9F80010D9F8000000F4003035906D
:10578000306840F001003060306800F00100359072
:10579000306840F0080030603068464630964FF080
:1057A000070800F00800CDE9316430A93394CDE951
:1057B00034804F48FDF7CCFA60213091CDE9316457
:1057C0004C4830A9CDE93348FDF7C2FA4A4E2C22A5
:1057D000444930464839C6E903477461B461F4610D
:1057E0003462746286E80604FCF7B8FA08B1FBF785
:1057F0002BFB0022EE6726201146B563FDF7A4FCC3
:1058000026209FE73D4988429ED10021CDF87CB0FB
:1058100001226846CDE90021FDF748FE08B1FBF7FB
:1058200013FB28480830016841F02001016000683E
:1058300000F020003590306840F00400306030689F
:10584000C0223092072100F00400CDE93184339466
:10585000CDE934102A4830A9FDF77AFADFF8A480A0
:105860004823204A4046303AC0E90347C8F814406C
:10587000C8F81840C8F81C40C8F8204088E80C0454
:10588000C8F82440FCF76AFA08B1FBF7DDFA1E4EAF
:1058900047221049C5F87C8030461831C8F8385086
:1058A00086E81600C6E903477461B461F4613462A6
:1058B0007462FCF753FA08B1FBF7C6FAC5F88060CA
:1058C000B56341E7E84402580078004000040258FC
:1058D0001006002410040240007C00400010025812
:1058E00088060024580002400007002400440040BD
:1058F00000000258000C02587807002400140140F0
:1059000000080258F00700246808002430B4D0F8DA
:105910008C30202B02D0022030BC7047A9B1A2B13C
:105920000B4D00240368C466AB420BD05B681B02BE
:1059300008D5046854E8003F43F0806344E800352C
:10594000002DF6D130BC01F011BC0120E4E70000CD
:10595000000C005810B5134904460068884211D164
:10596000114921221148FAF77EFD10490E4802F034
:10597000CFFB0E490E4802F035FB0B4921220D48A2
:10598000FFF7C4FF0C492068884209D10B49012068
:105990000B220880BDE8104009490A48FFF7B6BF4E
:1059A00010BD000000780040600000242C09002495
:1059B0002C040024DC010024001401401200002407
:1059C000B00400249803002470472DE9F8430446EE
:1059D000D0F88800984616460D46202802D00220AE
:1059E000BDE8F883A5B19EB10021C4F89010212034
:1059F000C4F888001834FDF7D9FA814654F8100C21
:105A0000A687E6872027183CB0F5805F02D003E028
:105A10000120E5E7206910B12E46002510E00026A0
:105A20000EE08021204601F0F5FBC0B9DEB116F88A
:105A3000010B21688862B4F85600401EA4F8560095
:105A4000B4F856004B464FF00002CDF80080002815
:105A5000E7D14FF04001204601F0DCFB48B1C4F82B
:105A600088700320BCE735F8020B2168C0F30800FA
:105A7000E0E7C4F888700020B2E7000070B5044683
:105A8000D0F88800202801D0022070BD39B332B38D
:105A9000E06F002321652125A4F85420A4F85620A6
:105AA000C4F89030C4F88850D8B11549C163E16F8B
:105AB00014480864E16F1448C864E06F0365134636
:105AC0002068E56F00F12802216D2846FCF728FBCD
:105AD00038B11021C4F890102020C4F888000120AB
